{
  "address": "0xe7f1725E7734CE288F8367e1Bb143E90bb3F0512",
  "abi": [
    {
      "inputs": [
        {
          "internalType": "address",
          "name": "_feeAccount",
          "type": "address"
        },
        {
          "internalType": "uint256",
          "name": "_feePercent",
          "type": "uint256"
        },
        {
          "internalType": "address",
          "name": "priceFeeAddress",
          "type": "address"
        }
      ],
      "stateMutability": "nonpayable",
      "type": "constructor"
    },
    {
      "inputs": [],
      "name": "CrowdFund__Deadline",
      "type": "error"
    },
    {
      "inputs": [],
      "name": "CrowdFund__Ended",
      "type": "error"
    },
    {
      "inputs": [],
      "name": "CrowdFund__NotOwner",
      "type": "error"
    },
    {
      "inputs": [],
      "name": "CrowdFund__Required",
      "type": "error"
    },
    {
      "anonymous": false,
      "inputs": [
        {
          "indexed": false,
          "internalType": "uint256",
          "name": "id",
          "type": "uint256"
        },
        {
          "indexed": true,
          "internalType": "address",
          "name": "creator",
          "type": "address"
        },
        {
          "indexed": false,
          "internalType": "uint256",
          "name": "timestamp",
          "type": "uint256"
        }
      ],
      "name": "CancelCampaign",
      "type": "event"
    },
    {
      "anonymous": false,
      "inputs": [
        {
          "indexed": false,
          "internalType": "uint256",
          "name": "id",
          "type": "uint256"
        },
        {
          "indexed": true,
          "internalType": "address",
          "name": "creator",
          "type": "address"
        },
        {
          "indexed": false,
          "internalType": "enum CrowdFund.Category",
          "name": "category",
          "type": "uint8"
        },
        {
          "indexed": false,
          "internalType": "uint256",
          "name": "target",
          "type": "uint256"
        },
        {
          "indexed": false,
          "internalType": "uint256",
          "name": "deadline",
          "type": "uint256"
        }
      ],
      "name": "CreatedCampaign",
      "type": "event"
    },
    {
      "anonymous": false,
      "inputs": [
        {
          "indexed": false,
          "internalType": "uint256",
          "name": "id",
          "type": "uint256"
        },
        {
          "indexed": true,
          "internalType": "address",
          "name": "donator",
          "type": "address"
        },
        {
          "indexed": false,
          "internalType": "uint256",
          "name": "value",
          "type": "uint256"
        },
        {
          "indexed": false,
          "internalType": "uint256",
          "name": "timestamp",
          "type": "uint256"
        }
      ],
      "name": "DonatedCampaign",
      "type": "event"
    },
    {
      "anonymous": false,
      "inputs": [
        {
          "indexed": false,
          "internalType": "uint256",
          "name": "id",
          "type": "uint256"
        },
        {
          "indexed": true,
          "internalType": "address",
          "name": "creator",
          "type": "address"
        },
        {
          "indexed": false,
          "internalType": "uint256",
          "name": "donations",
          "type": "uint256"
        },
        {
          "indexed": false,
          "internalType": "uint256",
          "name": "timestamp",
          "type": "uint256"
        }
      ],
      "name": "PaidOutCampaign",
      "type": "event"
    },
    {
      "anonymous": false,
      "inputs": [
        {
          "indexed": false,
          "internalType": "uint256",
          "name": "id",
          "type": "uint256"
        },
        {
          "indexed": true,
          "internalType": "address",
          "name": "creator",
          "type": "address"
        }
      ],
      "name": "RefundCampaign",
      "type": "event"
    },
    {
      "anonymous": false,
      "inputs": [
        {
          "indexed": false,
          "internalType": "uint256",
          "name": "id",
          "type": "uint256"
        },
        {
          "indexed": false,
          "internalType": "uint256",
          "name": "newTarget",
          "type": "uint256"
        },
        {
          "indexed": false,
          "internalType": "uint256",
          "name": "newDeadline",
          "type": "uint256"
        }
      ],
      "name": "UpdatedCampaign",
      "type": "event"
    },
    {
      "anonymous": false,
      "inputs": [
        {
          "indexed": false,
          "internalType": "uint256",
          "name": "id",
          "type": "uint256"
        },
        {
          "indexed": true,
          "internalType": "address",
          "name": "creator",
          "type": "address"
        }
      ],
      "name": "WithdrawCampaign",
      "type": "event"
    },
    {
      "inputs": [
        {
          "internalType": "uint256",
          "name": "_id",
          "type": "uint256"
        }
      ],
      "name": "cancelCampaign",
      "outputs": [],
      "stateMutability": "nonpayable",
      "type": "function"
    },
    {
      "inputs": [
        {
          "internalType": "enum CrowdFund.Category",
          "name": "_category",
          "type": "uint8"
        },
        {
          "internalType": "string",
          "name": "_title",
          "type": "string"
        },
        {
          "internalType": "string",
          "name": "_description",
          "type": "string"
        },
        {
          "internalType": "uint256",
          "name": "_target",
          "type": "uint256"
        },
        {
          "internalType": "uint256",
          "name": "_deadline",
          "type": "uint256"
        },
        {
          "internalType": "string",
          "name": "_image",
          "type": "string"
        }
      ],
      "name": "createCampaign",
      "outputs": [
        {
          "internalType": "uint256",
          "name": "",
          "type": "uint256"
        }
      ],
      "stateMutability": "nonpayable",
      "type": "function"
    },
    {
      "inputs": [
        {
          "internalType": "uint256",
          "name": "_id",
          "type": "uint256"
        }
      ],
      "name": "donateToCampaign",
      "outputs": [],
      "stateMutability": "payable",
      "type": "function"
    },
    {
      "inputs": [
        {
          "internalType": "uint256",
          "name": "_id",
          "type": "uint256"
        }
      ],
      "name": "getBalance",
      "outputs": [
        {
          "internalType": "uint256",
          "name": "",
          "type": "uint256"
        }
      ],
      "stateMutability": "view",
      "type": "function"
    },
    {
      "inputs": [],
      "name": "getCampaigns",
      "outputs": [
        {
          "components": [
            {
              "internalType": "uint256",
              "name": "id",
              "type": "uint256"
            },
            {
              "internalType": "address",
              "name": "owner",
              "type": "address"
            },
            {
              "internalType": "string",
              "name": "title",
              "type": "string"
            },
            {
              "internalType": "string",
              "name": "description",
              "type": "string"
            },
            {
              "internalType": "uint256",
              "name": "target",
              "type": "uint256"
            },
            {
              "internalType": "uint256",
              "name": "deadline",
              "type": "uint256"
            },
            {
              "internalType": "uint256",
              "name": "amountCollected",
              "type": "uint256"
            },
            {
              "internalType": "string",
              "name": "image",
              "type": "string"
            },
            {
              "internalType": "address[]",
              "name": "donators",
              "type": "address[]"
            },
            {
              "internalType": "uint256[]",
              "name": "donations",
              "type": "uint256[]"
            },
            {
              "internalType": "enum CrowdFund.CampaignStatus",
              "name": "status",
              "type": "uint8"
            },
            {
              "internalType": "enum CrowdFund.Category",
              "name": "category",
              "type": "uint8"
            },
            {
              "internalType": "bool",
              "name": "refunded",
              "type": "bool"
            }
          ],
          "internalType": "struct CrowdFund.Campaign[]",
          "name": "",
          "type": "tuple[]"
        }
      ],
      "stateMutability": "view",
      "type": "function"
    },
    {
      "inputs": [],
      "name": "getContractBalance",
      "outputs": [
        {
          "internalType": "uint256",
          "name": "",
          "type": "uint256"
        }
      ],
      "stateMutability": "view",
      "type": "function"
    },
    {
      "inputs": [
        {
          "internalType": "uint256",
          "name": "_id",
          "type": "uint256"
        }
      ],
      "name": "getDonators",
      "outputs": [
        {
          "internalType": "address[]",
          "name": "",
          "type": "address[]"
        },
        {
          "internalType": "uint256[]",
          "name": "",
          "type": "uint256[]"
        }
      ],
      "stateMutability": "view",
      "type": "function"
    },
    {
      "inputs": [],
      "name": "getFeeAccount",
      "outputs": [
        {
          "internalType": "address",
          "name": "",
          "type": "address"
        }
      ],
      "stateMutability": "view",
      "type": "function"
    },
    {
      "inputs": [],
      "name": "getFeePercent",
      "outputs": [
        {
          "internalType": "uint256",
          "name": "",
          "type": "uint256"
        }
      ],
      "stateMutability": "view",
      "type": "function"
    },
    {
      "inputs": [],
      "name": "getPriceFeed",
      "outputs": [
        {
          "internalType": "contract AggregatorV3Interface",
          "name": "",
          "type": "address"
        }
      ],
      "stateMutability": "view",
      "type": "function"
    },
    {
      "inputs": [
        {
          "internalType": "uint256",
          "name": "_id",
          "type": "uint256"
        }
      ],
      "name": "getRefundStatus",
      "outputs": [
        {
          "internalType": "bool",
          "name": "",
          "type": "bool"
        }
      ],
      "stateMutability": "view",
      "type": "function"
    },
    {
      "inputs": [
        {
          "internalType": "uint256",
          "name": "_id",
          "type": "uint256"
        }
      ],
      "name": "getStatus",
      "outputs": [
        {
          "internalType": "enum CrowdFund.CampaignStatus",
          "name": "_status",
          "type": "uint8"
        }
      ],
      "stateMutability": "view",
      "type": "function"
    },
    {
      "inputs": [
        {
          "internalType": "uint256",
          "name": "_id",
          "type": "uint256"
        }
      ],
      "name": "refundCampaign",
      "outputs": [],
      "stateMutability": "nonpayable",
      "type": "function"
    },
    {
      "inputs": [
        {
          "internalType": "uint256",
          "name": "",
          "type": "uint256"
        }
      ],
      "name": "s_campaignExist",
      "outputs": [
        {
          "internalType": "bool",
          "name": "",
          "type": "bool"
        }
      ],
      "stateMutability": "view",
      "type": "function"
    },
    {
      "inputs": [],
      "name": "s_numberOfCampaigns",
      "outputs": [
        {
          "internalType": "uint256",
          "name": "",
          "type": "uint256"
        }
      ],
      "stateMutability": "view",
      "type": "function"
    },
    {
      "inputs": [
        {
          "internalType": "uint256",
          "name": "_fee",
          "type": "uint256"
        }
      ],
      "name": "setFee",
      "outputs": [],
      "stateMutability": "nonpayable",
      "type": "function"
    },
    {
      "inputs": [
        {
          "internalType": "uint256",
          "name": "_id",
          "type": "uint256"
        },
        {
          "internalType": "uint256",
          "name": "_newTarget",
          "type": "uint256"
        },
        {
          "internalType": "uint256",
          "name": "_newDeadline",
          "type": "uint256"
        }
      ],
      "name": "updateCampaign",
      "outputs": [],
      "stateMutability": "nonpayable",
      "type": "function"
    },
    {
      "inputs": [
        {
          "internalType": "uint256",
          "name": "_id",
          "type": "uint256"
        }
      ],
      "name": "withdrawCampaign",
      "outputs": [],
      "stateMutability": "payable",
      "type": "function"
    }
  ],
  "transactionHash": "0x9b2f1bcc515958c5683af4ff1ec6cf0c9f29335b61b4163edb8e45a96d7beff9",
  "args": [
    "0x70997970C51812dc3A010C7d01b50e0d17dc79C8",
    10,
    "0x5FbDB2315678afecb367f032d93F642f64180aa3"
  ],
  "numDeployments": 1,
  "solcInputHash": "6d5fec06b68b7a38c178e8902be24c92",
  "bytecode": "0x60a060405260006003553480156200001657600080fd5b506040516200360c3803806200360c83398181016040528101906200003c9190620001a7565b8273ffffffffffffffffffffffffffffffffffffffff1660808173ffffffffffffffffffffffffffffffffffffffff16815250508160008190555033600160006101000a81548173ffffffffffffffffffffffffffffffffffffffff021916908373ffffffffffffffffffffffffffffffffffffffff16021790555080600260006101000a81548173ffffffffffffffffffffffffffffffffffffffff021916908373ffffffffffffffffffffffffffffffffffffffff16021790555050505062000203565b600080fd5b600073ffffffffffffffffffffffffffffffffffffffff82169050919050565b6000620001348262000107565b9050919050565b620001468162000127565b81146200015257600080fd5b50565b60008151905062000166816200013b565b92915050565b6000819050919050565b62000181816200016c565b81146200018d57600080fd5b50565b600081519050620001a18162000176565b92915050565b600080600060608486031215620001c357620001c262000102565b5b6000620001d38682870162000155565b9350506020620001e68682870162000190565b9250506040620001f98682870162000155565b9150509250925092565b6080516133df6200022d60003960008181610e3d01528181610f23015261212d01526133df6000f3fe6080604052600436106101095760003560e01c80636f9fb98a11610095578063a781032211610064578063a781032214610376578063be74264d1461039f578063cad240e5146103ca578063f487a65c14610407578063f59a9bb01461043257610109565b80636f9fb98a146102d95780637684fc86146103045780639e87a5cd14610320578063a6b036331461034b57610109565b806342a4fda8116100dc57806342a4fda81461020357806345598b4a1461021f5780634614be9f146102485780635c622a0e1461027357806369fe0e2d146102b057610109565b80630fa91fa91461010e578063106b48711461014c5780631e01043914610189578063359d2411146101c6575b600080fd5b34801561011a57600080fd5b5061013560048036038101906101309190612408565b61045b565b6040516101439291906125e3565b60405180910390f35b34801561015857600080fd5b50610173600480360381019061016e9190612408565b61056d565b6040516101809190612635565b60405180910390f35b34801561019557600080fd5b506101b060048036038101906101ab9190612408565b61094a565b6040516101bd919061265f565b60405180910390f35b3480156101d257600080fd5b506101ed60048036038101906101e89190612408565b6109a1565b6040516101fa9190612635565b60405180910390f35b61021d60048036038101906102189190612408565b6109c1565b005b34801561022b57600080fd5b5061024660048036038101906102419190612408565b610c92565b005b34801561025457600080fd5b5061025d610e39565b60405161026a9190612689565b60405180910390f35b34801561027f57600080fd5b5061029a60048036038101906102959190612408565b610e61565b6040516102a7919061271b565b60405180910390f35b3480156102bc57600080fd5b506102d760048036038101906102d29190612408565b610e8e565b005b3480156102e557600080fd5b506102ee610f1f565b6040516102fb919061265f565b60405180910390f35b61031e60048036038101906103199190612408565b610f5e565b005b34801561032c57600080fd5b506103356110f5565b6040516103429190612795565b60405180910390f35b34801561035757600080fd5b5061036061111f565b60405161036d9190612b7b565b60405180910390f35b34801561038257600080fd5b5061039d60048036038101906103989190612b9d565b611591565b005b3480156103ab57600080fd5b506103b46117a8565b6040516103c1919061265f565b60405180910390f35b3480156103d657600080fd5b506103f160048036038101906103ec9190612d4a565b6117b1565b6040516103fe919061265f565b60405180910390f35b34801561041357600080fd5b5061041c611b83565b604051610429919061265f565b60405180910390f35b34801561043e57600080fd5b5061045960048036038101906104549190612408565b611b89565b005b60608060046000848152602001908152602001600020600801600460008581526020019081526020016000206009018180548060200260200160405190810160405280929190818152602001828054801561050b57602002820191906000526020600020905b8160009054906101000a900473ffffffffffffffffffffffffffffffffffffffff1673ffffffffffffffffffffffffffffffffffffffff16815260200190600101908083116104c1575b505050505091508080548060200260200160405190810160405280929190818152602001828054801561055d57602002820191906000526020600020905b815481526020019060010190808311610549575b5050505050905091509150915091565b60008060046000848152602001908152602001600020604051806101a0016040529081600082015481526020016001820160009054906101000a900473ffffffffffffffffffffffffffffffffffffffff1673ffffffffffffffffffffffffffffffffffffffff1673ffffffffffffffffffffffffffffffffffffffff1681526020016002820180546105ff90612e5a565b80601f016020809104026020016040519081016040528092919081815260200182805461062b90612e5a565b80156106785780601f1061064d57610100808354040283529160200191610678565b820191906000526020600020905b81548152906001019060200180831161065b57829003601f168201915b5050505050815260200160038201805461069190612e5a565b80601f01602080910402602001604051908101604052809291908181526020018280546106bd90612e5a565b801561070a5780601f106106df5761010080835404028352916020019161070a565b820191906000526020600020905b8154815290600101906020018083116106ed57829003601f168201915b5050505050815260200160048201548152602001600582015481526020016006820154815260200160078201805461074190612e5a565b80601f016020809104026020016040519081016040528092919081815260200182805461076d90612e5a565b80156107ba5780601f1061078f576101008083540402835291602001916107ba565b820191906000526020600020905b81548152906001019060200180831161079d57829003601f168201915b505050505081526020016008820180548060200260200160405190810160405280929190818152602001828054801561084857602002820191906000526020600020905b8160009054906101000a900473ffffffffffffffffffffffffffffffffffffffff1673ffffffffffffffffffffffffffffffffffffffff16815260200190600101908083116107fe575b50505050508152602001600982018054806020026020016040519081016040528092919081815260200182805480156108a057602002820191906000526020600020905b81548152602001906001019080831161088c575b50505050508152602001600a820160009054906101000a900460ff1660048111156108ce576108cd6126a4565b5b60048111156108e0576108df6126a4565b5b8152602001600a820160019054906101000a900460ff166004811115610909576109086126a4565b5b600481111561091b5761091a6126a4565b5b8152602001600a820160029054906101000a900460ff1615151515815250509050806101800151915050919050565b60006004600083815260200190815260200160002060010160009054906101000a900473ffffffffffffffffffffffffffffffffffffffff1673ffffffffffffffffffffffffffffffffffffffff16319050919050565b60056020528060005260406000206000915054906101000a900460ff1681565b600060046000838152602001908152602001600020905060003490506000811015610a18576040517fadafbc9600000000000000000000000000000000000000000000000000000000815260040160405180910390fd5b6005600084815260200190815260200160002060009054906101000a900460ff16610a6f576040517fadafbc9600000000000000000000000000000000000000000000000000000000815260040160405180910390fd5b60006004811115610a8357610a826126a4565b5b82600a0160009054906101000a900460ff166004811115610aa757610aa66126a4565b5b14158015610aeb575060016004811115610ac457610ac36126a4565b5b82600a0160009054906101000a900460ff166004811115610ae857610ae76126a4565b5b14155b15610b21576040517e4636d200000000000000000000000000000000000000000000000000000000815260040160405180910390fd5b81600801339080600181540180825580915050600190039060005260206000200160009091909190916101000a81548173ffffffffffffffffffffffffffffffffffffffff021916908373ffffffffffffffffffffffffffffffffffffffff1602179055508160090181908060018154018082558091505060019003906000526020600020016000909190919091505580826006016000828254610bc59190612eba565b925050819055503373ffffffffffffffffffffffffffffffffffffffff167f655351f1bf449402dc56dbd84887de4bf8ee15fb1e442c4c68199b7fc5b6ad60848342604051610c1693929190612eee565b60405180910390a28160040154826006015410610c5f57600182600a0160006101000a81548160ff02191690836004811115610c5557610c546126a4565b5b0217905550610c8d565b600082600a0160006101000a81548160ff02191690836004811115610c8757610c866126a4565b5b02179055505b505050565b60006004600083815260200190815260200160002090503373ffffffffffffffffffffffffffffffffffffffff168160010160009054906101000a900473ffffffffffffffffffffffffffffffffffffffff1673ffffffffffffffffffffffffffffffffffffffff1614610d32576040517ff864ae5900000000000000000000000000000000000000000000000000000000815260040160405180910390fd5b60006004811115610d4657610d456126a4565b5b81600a0160009054906101000a900460ff166004811115610d6a57610d696126a4565b5b14610da1576040517fadafbc9600000000000000000000000000000000000000000000000000000000815260040160405180910390fd5b600381600a0160006101000a81548160ff02191690836004811115610dc957610dc86126a4565b5b0217905550600081600601541115610de557610de482611d77565b5b3373ffffffffffffffffffffffffffffffffffffffff167fdaf42e53ca58d1d28d99e69c2f45565d7fbf704482f0641b81eeb42ef07462f38342604051610e2d929190612f25565b60405180910390a25050565b60007f0000000000000000000000000000000000000000000000000000000000000000905090565b600060046000838152602001908152602001600020600a0160009054906101000a900460ff169050919050565b600160009054906101000a900473ffffffffffffffffffffffffffffffffffffffff1673ffffffffffffffffffffffffffffffffffffffff163373ffffffffffffffffffffffffffffffffffffffff1614610f15576040517fadafbc9600000000000000000000000000000000000000000000000000000000815260040160405180910390fd5b8060008190555050565b60007f000000000000000000000000000000000000000000000000000000000000000073ffffffffffffffffffffffffffffffffffffffff1631905090565b600060046000838152602001908152602001600020905060016004811115610f8957610f886126a4565b5b81600a0160009054906101000a900460ff166004811115610fad57610fac6126a4565b5b14610fe4576040517fadafbc9600000000000000000000000000000000000000000000000000000000815260040160405180910390fd5b8060010160009054906101000a900473ffffffffffffffffffffffffffffffffffffffff1673ffffffffffffffffffffffffffffffffffffffff163373ffffffffffffffffffffffffffffffffffffffff161461106d576040517ff864ae5900000000000000000000000000000000000000000000000000000000815260040160405180910390fd5b600481600a0160006101000a81548160ff02191690836004811115611095576110946126a4565b5b02179055506110a38261203e565b3373ffffffffffffffffffffffffffffffffffffffff167fa00565430f3e0378018049de79b214a549b4193d49c14b535c3eef83581ebc51836040516110e9919061265f565b60405180910390a25050565b6000600260009054906101000a900473ffffffffffffffffffffffffffffffffffffffff16905090565b6060600060035467ffffffffffffffff81111561113f5761113e612c1f565b5b60405190808252806020026020018201604052801561117857816020015b611165612226565b81526020019060019003908161115d5790505b50905060005b60035481101561158957600060046000838152602001908152602001600020905080604051806101a0016040529081600082015481526020016001820160009054906101000a900473ffffffffffffffffffffffffffffffffffffffff1673ffffffffffffffffffffffffffffffffffffffff1673ffffffffffffffffffffffffffffffffffffffff16815260200160028201805461121c90612e5a565b80601f016020809104026020016040519081016040528092919081815260200182805461124890612e5a565b80156112955780601f1061126a57610100808354040283529160200191611295565b820191906000526020600020905b81548152906001019060200180831161127857829003601f168201915b505050505081526020016003820180546112ae90612e5a565b80601f01602080910402602001604051908101604052809291908181526020018280546112da90612e5a565b80156113275780601f106112fc57610100808354040283529160200191611327565b820191906000526020600020905b81548152906001019060200180831161130a57829003601f168201915b5050505050815260200160048201548152602001600582015481526020016006820154815260200160078201805461135e90612e5a565b80601f016020809104026020016040519081016040528092919081815260200182805461138a90612e5a565b80156113d75780601f106113ac576101008083540402835291602001916113d7565b820191906000526020600020905b8154815290600101906020018083116113ba57829003601f168201915b505050505081526020016008820180548060200260200160405190810160405280929190818152602001828054801561146557602002820191906000526020600020905b8160009054906101000a900473ffffffffffffffffffffffffffffffffffffffff1673ffffffffffffffffffffffffffffffffffffffff168152602001906001019080831161141b575b50505050508152602001600982018054806020026020016040519081016040528092919081815260200182805480156114bd57602002820191906000526020600020905b8154815260200190600101908083116114a9575b50505050508152602001600a820160009054906101000a900460ff1660048111156114eb576114ea6126a4565b5b60048111156114fd576114fc6126a4565b5b8152602001600a820160019054906101000a900460ff166004811115611526576115256126a4565b5b6004811115611538576115376126a4565b5b8152602001600a820160029054906101000a900460ff16151515158152505083838151811061156a57611569612f4e565b5b602002602001018190525050808061158190612f7d565b91505061117e565b508091505090565b60006004600085815260200190815260200160002090503373ffffffffffffffffffffffffffffffffffffffff168160010160009054906101000a900473ffffffffffffffffffffffffffffffffffffffff1673ffffffffffffffffffffffffffffffffffffffff1614611631576040517ff864ae5900000000000000000000000000000000000000000000000000000000815260040160405180910390fd5b60026004811115611645576116446126a4565b5b81600a0160009054906101000a900460ff166004811115611669576116686126a4565b5b146116a0576040517fadafbc9600000000000000000000000000000000000000000000000000000000815260040160405180910390fd5b806005015442116116dd576040517f9bcfc26d00000000000000000000000000000000000000000000000000000000815260040160405180910390fd5b8281600401819055508181600501819055508281600601541080156117025750428211155b1561173957600281600a0160006101000a81548160ff0219169083600481111561172f5761172e6126a4565b5b0217905550611767565b600081600a0160006101000a81548160ff02191690836004811115611761576117606126a4565b5b02179055505b7f5b0c82513cc7f1f8087a09ca71440f01a3e4bbc6c46495f1004842a1bc1dede084848460405161179a93929190612eee565b60405180910390a150505050565b60008054905090565b60008585836000835110156117f2576040517fadafbc9600000000000000000000000000000000000000000000000000000000815260040160405180910390fd5b60008251101561182e576040517fadafbc9600000000000000000000000000000000000000000000000000000000815260040160405180910390fd5b60008151101561186a576040517fadafbc9600000000000000000000000000000000000000000000000000000000815260040160405180910390fd5b60008710156118a5576040517fadafbc9600000000000000000000000000000000000000000000000000000000815260040160405180910390fd5b600060046000600354815260200190815260200160002090506003548160000181905550338160010160006101000a81548173ffffffffffffffffffffffffffffffffffffffff021916908373ffffffffffffffffffffffffffffffffffffffff1602179055508981600201908161191d9190613167565b508881600301908161192f9190613167565b50878160040181905550868160050181905550600081600601819055508581600701908161195d9190613167565b50600067ffffffffffffffff81111561197957611978612c1f565b5b6040519080825280602002602001820160405280156119a75781602001602082028036833780820191505090505b508160080190805190602001906119bf9291906122ca565b50600067ffffffffffffffff8111156119db576119da612c1f565b5b604051908082528060200260200182016040528015611a095781602001602082028036833780820191505090505b50816009019080519060200190611a21929190612354565b508a81600a0160016101000a81548160ff02191690836004811115611a4957611a486126a4565b5b0217905550428711158015611a615750878160060154105b15611a9857600281600a0160006101000a81548160ff02191690836004811115611a8e57611a8d6126a4565b5b0217905550611ac6565b600081600a0160006101000a81548160ff02191690836004811115611ac057611abf6126a4565b5b02179055505b6001600560008360000154815260200190815260200160002060006101000a81548160ff02191690831515021790555060036000815480929190611b0990612f7d565b91905055503373ffffffffffffffffffffffffffffffffffffffff167f944e037155521668ebad86014260c643358e41123a5b998e18489a10ff11ea036003548d8b8b604051611b5c9493929190613248565b60405180910390a26001600354611b73919061328d565b9450505050509695505050505050565b60035481565b600060046000838152602001908152602001600020905060026004811115611bb457611bb36126a4565b5b81600a0160009054906101000a900460ff166004811115611bd857611bd76126a4565b5b1480611c19575060036004811115611bf357611bf26126a4565b5b81600a0160009054906101000a900460ff166004811115611c1757611c166126a4565b5b145b80611c585750600480811115611c3257611c316126a4565b5b81600a0160009054906101000a900460ff166004811115611c5657611c556126a4565b5b145b15611c8e576040517e4636d200000000000000000000000000000000000000000000000000000000815260040160405180910390fd5b80600501544210611ccb576040517f9bcfc26d00000000000000000000000000000000000000000000000000000000815260040160405180910390fd5b600281600a0160006101000a81548160ff02191690836004811115611cf357611cf26126a4565b5b0217905550611d0182611d77565b8060010160009054906101000a900473ffffffffffffffffffffffffffffffffffffffff1673ffffffffffffffffffffffffffffffffffffffff167f7499a145dac6baa4e55462de49ee33dd9526640a55399705c6eb4daebcd7f57783604051611d6b919061265f565b60405180910390a25050565b600060046000838152602001908152602001600020905060036004811115611da257611da16126a4565b5b81600a0160009054906101000a900460ff166004811115611dc657611dc56126a4565b5b14158015611e0a575060026004811115611de357611de26126a4565b5b81600a0160009054906101000a900460ff166004811115611e0757611e066126a4565b5b14155b15611e41576040517fadafbc9600000000000000000000000000000000000000000000000000000000815260040160405180910390fd5b6000816008018054905067ffffffffffffffff811115611e6457611e63612c1f565b5b604051908082528060200260200182016040528015611e925781602001602082028036833780820191505090505b5090506000826009018054905067ffffffffffffffff811115611eb857611eb7612c1f565b5b604051908082528060200260200182016040528015611ee65781602001602082028036833780820191505090505b50905060005b836008018054905081101561201a57836008018181548110611f1157611f10612f4e565b5b9060005260206000200160009054906101000a900473ffffffffffffffffffffffffffffffffffffffff16838281518110611f4f57611f4e612f4e565b5b602002602001019073ffffffffffffffffffffffffffffffffffffffff16908173ffffffffffffffffffffffffffffffffffffffff1681525050836009018181548110611f9f57611f9e612f4e565b5b9060005260206000200154828281518110611fbd57611fbc612f4e565b5b602002602001018181525050612007838281518110611fdf57611fde612f4e565b5b6020026020010151838381518110611ffa57611ff9612f4e565b5b60200260200101516121ab565b808061201290612f7d565b915050611eec565b50600183600a0160026101000a81548160ff02191690831515021790555050505050565b6000600460008381526020019081526020016000209050600480811115612068576120676126a4565b5b81600a0160009054906101000a900460ff16600481111561208c5761208b6126a4565b5b146120c3576040517fadafbc9600000000000000000000000000000000000000000000000000000000815260040160405180910390fd5b60008160060154905060006064600054836120de91906132c1565b6120e89190613332565b9050600081836120f8919061328d565b90506121288460010160009054906101000a900473ffffffffffffffffffffffffffffffffffffffff16826121ab565b6121527f0000000000000000000000000000000000000000000000000000000000000000836121ab565b3373ffffffffffffffffffffffffffffffffffffffff167f9a3866b92eb53bcee95d3202fbccf24673a278e8d2cad1f2acbc529703caf3e286834260405161219c93929190612eee565b60405180910390a25050505050565b60008273ffffffffffffffffffffffffffffffffffffffff16826040516121d190613394565b60006040518083038185875af1925050503d806000811461220e576040519150601f19603f3d011682016040523d82523d6000602084013e612213565b606091505b505090508061222157600080fd5b505050565b604051806101a0016040528060008152602001600073ffffffffffffffffffffffffffffffffffffffff1681526020016060815260200160608152602001600081526020016000815260200160008152602001606081526020016060815260200160608152602001600060048111156122a2576122a16126a4565b5b8152602001600060048111156122bb576122ba6126a4565b5b81526020016000151581525090565b828054828255906000526020600020908101928215612343579160200282015b828111156123425782518260006101000a81548173ffffffffffffffffffffffffffffffffffffffff021916908373ffffffffffffffffffffffffffffffffffffffff160217905550916020019190600101906122ea565b5b50905061235091906123a1565b5090565b828054828255906000526020600020908101928215612390579160200282015b8281111561238f578251825591602001919060010190612374565b5b50905061239d91906123a1565b5090565b5b808211156123ba5760008160009055506001016123a2565b5090565b6000604051905090565b600080fd5b600080fd5b6000819050919050565b6123e5816123d2565b81146123f057600080fd5b50565b600081359050612402816123dc565b92915050565b60006020828403121561241e5761241d6123c8565b5b600061242c848285016123f3565b91505092915050565b600081519050919050565b600082825260208201905092915050565b6000819050602082019050919050565b600073ffffffffffffffffffffffffffffffffffffffff82169050919050565b600061248c82612461565b9050919050565b61249c81612481565b82525050565b60006124ae8383612493565b60208301905092915050565b6000602082019050919050565b60006124d282612435565b6124dc8185612440565b93506124e783612451565b8060005b838110156125185781516124ff88826124a2565b975061250a836124ba565b9250506001810190506124eb565b5085935050505092915050565b600081519050919050565b600082825260208201905092915050565b6000819050602082019050919050565b61255a816123d2565b82525050565b600061256c8383612551565b60208301905092915050565b6000602082019050919050565b600061259082612525565b61259a8185612530565b93506125a583612541565b8060005b838110156125d65781516125bd8882612560565b97506125c883612578565b9250506001810190506125a9565b5085935050505092915050565b600060408201905081810360008301526125fd81856124c7565b905081810360208301526126118184612585565b90509392505050565b60008115159050919050565b61262f8161261a565b82525050565b600060208201905061264a6000830184612626565b92915050565b612659816123d2565b82525050565b60006020820190506126746000830184612650565b92915050565b61268381612481565b82525050565b600060208201905061269e600083018461267a565b92915050565b7f4e487b7100000000000000000000000000000000000000000000000000000000600052602160045260246000fd5b600581106126e4576126e36126a4565b5b50565b60008190506126f5826126d3565b919050565b6000612705826126e7565b9050919050565b612715816126fa565b82525050565b6000602082019050612730600083018461270c565b92915050565b6000819050919050565b600061275b61275661275184612461565b612736565b612461565b9050919050565b600061276d82612740565b9050919050565b600061277f82612762565b9050919050565b61278f81612774565b82525050565b60006020820190506127aa6000830184612786565b92915050565b600081519050919050565b600082825260208201905092915050565b6000819050602082019050919050565b600081519050919050565b600082825260208201905092915050565b60005b838110156128165780820151818401526020810190506127fb565b60008484015250505050565b6000601f19601f8301169050919050565b600061283e826127dc565b61284881856127e7565b93506128588185602086016127f8565b61286181612822565b840191505092915050565b600082825260208201905092915050565b600061288882612435565b612892818561286c565b935061289d83612451565b8060005b838110156128ce5781516128b588826124a2565b97506128c0836124ba565b9250506001810190506128a1565b5085935050505092915050565b600082825260208201905092915050565b60006128f782612525565b61290181856128db565b935061290c83612541565b8060005b8381101561293d5781516129248882612560565b975061292f83612578565b925050600181019050612910565b5085935050505092915050565b612953816126fa565b82525050565b6005811061296a576129696126a4565b5b50565b600081905061297b82612959565b919050565b600061298b8261296d565b9050919050565b61299b81612980565b82525050565b6129aa8161261a565b82525050565b60006101a0830160008301516129c96000860182612551565b5060208301516129dc6020860182612493565b50604083015184820360408601526129f48282612833565b91505060608301518482036060860152612a0e8282612833565b9150506080830151612a236080860182612551565b5060a0830151612a3660a0860182612551565b5060c0830151612a4960c0860182612551565b5060e083015184820360e0860152612a618282612833565b915050610100830151848203610100860152612a7d828261287d565b915050610120830151848203610120860152612a9982826128ec565b915050610140830151612ab061014086018261294a565b50610160830151612ac5610160860182612992565b50610180830151612ada6101808601826129a1565b508091505092915050565b6000612af183836129b0565b905092915050565b6000602082019050919050565b6000612b11826127b0565b612b1b81856127bb565b935083602082028501612b2d856127cc565b8060005b85811015612b695784840389528151612b4a8582612ae5565b9450612b5583612af9565b925060208a01995050600181019050612b31565b50829750879550505050505092915050565b60006020820190508181036000830152612b958184612b06565b905092915050565b600080600060608486031215612bb657612bb56123c8565b5b6000612bc4868287016123f3565b9350506020612bd5868287016123f3565b9250506040612be6868287016123f3565b9150509250925092565b60058110612bfd57600080fd5b50565b600081359050612c0f81612bf0565b92915050565b600080fd5b600080fd5b7f4e487b7100000000000000000000000000000000000000000000000000000000600052604160045260246000fd5b612c5782612822565b810181811067ffffffffffffffff82111715612c7657612c75612c1f565b5b80604052505050565b6000612c896123be565b9050612c958282612c4e565b919050565b600067ffffffffffffffff821115612cb557612cb4612c1f565b5b612cbe82612822565b9050602081019050919050565b82818337600083830152505050565b6000612ced612ce884612c9a565b612c7f565b905082815260208101848484011115612d0957612d08612c1a565b5b612d14848285612ccb565b509392505050565b600082601f830112612d3157612d30612c15565b5b8135612d41848260208601612cda565b91505092915050565b60008060008060008060c08789031215612d6757612d666123c8565b5b6000612d7589828a01612c00565b965050602087013567ffffffffffffffff811115612d9657612d956123cd565b5b612da289828a01612d1c565b955050604087013567ffffffffffffffff811115612dc357612dc26123cd565b5b612dcf89828a01612d1c565b9450506060612de089828a016123f3565b9350506080612df189828a016123f3565b92505060a087013567ffffffffffffffff811115612e1257612e116123cd565b5b612e1e89828a01612d1c565b9150509295509295509295565b7f4e487b7100000000000000000000000000000000000000000000000000000000600052602260045260246000fd5b60006002820490506001821680612e7257607f821691505b602082108103612e8557612e84612e2b565b5b50919050565b7f4e487b7100000000000000000000000000000000000000000000000000000000600052601160045260246000fd5b6000612ec5826123d2565b9150612ed0836123d2565b9250828201905080821115612ee857612ee7612e8b565b5b92915050565b6000606082019050612f036000830186612650565b612f106020830185612650565b612f1d6040830184612650565b949350505050565b6000604082019050612f3a6000830185612650565b612f476020830184612650565b9392505050565b7f4e487b7100000000000000000000000000000000000000000000000000000000600052603260045260246000fd5b6000612f88826123d2565b91507fffffffffffffffffffffffffffffffffffffffffffffffffffffffffffffffff8203612fba57612fb9612e8b565b5b600182019050919050565b60008190508160005260206000209050919050565b60006020601f8301049050919050565b600082821b905092915050565b6000600883026130277fffffffffffffffffffffffffffffffffffffffffffffffffffffffffffffffff82612fea565b6130318683612fea565b95508019841693508086168417925050509392505050565b600061306461305f61305a846123d2565b612736565b6123d2565b9050919050565b6000819050919050565b61307e83613049565b61309261308a8261306b565b848454612ff7565b825550505050565b600090565b6130a761309a565b6130b2818484613075565b505050565b5b818110156130d6576130cb60008261309f565b6001810190506130b8565b5050565b601f82111561311b576130ec81612fc5565b6130f584612fda565b81016020851015613104578190505b61311861311085612fda565b8301826130b7565b50505b505050565b600082821c905092915050565b600061313e60001984600802613120565b1980831691505092915050565b6000613157838361312d565b9150826002028217905092915050565b613170826127dc565b67ffffffffffffffff81111561318957613188612c1f565b5b6131938254612e5a565b61319e8282856130da565b600060209050601f8311600181146131d157600084156131bf578287015190505b6131c9858261314b565b865550613231565b601f1984166131df86612fc5565b60005b82811015613207578489015182556001820191506020850194506020810190506131e2565b868310156132245784890151613220601f89168261312d565b8355505b6001600288020188555050505b505050505050565b61324281612980565b82525050565b600060808201905061325d6000830187612650565b61326a6020830186613239565b6132776040830185612650565b6132846060830184612650565b95945050505050565b6000613298826123d2565b91506132a3836123d2565b92508282039050818111156132bb576132ba612e8b565b5b92915050565b60006132cc826123d2565b91506132d7836123d2565b92508282026132e5816123d2565b915082820484148315176132fc576132fb612e8b565b5b5092915050565b7f4e487b7100000000000000000000000000000000000000000000000000000000600052601260045260246000fd5b600061333d826123d2565b9150613348836123d2565b92508261335857613357613303565b5b828204905092915050565b600081905092915050565b50565b600061337e600083613363565b91506133898261336e565b600082019050919050565b600061339f82613371565b915081905091905056fea264697066735822122019a32483b18067f31e5b06cecc1219ac64a223f68477747af022b8131c3cdf0a64736f6c63430008110033",
  "devdoc": {
    "kind": "dev",
    "methods": {},
    "version": 1
  },
  "userdoc": {
    "kind": "user",
    "methods": {},
    "version": 1
  },
  "storageLayout": {
    "storage": [
      {
        "astId": 146,
        "contract": "contracts/CrowdFund.sol:CrowdFund",
        "label": "i_feePercent",
        "offset": 0,
        "slot": "0",
        "type": "t_uint256"
      },
      {
        "astId": 148,
        "contract": "contracts/CrowdFund.sol:CrowdFund",
        "label": "i_owner",
        "offset": 0,
        "slot": "1",
        "type": "t_address"
      },
      {
        "astId": 151,
        "contract": "contracts/CrowdFund.sol:CrowdFund",
        "label": "s_priceFeed",
        "offset": 0,
        "slot": "2",
        "type": "t_contract(AggregatorV3Interface)45"
      },
      {
        "astId": 154,
        "contract": "contracts/CrowdFund.sol:CrowdFund",
        "label": "s_numberOfCampaigns",
        "offset": 0,
        "slot": "3",
        "type": "t_uint256"
      },
      {
        "astId": 318,
        "contract": "contracts/CrowdFund.sol:CrowdFund",
        "label": "s_campaigns",
        "offset": 0,
        "slot": "4",
        "type": "t_mapping(t_uint256,t_struct(Campaign)197_storage)"
      },
      {
        "astId": 322,
        "contract": "contracts/CrowdFund.sol:CrowdFund",
        "label": "s_campaignExist",
        "offset": 0,
        "slot": "5",
        "type": "t_mapping(t_uint256,t_bool)"
      }
    ],
    "types": {
      "t_address": {
        "encoding": "inplace",
        "label": "address",
        "numberOfBytes": "20"
      },
      "t_array(t_address)dyn_storage": {
        "base": "t_address",
        "encoding": "dynamic_array",
        "label": "address[]",
        "numberOfBytes": "32"
      },
      "t_array(t_uint256)dyn_storage": {
        "base": "t_uint256",
        "encoding": "dynamic_array",
        "label": "uint256[]",
        "numberOfBytes": "32"
      },
      "t_bool": {
        "encoding": "inplace",
        "label": "bool",
        "numberOfBytes": "1"
      },
      "t_contract(AggregatorV3Interface)45": {
        "encoding": "inplace",
        "label": "contract AggregatorV3Interface",
        "numberOfBytes": "20"
      },
      "t_enum(CampaignStatus)160": {
        "encoding": "inplace",
        "label": "enum CrowdFund.CampaignStatus",
        "numberOfBytes": "1"
      },
      "t_enum(Category)166": {
        "encoding": "inplace",
        "label": "enum CrowdFund.Category",
        "numberOfBytes": "1"
      },
      "t_mapping(t_uint256,t_bool)": {
        "encoding": "mapping",
        "key": "t_uint256",
        "label": "mapping(uint256 => bool)",
        "numberOfBytes": "32",
        "value": "t_bool"
      },
      "t_mapping(t_uint256,t_struct(Campaign)197_storage)": {
        "encoding": "mapping",
        "key": "t_uint256",
        "label": "mapping(uint256 => struct CrowdFund.Campaign)",
        "numberOfBytes": "32",
        "value": "t_struct(Campaign)197_storage"
      },
      "t_string_storage": {
        "encoding": "bytes",
        "label": "string",
        "numberOfBytes": "32"
      },
      "t_struct(Campaign)197_storage": {
        "encoding": "inplace",
        "label": "struct CrowdFund.Campaign",
        "members": [
          {
            "astId": 168,
            "contract": "contracts/CrowdFund.sol:CrowdFund",
            "label": "id",
            "offset": 0,
            "slot": "0",
            "type": "t_uint256"
          },
          {
            "astId": 170,
            "contract": "contracts/CrowdFund.sol:CrowdFund",
            "label": "owner",
            "offset": 0,
            "slot": "1",
            "type": "t_address"
          },
          {
            "astId": 172,
            "contract": "contracts/CrowdFund.sol:CrowdFund",
            "label": "title",
            "offset": 0,
            "slot": "2",
            "type": "t_string_storage"
          },
          {
            "astId": 174,
            "contract": "contracts/CrowdFund.sol:CrowdFund",
            "label": "description",
            "offset": 0,
            "slot": "3",
            "type": "t_string_storage"
          },
          {
            "astId": 176,
            "contract": "contracts/CrowdFund.sol:CrowdFund",
            "label": "target",
            "offset": 0,
            "slot": "4",
            "type": "t_uint256"
          },
          {
            "astId": 178,
            "contract": "contracts/CrowdFund.sol:CrowdFund",
            "label": "deadline",
            "offset": 0,
            "slot": "5",
            "type": "t_uint256"
          },
          {
            "astId": 180,
            "contract": "contracts/CrowdFund.sol:CrowdFund",
            "label": "amountCollected",
            "offset": 0,
            "slot": "6",
            "type": "t_uint256"
          },
          {
            "astId": 182,
            "contract": "contracts/CrowdFund.sol:CrowdFund",
            "label": "image",
            "offset": 0,
            "slot": "7",
            "type": "t_string_storage"
          },
          {
            "astId": 185,
            "contract": "contracts/CrowdFund.sol:CrowdFund",
            "label": "donators",
            "offset": 0,
            "slot": "8",
            "type": "t_array(t_address)dyn_storage"
          },
          {
            "astId": 188,
            "contract": "contracts/CrowdFund.sol:CrowdFund",
            "label": "donations",
            "offset": 0,
            "slot": "9",
            "type": "t_array(t_uint256)dyn_storage"
          },
          {
            "astId": 191,
            "contract": "contracts/CrowdFund.sol:CrowdFund",
            "label": "status",
            "offset": 0,
            "slot": "10",
            "type": "t_enum(CampaignStatus)160"
          },
          {
            "astId": 194,
            "contract": "contracts/CrowdFund.sol:CrowdFund",
            "label": "category",
            "offset": 1,
            "slot": "10",
            "type": "t_enum(Category)166"
          },
          {
            "astId": 196,
            "contract": "contracts/CrowdFund.sol:CrowdFund",
            "label": "refunded",
            "offset": 2,
            "slot": "10",
            "type": "t_bool"
          }
        ],
        "numberOfBytes": "352"
      },
      "t_uint256": {
        "encoding": "inplace",
        "label": "uint256",
        "numberOfBytes": "32"
      }
    }
  }
}