{
  "address": "0xe7f1725E7734CE288F8367e1Bb143E90bb3F0512",
  "abi": [
    {
      "inputs": [
        {
          "internalType": "address",
          "name": "_feeAccount",
          "type": "address"
        },
        {
          "internalType": "uint256",
          "name": "_feePercent",
          "type": "uint256"
        },
        {
          "internalType": "address",
          "name": "priceFeeAddress",
          "type": "address"
        }
      ],
      "stateMutability": "nonpayable",
      "type": "constructor"
    },
    {
      "inputs": [],
      "name": "CrowdFund__Deadline",
      "type": "error"
    },
    {
      "inputs": [],
      "name": "CrowdFund__Ended",
      "type": "error"
    },
    {
      "inputs": [],
      "name": "CrowdFund__NotOwner",
      "type": "error"
    },
    {
      "inputs": [],
      "name": "CrowdFund__Required",
      "type": "error"
    },
    {
      "anonymous": false,
      "inputs": [
        {
          "indexed": false,
          "internalType": "uint256",
          "name": "id",
          "type": "uint256"
        },
        {
          "indexed": true,
          "internalType": "address",
          "name": "creator",
          "type": "address"
        },
        {
          "indexed": false,
          "internalType": "uint256",
          "name": "timestamp",
          "type": "uint256"
        }
      ],
      "name": "CancelCampaign",
      "type": "event"
    },
    {
      "anonymous": false,
      "inputs": [
        {
          "indexed": false,
          "internalType": "uint256",
          "name": "id",
          "type": "uint256"
        },
        {
          "indexed": true,
          "internalType": "address",
          "name": "creator",
          "type": "address"
        },
        {
          "indexed": false,
          "internalType": "enum CrowdFund.Category",
          "name": "category",
          "type": "uint8"
        },
        {
          "indexed": false,
          "internalType": "uint256",
          "name": "target",
          "type": "uint256"
        },
        {
          "indexed": false,
          "internalType": "uint256",
          "name": "deadline",
          "type": "uint256"
        }
      ],
      "name": "CreatedCampaign",
      "type": "event"
    },
    {
      "anonymous": false,
      "inputs": [
        {
          "indexed": false,
          "internalType": "uint256",
          "name": "id",
          "type": "uint256"
        },
        {
          "indexed": true,
          "internalType": "address",
          "name": "donator",
          "type": "address"
        },
        {
          "indexed": false,
          "internalType": "uint256",
          "name": "value",
          "type": "uint256"
        },
        {
          "indexed": false,
          "internalType": "uint256",
          "name": "timestamp",
          "type": "uint256"
        }
      ],
      "name": "DonatedCampaign",
      "type": "event"
    },
    {
      "anonymous": false,
      "inputs": [
        {
          "indexed": false,
          "internalType": "uint256",
          "name": "id",
          "type": "uint256"
        },
        {
          "indexed": true,
          "internalType": "address",
          "name": "creator",
          "type": "address"
        },
        {
          "indexed": false,
          "internalType": "uint256",
          "name": "donations",
          "type": "uint256"
        },
        {
          "indexed": false,
          "internalType": "uint256",
          "name": "timestamp",
          "type": "uint256"
        }
      ],
      "name": "PaidOutCampaign",
      "type": "event"
    },
    {
      "anonymous": false,
      "inputs": [
        {
          "indexed": false,
          "internalType": "uint256",
          "name": "id",
          "type": "uint256"
        },
        {
          "indexed": true,
          "internalType": "address",
          "name": "creator",
          "type": "address"
        }
      ],
      "name": "RefundCampaign",
      "type": "event"
    },
    {
      "anonymous": false,
      "inputs": [
        {
          "indexed": false,
          "internalType": "uint256",
          "name": "id",
          "type": "uint256"
        },
        {
          "indexed": false,
          "internalType": "uint256",
          "name": "newTarget",
          "type": "uint256"
        },
        {
          "indexed": false,
          "internalType": "uint256",
          "name": "newDeadline",
          "type": "uint256"
        }
      ],
      "name": "UpdatedCampaign",
      "type": "event"
    },
    {
      "anonymous": false,
      "inputs": [
        {
          "indexed": false,
          "internalType": "uint256",
          "name": "id",
          "type": "uint256"
        },
        {
          "indexed": true,
          "internalType": "address",
          "name": "creator",
          "type": "address"
        }
      ],
      "name": "WithdrawCampaign",
      "type": "event"
    },
    {
      "inputs": [
        {
          "internalType": "uint256",
          "name": "_id",
          "type": "uint256"
        }
      ],
      "name": "cancelCampaign",
      "outputs": [],
      "stateMutability": "nonpayable",
      "type": "function"
    },
    {
      "inputs": [
        {
          "internalType": "enum CrowdFund.Category",
          "name": "_category",
          "type": "uint8"
        },
        {
          "internalType": "string",
          "name": "_title",
          "type": "string"
        },
        {
          "internalType": "string",
          "name": "_description",
          "type": "string"
        },
        {
          "internalType": "uint256",
          "name": "_target",
          "type": "uint256"
        },
        {
          "internalType": "uint256",
          "name": "_deadline",
          "type": "uint256"
        },
        {
          "internalType": "string",
          "name": "_image",
          "type": "string"
        }
      ],
      "name": "createCampaign",
      "outputs": [
        {
          "internalType": "uint256",
          "name": "",
          "type": "uint256"
        }
      ],
      "stateMutability": "nonpayable",
      "type": "function"
    },
    {
      "inputs": [
        {
          "internalType": "uint256",
          "name": "_id",
          "type": "uint256"
        }
      ],
      "name": "donateToCampaign",
      "outputs": [],
      "stateMutability": "payable",
      "type": "function"
    },
    {
      "inputs": [
        {
          "internalType": "uint256",
          "name": "_id",
          "type": "uint256"
        }
      ],
      "name": "getBalance",
      "outputs": [
        {
          "internalType": "uint256",
          "name": "",
          "type": "uint256"
        }
      ],
      "stateMutability": "view",
      "type": "function"
    },
    {
      "inputs": [],
      "name": "getCampaigns",
      "outputs": [
        {
          "components": [
            {
              "internalType": "uint256",
              "name": "id",
              "type": "uint256"
            },
            {
              "internalType": "address",
              "name": "owner",
              "type": "address"
            },
            {
              "internalType": "string",
              "name": "title",
              "type": "string"
            },
            {
              "internalType": "string",
              "name": "description",
              "type": "string"
            },
            {
              "internalType": "uint256",
              "name": "target",
              "type": "uint256"
            },
            {
              "internalType": "uint256",
              "name": "deadline",
              "type": "uint256"
            },
            {
              "internalType": "uint256",
              "name": "amountCollected",
              "type": "uint256"
            },
            {
              "internalType": "string",
              "name": "image",
              "type": "string"
            },
            {
              "internalType": "address[]",
              "name": "donators",
              "type": "address[]"
            },
            {
              "internalType": "uint256[]",
              "name": "donations",
              "type": "uint256[]"
            },
            {
              "internalType": "enum CrowdFund.CampaignStatus",
              "name": "status",
              "type": "uint8"
            },
            {
              "internalType": "enum CrowdFund.Category",
              "name": "category",
              "type": "uint8"
            },
            {
              "internalType": "bool",
              "name": "refunded",
              "type": "bool"
            }
          ],
          "internalType": "struct CrowdFund.Campaign[]",
          "name": "",
          "type": "tuple[]"
        }
      ],
      "stateMutability": "view",
      "type": "function"
    },
    {
      "inputs": [],
      "name": "getContractBalance",
      "outputs": [
        {
          "internalType": "uint256",
          "name": "",
          "type": "uint256"
        }
      ],
      "stateMutability": "view",
      "type": "function"
    },
    {
      "inputs": [
        {
          "internalType": "uint256",
          "name": "_id",
          "type": "uint256"
        }
      ],
      "name": "getDonators",
      "outputs": [
        {
          "internalType": "address[]",
          "name": "",
          "type": "address[]"
        },
        {
          "internalType": "uint256[]",
          "name": "",
          "type": "uint256[]"
        }
      ],
      "stateMutability": "view",
      "type": "function"
    },
    {
      "inputs": [],
      "name": "getFeeAccount",
      "outputs": [
        {
          "internalType": "address",
          "name": "",
          "type": "address"
        }
      ],
      "stateMutability": "view",
      "type": "function"
    },
    {
      "inputs": [],
      "name": "getFeePercent",
      "outputs": [
        {
          "internalType": "uint256",
          "name": "",
          "type": "uint256"
        }
      ],
      "stateMutability": "view",
      "type": "function"
    },
    {
      "inputs": [],
      "name": "getPriceFeed",
      "outputs": [
        {
          "internalType": "contract AggregatorV3Interface",
          "name": "",
          "type": "address"
        }
      ],
      "stateMutability": "view",
      "type": "function"
    },
    {
      "inputs": [
        {
          "internalType": "uint256",
          "name": "_id",
          "type": "uint256"
        }
      ],
      "name": "getRefundStatus",
      "outputs": [
        {
          "internalType": "bool",
          "name": "",
          "type": "bool"
        }
      ],
      "stateMutability": "view",
      "type": "function"
    },
    {
      "inputs": [
        {
          "internalType": "uint256",
          "name": "_id",
          "type": "uint256"
        }
      ],
      "name": "getStatus",
      "outputs": [
        {
          "internalType": "enum CrowdFund.CampaignStatus",
          "name": "_status",
          "type": "uint8"
        }
      ],
      "stateMutability": "view",
      "type": "function"
    },
    {
      "inputs": [
        {
          "internalType": "uint256",
          "name": "_id",
          "type": "uint256"
        }
      ],
      "name": "refundCampaign",
      "outputs": [],
      "stateMutability": "nonpayable",
      "type": "function"
    },
    {
      "inputs": [
        {
          "internalType": "uint256",
          "name": "",
          "type": "uint256"
        }
      ],
      "name": "s_campaignExist",
      "outputs": [
        {
          "internalType": "bool",
          "name": "",
          "type": "bool"
        }
      ],
      "stateMutability": "view",
      "type": "function"
    },
    {
      "inputs": [],
      "name": "s_numberOfCampaigns",
      "outputs": [
        {
          "internalType": "uint256",
          "name": "",
          "type": "uint256"
        }
      ],
      "stateMutability": "view",
      "type": "function"
    },
    {
      "inputs": [
        {
          "internalType": "uint256",
          "name": "_fee",
          "type": "uint256"
        }
      ],
      "name": "setFee",
      "outputs": [],
      "stateMutability": "nonpayable",
      "type": "function"
    },
    {
      "inputs": [
        {
          "internalType": "uint256",
          "name": "_id",
          "type": "uint256"
        },
        {
          "internalType": "uint256",
          "name": "_newTarget",
          "type": "uint256"
        },
        {
          "internalType": "uint256",
          "name": "_newDeadline",
          "type": "uint256"
        }
      ],
      "name": "updateCampaign",
      "outputs": [],
      "stateMutability": "nonpayable",
      "type": "function"
    },
    {
      "inputs": [
        {
          "internalType": "uint256",
          "name": "_id",
          "type": "uint256"
        }
      ],
      "name": "withdrawCampaign",
      "outputs": [],
      "stateMutability": "payable",
      "type": "function"
    }
  ],
  "transactionHash": "0x0fbe5632b0744b82b5b9d3ed6a11dbbba56e35b68db2ac10e2eecd55acf49521",
  "args": [
    "0x70997970C51812dc3A010C7d01b50e0d17dc79C8",
    10,
    "0x5FbDB2315678afecb367f032d93F642f64180aa3"
  ],
  "numDeployments": 1,
  "solcInputHash": "49ec875e7d0d03729b53dcaaf082b362",
  "bytecode": "0x60a060405260006003553480156200001657600080fd5b50604051620035573803806200355783398181016040528101906200003c9190620001a7565b8273ffffffffffffffffffffffffffffffffffffffff1660808173ffffffffffffffffffffffffffffffffffffffff16815250508160008190555033600160006101000a81548173ffffffffffffffffffffffffffffffffffffffff021916908373ffffffffffffffffffffffffffffffffffffffff16021790555080600260006101000a81548173ffffffffffffffffffffffffffffffffffffffff021916908373ffffffffffffffffffffffffffffffffffffffff16021790555050505062000203565b600080fd5b600073ffffffffffffffffffffffffffffffffffffffff82169050919050565b6000620001348262000107565b9050919050565b620001468162000127565b81146200015257600080fd5b50565b60008151905062000166816200013b565b92915050565b6000819050919050565b62000181816200016c565b81146200018d57600080fd5b50565b600081519050620001a18162000176565b92915050565b600080600060608486031215620001c357620001c262000102565b5b6000620001d38682870162000155565b9350506020620001e68682870162000190565b9250506040620001f98682870162000155565b9150509250925092565b60805161332a6200022d60003960008181610e3d01528181610f230152612078015261332a6000f3fe6080604052600436106101095760003560e01c80636f9fb98a11610095578063a781032211610064578063a781032214610376578063be74264d1461039f578063cad240e5146103ca578063f487a65c14610407578063f59a9bb01461043257610109565b80636f9fb98a146102d95780637684fc86146103045780639e87a5cd14610320578063a6b036331461034b57610109565b806342a4fda8116100dc57806342a4fda81461020357806345598b4a1461021f5780634614be9f146102485780635c622a0e1461027357806369fe0e2d146102b057610109565b80630fa91fa91461010e578063106b48711461014c5780631e01043914610189578063359d2411146101c6575b600080fd5b34801561011a57600080fd5b5061013560048036038101906101309190612353565b61045b565b60405161014392919061252e565b60405180910390f35b34801561015857600080fd5b50610173600480360381019061016e9190612353565b61056d565b6040516101809190612580565b60405180910390f35b34801561019557600080fd5b506101b060048036038101906101ab9190612353565b61094a565b6040516101bd91906125aa565b60405180910390f35b3480156101d257600080fd5b506101ed60048036038101906101e89190612353565b6109a1565b6040516101fa9190612580565b60405180910390f35b61021d60048036038101906102189190612353565b6109c1565b005b34801561022b57600080fd5b5061024660048036038101906102419190612353565b610c92565b005b34801561025457600080fd5b5061025d610e39565b60405161026a91906125d4565b60405180910390f35b34801561027f57600080fd5b5061029a60048036038101906102959190612353565b610e61565b6040516102a79190612666565b60405180910390f35b3480156102bc57600080fd5b506102d760048036038101906102d29190612353565b610e8e565b005b3480156102e557600080fd5b506102ee610f1f565b6040516102fb91906125aa565b60405180910390f35b61031e60048036038101906103199190612353565b610f5e565b005b34801561032c57600080fd5b506103356110f5565b60405161034291906126e0565b60405180910390f35b34801561035757600080fd5b5061036061111f565b60405161036d9190612ac6565b60405180910390f35b34801561038257600080fd5b5061039d60048036038101906103989190612ae8565b611591565b005b3480156103ab57600080fd5b506103b4611731565b6040516103c191906125aa565b60405180910390f35b3480156103d657600080fd5b506103f160048036038101906103ec9190612c95565b61173a565b6040516103fe91906125aa565b60405180910390f35b34801561041357600080fd5b5061041c611acd565b60405161042991906125aa565b60405180910390f35b34801561043e57600080fd5b5061045960048036038101906104549190612353565b611ad3565b005b60608060046000848152602001908152602001600020600801600460008581526020019081526020016000206009018180548060200260200160405190810160405280929190818152602001828054801561050b57602002820191906000526020600020905b8160009054906101000a900473ffffffffffffffffffffffffffffffffffffffff1673ffffffffffffffffffffffffffffffffffffffff16815260200190600101908083116104c1575b505050505091508080548060200260200160405190810160405280929190818152602001828054801561055d57602002820191906000526020600020905b815481526020019060010190808311610549575b5050505050905091509150915091565b60008060046000848152602001908152602001600020604051806101a0016040529081600082015481526020016001820160009054906101000a900473ffffffffffffffffffffffffffffffffffffffff1673ffffffffffffffffffffffffffffffffffffffff1673ffffffffffffffffffffffffffffffffffffffff1681526020016002820180546105ff90612da5565b80601f016020809104026020016040519081016040528092919081815260200182805461062b90612da5565b80156106785780601f1061064d57610100808354040283529160200191610678565b820191906000526020600020905b81548152906001019060200180831161065b57829003601f168201915b5050505050815260200160038201805461069190612da5565b80601f01602080910402602001604051908101604052809291908181526020018280546106bd90612da5565b801561070a5780601f106106df5761010080835404028352916020019161070a565b820191906000526020600020905b8154815290600101906020018083116106ed57829003601f168201915b5050505050815260200160048201548152602001600582015481526020016006820154815260200160078201805461074190612da5565b80601f016020809104026020016040519081016040528092919081815260200182805461076d90612da5565b80156107ba5780601f1061078f576101008083540402835291602001916107ba565b820191906000526020600020905b81548152906001019060200180831161079d57829003601f168201915b505050505081526020016008820180548060200260200160405190810160405280929190818152602001828054801561084857602002820191906000526020600020905b8160009054906101000a900473ffffffffffffffffffffffffffffffffffffffff1673ffffffffffffffffffffffffffffffffffffffff16815260200190600101908083116107fe575b50505050508152602001600982018054806020026020016040519081016040528092919081815260200182805480156108a057602002820191906000526020600020905b81548152602001906001019080831161088c575b50505050508152602001600a820160009054906101000a900460ff1660048111156108ce576108cd6125ef565b5b60048111156108e0576108df6125ef565b5b8152602001600a820160019054906101000a900460ff166004811115610909576109086125ef565b5b600481111561091b5761091a6125ef565b5b8152602001600a820160029054906101000a900460ff1615151515815250509050806101800151915050919050565b60006004600083815260200190815260200160002060010160009054906101000a900473ffffffffffffffffffffffffffffffffffffffff1673ffffffffffffffffffffffffffffffffffffffff16319050919050565b60056020528060005260406000206000915054906101000a900460ff1681565b600060046000838152602001908152602001600020905060003490506000811015610a18576040517fadafbc9600000000000000000000000000000000000000000000000000000000815260040160405180910390fd5b6005600084815260200190815260200160002060009054906101000a900460ff16610a6f576040517fadafbc9600000000000000000000000000000000000000000000000000000000815260040160405180910390fd5b60006004811115610a8357610a826125ef565b5b82600a0160009054906101000a900460ff166004811115610aa757610aa66125ef565b5b14158015610aeb575060016004811115610ac457610ac36125ef565b5b82600a0160009054906101000a900460ff166004811115610ae857610ae76125ef565b5b14155b15610b21576040517e4636d200000000000000000000000000000000000000000000000000000000815260040160405180910390fd5b81600801339080600181540180825580915050600190039060005260206000200160009091909190916101000a81548173ffffffffffffffffffffffffffffffffffffffff021916908373ffffffffffffffffffffffffffffffffffffffff1602179055508160090181908060018154018082558091505060019003906000526020600020016000909190919091505580826006016000828254610bc59190612e05565b925050819055503373ffffffffffffffffffffffffffffffffffffffff167f655351f1bf449402dc56dbd84887de4bf8ee15fb1e442c4c68199b7fc5b6ad60848342604051610c1693929190612e39565b60405180910390a28160040154826006015410610c5f57600182600a0160006101000a81548160ff02191690836004811115610c5557610c546125ef565b5b0217905550610c8d565b600082600a0160006101000a81548160ff02191690836004811115610c8757610c866125ef565b5b02179055505b505050565b60006004600083815260200190815260200160002090503373ffffffffffffffffffffffffffffffffffffffff168160010160009054906101000a900473ffffffffffffffffffffffffffffffffffffffff1673ffffffffffffffffffffffffffffffffffffffff1614610d32576040517ff864ae5900000000000000000000000000000000000000000000000000000000815260040160405180910390fd5b60006004811115610d4657610d456125ef565b5b81600a0160009054906101000a900460ff166004811115610d6a57610d696125ef565b5b14610da1576040517fadafbc9600000000000000000000000000000000000000000000000000000000815260040160405180910390fd5b600381600a0160006101000a81548160ff02191690836004811115610dc957610dc86125ef565b5b0217905550600081600601541115610de557610de482611cc2565b5b3373ffffffffffffffffffffffffffffffffffffffff167fdaf42e53ca58d1d28d99e69c2f45565d7fbf704482f0641b81eeb42ef07462f38342604051610e2d929190612e70565b60405180910390a25050565b60007f0000000000000000000000000000000000000000000000000000000000000000905090565b600060046000838152602001908152602001600020600a0160009054906101000a900460ff169050919050565b600160009054906101000a900473ffffffffffffffffffffffffffffffffffffffff1673ffffffffffffffffffffffffffffffffffffffff163373ffffffffffffffffffffffffffffffffffffffff1614610f15576040517fadafbc9600000000000000000000000000000000000000000000000000000000815260040160405180910390fd5b8060008190555050565b60007f000000000000000000000000000000000000000000000000000000000000000073ffffffffffffffffffffffffffffffffffffffff1631905090565b600060046000838152602001908152602001600020905060016004811115610f8957610f886125ef565b5b81600a0160009054906101000a900460ff166004811115610fad57610fac6125ef565b5b14610fe4576040517fadafbc9600000000000000000000000000000000000000000000000000000000815260040160405180910390fd5b8060010160009054906101000a900473ffffffffffffffffffffffffffffffffffffffff1673ffffffffffffffffffffffffffffffffffffffff163373ffffffffffffffffffffffffffffffffffffffff161461106d576040517ff864ae5900000000000000000000000000000000000000000000000000000000815260040160405180910390fd5b600481600a0160006101000a81548160ff02191690836004811115611095576110946125ef565b5b02179055506110a382611f89565b3373ffffffffffffffffffffffffffffffffffffffff167fa00565430f3e0378018049de79b214a549b4193d49c14b535c3eef83581ebc51836040516110e991906125aa565b60405180910390a25050565b6000600260009054906101000a900473ffffffffffffffffffffffffffffffffffffffff16905090565b6060600060035467ffffffffffffffff81111561113f5761113e612b6a565b5b60405190808252806020026020018201604052801561117857816020015b611165612171565b81526020019060019003908161115d5790505b50905060005b60035481101561158957600060046000838152602001908152602001600020905080604051806101a0016040529081600082015481526020016001820160009054906101000a900473ffffffffffffffffffffffffffffffffffffffff1673ffffffffffffffffffffffffffffffffffffffff1673ffffffffffffffffffffffffffffffffffffffff16815260200160028201805461121c90612da5565b80601f016020809104026020016040519081016040528092919081815260200182805461124890612da5565b80156112955780601f1061126a57610100808354040283529160200191611295565b820191906000526020600020905b81548152906001019060200180831161127857829003601f168201915b505050505081526020016003820180546112ae90612da5565b80601f01602080910402602001604051908101604052809291908181526020018280546112da90612da5565b80156113275780601f106112fc57610100808354040283529160200191611327565b820191906000526020600020905b81548152906001019060200180831161130a57829003601f168201915b5050505050815260200160048201548152602001600582015481526020016006820154815260200160078201805461135e90612da5565b80601f016020809104026020016040519081016040528092919081815260200182805461138a90612da5565b80156113d75780601f106113ac576101008083540402835291602001916113d7565b820191906000526020600020905b8154815290600101906020018083116113ba57829003601f168201915b505050505081526020016008820180548060200260200160405190810160405280929190818152602001828054801561146557602002820191906000526020600020905b8160009054906101000a900473ffffffffffffffffffffffffffffffffffffffff1673ffffffffffffffffffffffffffffffffffffffff168152602001906001019080831161141b575b50505050508152602001600982018054806020026020016040519081016040528092919081815260200182805480156114bd57602002820191906000526020600020905b8154815260200190600101908083116114a9575b50505050508152602001600a820160009054906101000a900460ff1660048111156114eb576114ea6125ef565b5b60048111156114fd576114fc6125ef565b5b8152602001600a820160019054906101000a900460ff166004811115611526576115256125ef565b5b6004811115611538576115376125ef565b5b8152602001600a820160029054906101000a900460ff16151515158152505083838151811061156a57611569612e99565b5b602002602001018190525050808061158190612ec8565b91505061117e565b508091505090565b60006004600085815260200190815260200160002090503373ffffffffffffffffffffffffffffffffffffffff168160010160009054906101000a900473ffffffffffffffffffffffffffffffffffffffff1673ffffffffffffffffffffffffffffffffffffffff1614611631576040517ff864ae5900000000000000000000000000000000000000000000000000000000815260040160405180910390fd5b60026004811115611645576116446125ef565b5b81600a0160009054906101000a900460ff166004811115611669576116686125ef565b5b146116a0576040517fadafbc9600000000000000000000000000000000000000000000000000000000815260040160405180910390fd5b80600501544211156116de576040517f9bcfc26d00000000000000000000000000000000000000000000000000000000815260040160405180910390fd5b8281600401819055508181600501819055507f5b0c82513cc7f1f8087a09ca71440f01a3e4bbc6c46495f1004842a1bc1dede084848460405161172393929190612e39565b60405180910390a150505050565b60008054905090565b600085858360008351101561177b576040517fadafbc9600000000000000000000000000000000000000000000000000000000815260040160405180910390fd5b6000825110156117b7576040517fadafbc9600000000000000000000000000000000000000000000000000000000815260040160405180910390fd5b6000815110156117f3576040517fadafbc9600000000000000000000000000000000000000000000000000000000815260040160405180910390fd5b600087101561182e576040517fadafbc9600000000000000000000000000000000000000000000000000000000815260040160405180910390fd5b428611611867576040517f9bcfc26d00000000000000000000000000000000000000000000000000000000815260040160405180910390fd5b600060046000600354815260200190815260200160002090506003548160000181905550338160010160006101000a81548173ffffffffffffffffffffffffffffffffffffffff021916908373ffffffffffffffffffffffffffffffffffffffff160217905550898160020190816118df91906130b2565b50888160030190816118f191906130b2565b50878160040181905550868160050181905550600081600601819055508581600701908161191f91906130b2565b50600067ffffffffffffffff81111561193b5761193a612b6a565b5b6040519080825280602002602001820160405280156119695781602001602082028036833780820191505090505b50816008019080519060200190611981929190612215565b50600067ffffffffffffffff81111561199d5761199c612b6a565b5b6040519080825280602002602001820160405280156119cb5781602001602082028036833780820191505090505b508160090190805190602001906119e392919061229f565b508a81600a0160016101000a81548160ff02191690836004811115611a0b57611a0a6125ef565b5b02179055506001600560008360000154815260200190815260200160002060006101000a81548160ff02191690831515021790555060036000815480929190611a5390612ec8565b91905055503373ffffffffffffffffffffffffffffffffffffffff167f944e037155521668ebad86014260c643358e41123a5b998e18489a10ff11ea036003548d8b8b604051611aa69493929190613193565b60405180910390a26001600354611abd91906131d8565b9450505050509695505050505050565b60035481565b600060046000838152602001908152602001600020905060026004811115611afe57611afd6125ef565b5b81600a0160009054906101000a900460ff166004811115611b2257611b216125ef565b5b1480611b63575060036004811115611b3d57611b3c6125ef565b5b81600a0160009054906101000a900460ff166004811115611b6157611b606125ef565b5b145b80611ba25750600480811115611b7c57611b7b6125ef565b5b81600a0160009054906101000a900460ff166004811115611ba057611b9f6125ef565b5b145b15611bd8576040517e4636d200000000000000000000000000000000000000000000000000000000815260040160405180910390fd5b8060050154421115611c16576040517f9bcfc26d00000000000000000000000000000000000000000000000000000000815260040160405180910390fd5b600281600a0160006101000a81548160ff02191690836004811115611c3e57611c3d6125ef565b5b0217905550611c4c82611cc2565b8060010160009054906101000a900473ffffffffffffffffffffffffffffffffffffffff1673ffffffffffffffffffffffffffffffffffffffff167f7499a145dac6baa4e55462de49ee33dd9526640a55399705c6eb4daebcd7f57783604051611cb691906125aa565b60405180910390a25050565b600060046000838152602001908152602001600020905060036004811115611ced57611cec6125ef565b5b81600a0160009054906101000a900460ff166004811115611d1157611d106125ef565b5b14158015611d55575060026004811115611d2e57611d2d6125ef565b5b81600a0160009054906101000a900460ff166004811115611d5257611d516125ef565b5b14155b15611d8c576040517fadafbc9600000000000000000000000000000000000000000000000000000000815260040160405180910390fd5b6000816008018054905067ffffffffffffffff811115611daf57611dae612b6a565b5b604051908082528060200260200182016040528015611ddd5781602001602082028036833780820191505090505b5090506000826009018054905067ffffffffffffffff811115611e0357611e02612b6a565b5b604051908082528060200260200182016040528015611e315781602001602082028036833780820191505090505b50905060005b8360080180549050811015611f6557836008018181548110611e5c57611e5b612e99565b5b9060005260206000200160009054906101000a900473ffffffffffffffffffffffffffffffffffffffff16838281518110611e9a57611e99612e99565b5b602002602001019073ffffffffffffffffffffffffffffffffffffffff16908173ffffffffffffffffffffffffffffffffffffffff1681525050836009018181548110611eea57611ee9612e99565b5b9060005260206000200154828281518110611f0857611f07612e99565b5b602002602001018181525050611f52838281518110611f2a57611f29612e99565b5b6020026020010151838381518110611f4557611f44612e99565b5b60200260200101516120f6565b8080611f5d90612ec8565b915050611e37565b50600183600a0160026101000a81548160ff02191690831515021790555050505050565b6000600460008381526020019081526020016000209050600480811115611fb357611fb26125ef565b5b81600a0160009054906101000a900460ff166004811115611fd757611fd66125ef565b5b1461200e576040517fadafbc9600000000000000000000000000000000000000000000000000000000815260040160405180910390fd5b6000816006015490506000606460005483612029919061320c565b612033919061327d565b90506000818361204391906131d8565b90506120738460010160009054906101000a900473ffffffffffffffffffffffffffffffffffffffff16826120f6565b61209d7f0000000000000000000000000000000000000000000000000000000000000000836120f6565b3373ffffffffffffffffffffffffffffffffffffffff167f9a3866b92eb53bcee95d3202fbccf24673a278e8d2cad1f2acbc529703caf3e28683426040516120e793929190612e39565b60405180910390a25050505050565b60008273ffffffffffffffffffffffffffffffffffffffff168260405161211c906132df565b60006040518083038185875af1925050503d8060008114612159576040519150601f19603f3d011682016040523d82523d6000602084013e61215e565b606091505b505090508061216c57600080fd5b505050565b604051806101a0016040528060008152602001600073ffffffffffffffffffffffffffffffffffffffff1681526020016060815260200160608152602001600081526020016000815260200160008152602001606081526020016060815260200160608152602001600060048111156121ed576121ec6125ef565b5b815260200160006004811115612206576122056125ef565b5b81526020016000151581525090565b82805482825590600052602060002090810192821561228e579160200282015b8281111561228d5782518260006101000a81548173ffffffffffffffffffffffffffffffffffffffff021916908373ffffffffffffffffffffffffffffffffffffffff16021790555091602001919060010190612235565b5b50905061229b91906122ec565b5090565b8280548282559060005260206000209081019282156122db579160200282015b828111156122da5782518255916020019190600101906122bf565b5b5090506122e891906122ec565b5090565b5b808211156123055760008160009055506001016122ed565b5090565b6000604051905090565b600080fd5b600080fd5b6000819050919050565b6123308161231d565b811461233b57600080fd5b50565b60008135905061234d81612327565b92915050565b60006020828403121561236957612368612313565b5b60006123778482850161233e565b91505092915050565b600081519050919050565b600082825260208201905092915050565b6000819050602082019050919050565b600073ffffffffffffffffffffffffffffffffffffffff82169050919050565b60006123d7826123ac565b9050919050565b6123e7816123cc565b82525050565b60006123f983836123de565b60208301905092915050565b6000602082019050919050565b600061241d82612380565b612427818561238b565b93506124328361239c565b8060005b8381101561246357815161244a88826123ed565b975061245583612405565b925050600181019050612436565b5085935050505092915050565b600081519050919050565b600082825260208201905092915050565b6000819050602082019050919050565b6124a58161231d565b82525050565b60006124b7838361249c565b60208301905092915050565b6000602082019050919050565b60006124db82612470565b6124e5818561247b565b93506124f08361248c565b8060005b8381101561252157815161250888826124ab565b9750612513836124c3565b9250506001810190506124f4565b5085935050505092915050565b600060408201905081810360008301526125488185612412565b9050818103602083015261255c81846124d0565b90509392505050565b60008115159050919050565b61257a81612565565b82525050565b60006020820190506125956000830184612571565b92915050565b6125a48161231d565b82525050565b60006020820190506125bf600083018461259b565b92915050565b6125ce816123cc565b82525050565b60006020820190506125e960008301846125c5565b92915050565b7f4e487b7100000000000000000000000000000000000000000000000000000000600052602160045260246000fd5b6005811061262f5761262e6125ef565b5b50565b60008190506126408261261e565b919050565b600061265082612632565b9050919050565b61266081612645565b82525050565b600060208201905061267b6000830184612657565b92915050565b6000819050919050565b60006126a66126a161269c846123ac565b612681565b6123ac565b9050919050565b60006126b88261268b565b9050919050565b60006126ca826126ad565b9050919050565b6126da816126bf565b82525050565b60006020820190506126f560008301846126d1565b92915050565b600081519050919050565b600082825260208201905092915050565b6000819050602082019050919050565b600081519050919050565b600082825260208201905092915050565b60005b83811015612761578082015181840152602081019050612746565b60008484015250505050565b6000601f19601f8301169050919050565b600061278982612727565b6127938185612732565b93506127a3818560208601612743565b6127ac8161276d565b840191505092915050565b600082825260208201905092915050565b60006127d382612380565b6127dd81856127b7565b93506127e88361239c565b8060005b8381101561281957815161280088826123ed565b975061280b83612405565b9250506001810190506127ec565b5085935050505092915050565b600082825260208201905092915050565b600061284282612470565b61284c8185612826565b93506128578361248c565b8060005b8381101561288857815161286f88826124ab565b975061287a836124c3565b92505060018101905061285b565b5085935050505092915050565b61289e81612645565b82525050565b600581106128b5576128b46125ef565b5b50565b60008190506128c6826128a4565b919050565b60006128d6826128b8565b9050919050565b6128e6816128cb565b82525050565b6128f581612565565b82525050565b60006101a083016000830151612914600086018261249c565b50602083015161292760208601826123de565b506040830151848203604086015261293f828261277e565b91505060608301518482036060860152612959828261277e565b915050608083015161296e608086018261249c565b5060a083015161298160a086018261249c565b5060c083015161299460c086018261249c565b5060e083015184820360e08601526129ac828261277e565b9150506101008301518482036101008601526129c882826127c8565b9150506101208301518482036101208601526129e48282612837565b9150506101408301516129fb610140860182612895565b50610160830151612a106101608601826128dd565b50610180830151612a256101808601826128ec565b508091505092915050565b6000612a3c83836128fb565b905092915050565b6000602082019050919050565b6000612a5c826126fb565b612a668185612706565b935083602082028501612a7885612717565b8060005b85811015612ab45784840389528151612a958582612a30565b9450612aa083612a44565b925060208a01995050600181019050612a7c565b50829750879550505050505092915050565b60006020820190508181036000830152612ae08184612a51565b905092915050565b600080600060608486031215612b0157612b00612313565b5b6000612b0f8682870161233e565b9350506020612b208682870161233e565b9250506040612b318682870161233e565b9150509250925092565b60058110612b4857600080fd5b50565b600081359050612b5a81612b3b565b92915050565b600080fd5b600080fd5b7f4e487b7100000000000000000000000000000000000000000000000000000000600052604160045260246000fd5b612ba28261276d565b810181811067ffffffffffffffff82111715612bc157612bc0612b6a565b5b80604052505050565b6000612bd4612309565b9050612be08282612b99565b919050565b600067ffffffffffffffff821115612c0057612bff612b6a565b5b612c098261276d565b9050602081019050919050565b82818337600083830152505050565b6000612c38612c3384612be5565b612bca565b905082815260208101848484011115612c5457612c53612b65565b5b612c5f848285612c16565b509392505050565b600082601f830112612c7c57612c7b612b60565b5b8135612c8c848260208601612c25565b91505092915050565b60008060008060008060c08789031215612cb257612cb1612313565b5b6000612cc089828a01612b4b565b965050602087013567ffffffffffffffff811115612ce157612ce0612318565b5b612ced89828a01612c67565b955050604087013567ffffffffffffffff811115612d0e57612d0d612318565b5b612d1a89828a01612c67565b9450506060612d2b89828a0161233e565b9350506080612d3c89828a0161233e565b92505060a087013567ffffffffffffffff811115612d5d57612d5c612318565b5b612d6989828a01612c67565b9150509295509295509295565b7f4e487b7100000000000000000000000000000000000000000000000000000000600052602260045260246000fd5b60006002820490506001821680612dbd57607f821691505b602082108103612dd057612dcf612d76565b5b50919050565b7f4e487b7100000000000000000000000000000000000000000000000000000000600052601160045260246000fd5b6000612e108261231d565b9150612e1b8361231d565b9250828201905080821115612e3357612e32612dd6565b5b92915050565b6000606082019050612e4e600083018661259b565b612e5b602083018561259b565b612e68604083018461259b565b949350505050565b6000604082019050612e85600083018561259b565b612e92602083018461259b565b9392505050565b7f4e487b7100000000000000000000000000000000000000000000000000000000600052603260045260246000fd5b6000612ed38261231d565b91507fffffffffffffffffffffffffffffffffffffffffffffffffffffffffffffffff8203612f0557612f04612dd6565b5b600182019050919050565b60008190508160005260206000209050919050565b60006020601f8301049050919050565b600082821b905092915050565b600060088302612f727fffffffffffffffffffffffffffffffffffffffffffffffffffffffffffffffff82612f35565b612f7c8683612f35565b95508019841693508086168417925050509392505050565b6000612faf612faa612fa58461231d565b612681565b61231d565b9050919050565b6000819050919050565b612fc983612f94565b612fdd612fd582612fb6565b848454612f42565b825550505050565b600090565b612ff2612fe5565b612ffd818484612fc0565b505050565b5b8181101561302157613016600082612fea565b600181019050613003565b5050565b601f8211156130665761303781612f10565b61304084612f25565b8101602085101561304f578190505b61306361305b85612f25565b830182613002565b50505b505050565b600082821c905092915050565b60006130896000198460080261306b565b1980831691505092915050565b60006130a28383613078565b9150826002028217905092915050565b6130bb82612727565b67ffffffffffffffff8111156130d4576130d3612b6a565b5b6130de8254612da5565b6130e9828285613025565b600060209050601f83116001811461311c576000841561310a578287015190505b6131148582613096565b86555061317c565b601f19841661312a86612f10565b60005b828110156131525784890151825560018201915060208501945060208101905061312d565b8683101561316f578489015161316b601f891682613078565b8355505b6001600288020188555050505b505050505050565b61318d816128cb565b82525050565b60006080820190506131a8600083018761259b565b6131b56020830186613184565b6131c2604083018561259b565b6131cf606083018461259b565b95945050505050565b60006131e38261231d565b91506131ee8361231d565b925082820390508181111561320657613205612dd6565b5b92915050565b60006132178261231d565b91506132228361231d565b92508282026132308161231d565b9150828204841483151761324757613246612dd6565b5b5092915050565b7f4e487b7100000000000000000000000000000000000000000000000000000000600052601260045260246000fd5b60006132888261231d565b91506132938361231d565b9250826132a3576132a261324e565b5b828204905092915050565b600081905092915050565b50565b60006132c96000836132ae565b91506132d4826132b9565b600082019050919050565b60006132ea826132bc565b915081905091905056fea26469706673582212204f131579974945e492d2c786c47bdeaa6e4073aa9ba7272653985d962c4236f864736f6c63430008110033",
  "devdoc": {
    "kind": "dev",
    "methods": {},
    "version": 1
  },
  "userdoc": {
    "kind": "user",
    "methods": {},
    "version": 1
  },
  "storageLayout": {
    "storage": [
      {
        "astId": 146,
        "contract": "contracts/CrowdFund.sol:CrowdFund",
        "label": "i_feePercent",
        "offset": 0,
        "slot": "0",
        "type": "t_uint256"
      },
      {
        "astId": 148,
        "contract": "contracts/CrowdFund.sol:CrowdFund",
        "label": "i_owner",
        "offset": 0,
        "slot": "1",
        "type": "t_address"
      },
      {
        "astId": 151,
        "contract": "contracts/CrowdFund.sol:CrowdFund",
        "label": "s_priceFeed",
        "offset": 0,
        "slot": "2",
        "type": "t_contract(AggregatorV3Interface)45"
      },
      {
        "astId": 154,
        "contract": "contracts/CrowdFund.sol:CrowdFund",
        "label": "s_numberOfCampaigns",
        "offset": 0,
        "slot": "3",
        "type": "t_uint256"
      },
      {
        "astId": 318,
        "contract": "contracts/CrowdFund.sol:CrowdFund",
        "label": "s_campaigns",
        "offset": 0,
        "slot": "4",
        "type": "t_mapping(t_uint256,t_struct(Campaign)197_storage)"
      },
      {
        "astId": 322,
        "contract": "contracts/CrowdFund.sol:CrowdFund",
        "label": "s_campaignExist",
        "offset": 0,
        "slot": "5",
        "type": "t_mapping(t_uint256,t_bool)"
      }
    ],
    "types": {
      "t_address": {
        "encoding": "inplace",
        "label": "address",
        "numberOfBytes": "20"
      },
      "t_array(t_address)dyn_storage": {
        "base": "t_address",
        "encoding": "dynamic_array",
        "label": "address[]",
        "numberOfBytes": "32"
      },
      "t_array(t_uint256)dyn_storage": {
        "base": "t_uint256",
        "encoding": "dynamic_array",
        "label": "uint256[]",
        "numberOfBytes": "32"
      },
      "t_bool": {
        "encoding": "inplace",
        "label": "bool",
        "numberOfBytes": "1"
      },
      "t_contract(AggregatorV3Interface)45": {
        "encoding": "inplace",
        "label": "contract AggregatorV3Interface",
        "numberOfBytes": "20"
      },
      "t_enum(CampaignStatus)160": {
        "encoding": "inplace",
        "label": "enum CrowdFund.CampaignStatus",
        "numberOfBytes": "1"
      },
      "t_enum(Category)166": {
        "encoding": "inplace",
        "label": "enum CrowdFund.Category",
        "numberOfBytes": "1"
      },
      "t_mapping(t_uint256,t_bool)": {
        "encoding": "mapping",
        "key": "t_uint256",
        "label": "mapping(uint256 => bool)",
        "numberOfBytes": "32",
        "value": "t_bool"
      },
      "t_mapping(t_uint256,t_struct(Campaign)197_storage)": {
        "encoding": "mapping",
        "key": "t_uint256",
        "label": "mapping(uint256 => struct CrowdFund.Campaign)",
        "numberOfBytes": "32",
        "value": "t_struct(Campaign)197_storage"
      },
      "t_string_storage": {
        "encoding": "bytes",
        "label": "string",
        "numberOfBytes": "32"
      },
      "t_struct(Campaign)197_storage": {
        "encoding": "inplace",
        "label": "struct CrowdFund.Campaign",
        "members": [
          {
            "astId": 168,
            "contract": "contracts/CrowdFund.sol:CrowdFund",
            "label": "id",
            "offset": 0,
            "slot": "0",
            "type": "t_uint256"
          },
          {
            "astId": 170,
            "contract": "contracts/CrowdFund.sol:CrowdFund",
            "label": "owner",
            "offset": 0,
            "slot": "1",
            "type": "t_address"
          },
          {
            "astId": 172,
            "contract": "contracts/CrowdFund.sol:CrowdFund",
            "label": "title",
            "offset": 0,
            "slot": "2",
            "type": "t_string_storage"
          },
          {
            "astId": 174,
            "contract": "contracts/CrowdFund.sol:CrowdFund",
            "label": "description",
            "offset": 0,
            "slot": "3",
            "type": "t_string_storage"
          },
          {
            "astId": 176,
            "contract": "contracts/CrowdFund.sol:CrowdFund",
            "label": "target",
            "offset": 0,
            "slot": "4",
            "type": "t_uint256"
          },
          {
            "astId": 178,
            "contract": "contracts/CrowdFund.sol:CrowdFund",
            "label": "deadline",
            "offset": 0,
            "slot": "5",
            "type": "t_uint256"
          },
          {
            "astId": 180,
            "contract": "contracts/CrowdFund.sol:CrowdFund",
            "label": "amountCollected",
            "offset": 0,
            "slot": "6",
            "type": "t_uint256"
          },
          {
            "astId": 182,
            "contract": "contracts/CrowdFund.sol:CrowdFund",
            "label": "image",
            "offset": 0,
            "slot": "7",
            "type": "t_string_storage"
          },
          {
            "astId": 185,
            "contract": "contracts/CrowdFund.sol:CrowdFund",
            "label": "donators",
            "offset": 0,
            "slot": "8",
            "type": "t_array(t_address)dyn_storage"
          },
          {
            "astId": 188,
            "contract": "contracts/CrowdFund.sol:CrowdFund",
            "label": "donations",
            "offset": 0,
            "slot": "9",
            "type": "t_array(t_uint256)dyn_storage"
          },
          {
            "astId": 191,
            "contract": "contracts/CrowdFund.sol:CrowdFund",
            "label": "status",
            "offset": 0,
            "slot": "10",
            "type": "t_enum(CampaignStatus)160"
          },
          {
            "astId": 194,
            "contract": "contracts/CrowdFund.sol:CrowdFund",
            "label": "category",
            "offset": 1,
            "slot": "10",
            "type": "t_enum(Category)166"
          },
          {
            "astId": 196,
            "contract": "contracts/CrowdFund.sol:CrowdFund",
            "label": "refunded",
            "offset": 2,
            "slot": "10",
            "type": "t_bool"
          }
        ],
        "numberOfBytes": "352"
      },
      "t_uint256": {
        "encoding": "inplace",
        "label": "uint256",
        "numberOfBytes": "32"
      }
    }
  }
}