{
  "address": "0xe7f1725E7734CE288F8367e1Bb143E90bb3F0512",
  "abi": [
    {
      "inputs": [
        {
          "internalType": "address",
          "name": "_feeAccount",
          "type": "address"
        },
        {
          "internalType": "uint256",
          "name": "_feePercent",
          "type": "uint256"
        },
        {
          "internalType": "address",
          "name": "priceFeeAddress",
          "type": "address"
        }
      ],
      "stateMutability": "nonpayable",
      "type": "constructor"
    },
    {
      "inputs": [],
      "name": "CrowdFund__Deadline",
      "type": "error"
    },
    {
      "inputs": [],
      "name": "CrowdFund__Ended",
      "type": "error"
    },
    {
      "inputs": [],
      "name": "CrowdFund__NotOwner",
      "type": "error"
    },
    {
      "inputs": [],
      "name": "CrowdFund__Required",
      "type": "error"
    },
    {
      "anonymous": false,
      "inputs": [
        {
          "indexed": false,
          "internalType": "uint256",
          "name": "id",
          "type": "uint256"
        },
        {
          "indexed": true,
          "internalType": "address",
          "name": "creator",
          "type": "address"
        },
        {
          "indexed": false,
          "internalType": "uint256",
          "name": "timestamp",
          "type": "uint256"
        }
      ],
      "name": "CancelCampaign",
      "type": "event"
    },
    {
      "anonymous": false,
      "inputs": [
        {
          "indexed": false,
          "internalType": "uint256",
          "name": "id",
          "type": "uint256"
        },
        {
          "indexed": true,
          "internalType": "address",
          "name": "creator",
          "type": "address"
        },
        {
          "indexed": false,
          "internalType": "enum CrowdFund.Category",
          "name": "category",
          "type": "uint8"
        },
        {
          "indexed": false,
          "internalType": "uint256",
          "name": "target",
          "type": "uint256"
        },
        {
          "indexed": false,
          "internalType": "uint256",
          "name": "deadline",
          "type": "uint256"
        }
      ],
      "name": "CreatedCampaign",
      "type": "event"
    },
    {
      "anonymous": false,
      "inputs": [
        {
          "indexed": false,
          "internalType": "uint256",
          "name": "id",
          "type": "uint256"
        },
        {
          "indexed": true,
          "internalType": "address",
          "name": "donator",
          "type": "address"
        },
        {
          "indexed": false,
          "internalType": "uint256",
          "name": "value",
          "type": "uint256"
        },
        {
          "indexed": false,
          "internalType": "uint256",
          "name": "timestamp",
          "type": "uint256"
        }
      ],
      "name": "DonatedCampaign",
      "type": "event"
    },
    {
      "anonymous": false,
      "inputs": [
        {
          "indexed": false,
          "internalType": "uint256",
          "name": "id",
          "type": "uint256"
        },
        {
          "indexed": true,
          "internalType": "address",
          "name": "creator",
          "type": "address"
        },
        {
          "indexed": false,
          "internalType": "uint256",
          "name": "donations",
          "type": "uint256"
        },
        {
          "indexed": false,
          "internalType": "uint256",
          "name": "timestamp",
          "type": "uint256"
        }
      ],
      "name": "PaidOutCampaign",
      "type": "event"
    },
    {
      "anonymous": false,
      "inputs": [
        {
          "indexed": false,
          "internalType": "uint256",
          "name": "id",
          "type": "uint256"
        },
        {
          "indexed": true,
          "internalType": "address",
          "name": "creator",
          "type": "address"
        }
      ],
      "name": "RefundCampaign",
      "type": "event"
    },
    {
      "anonymous": false,
      "inputs": [],
      "name": "TimerExpired",
      "type": "event"
    },
    {
      "anonymous": false,
      "inputs": [
        {
          "indexed": false,
          "internalType": "uint256",
          "name": "startTime",
          "type": "uint256"
        },
        {
          "indexed": false,
          "internalType": "uint256",
          "name": "duration",
          "type": "uint256"
        }
      ],
      "name": "TimerStarted",
      "type": "event"
    },
    {
      "anonymous": false,
      "inputs": [
        {
          "indexed": false,
          "internalType": "uint256",
          "name": "id",
          "type": "uint256"
        },
        {
          "indexed": false,
          "internalType": "uint256",
          "name": "newTarget",
          "type": "uint256"
        },
        {
          "indexed": false,
          "internalType": "uint256",
          "name": "newDeadline",
          "type": "uint256"
        }
      ],
      "name": "UpdatedCampaign",
      "type": "event"
    },
    {
      "anonymous": false,
      "inputs": [
        {
          "indexed": false,
          "internalType": "uint256",
          "name": "id",
          "type": "uint256"
        },
        {
          "indexed": true,
          "internalType": "address",
          "name": "creator",
          "type": "address"
        }
      ],
      "name": "WithdrawCampaign",
      "type": "event"
    },
    {
      "inputs": [
        {
          "internalType": "uint256",
          "name": "_id",
          "type": "uint256"
        }
      ],
      "name": "cancelCampaign",
      "outputs": [],
      "stateMutability": "nonpayable",
      "type": "function"
    },
    {
      "inputs": [
        {
          "internalType": "enum CrowdFund.Category",
          "name": "_category",
          "type": "uint8"
        },
        {
          "internalType": "string",
          "name": "_title",
          "type": "string"
        },
        {
          "internalType": "string",
          "name": "_description",
          "type": "string"
        },
        {
          "internalType": "uint256",
          "name": "_target",
          "type": "uint256"
        },
        {
          "internalType": "uint256",
          "name": "_deadline",
          "type": "uint256"
        },
        {
          "internalType": "string",
          "name": "_image",
          "type": "string"
        }
      ],
      "name": "createCampaign",
      "outputs": [
        {
          "internalType": "uint256",
          "name": "",
          "type": "uint256"
        }
      ],
      "stateMutability": "nonpayable",
      "type": "function"
    },
    {
      "inputs": [
        {
          "internalType": "uint256",
          "name": "_id",
          "type": "uint256"
        }
      ],
      "name": "donateToCampaign",
      "outputs": [],
      "stateMutability": "payable",
      "type": "function"
    },
    {
      "inputs": [
        {
          "internalType": "uint256",
          "name": "_id",
          "type": "uint256"
        }
      ],
      "name": "getBalance",
      "outputs": [
        {
          "internalType": "uint256",
          "name": "",
          "type": "uint256"
        }
      ],
      "stateMutability": "view",
      "type": "function"
    },
    {
      "inputs": [],
      "name": "getCampaigns",
      "outputs": [
        {
          "components": [
            {
              "internalType": "uint256",
              "name": "id",
              "type": "uint256"
            },
            {
              "internalType": "address",
              "name": "owner",
              "type": "address"
            },
            {
              "internalType": "string",
              "name": "title",
              "type": "string"
            },
            {
              "internalType": "string",
              "name": "description",
              "type": "string"
            },
            {
              "internalType": "uint256",
              "name": "target",
              "type": "uint256"
            },
            {
              "internalType": "uint256",
              "name": "deadline",
              "type": "uint256"
            },
            {
              "internalType": "uint256",
              "name": "amountCollected",
              "type": "uint256"
            },
            {
              "internalType": "string",
              "name": "image",
              "type": "string"
            },
            {
              "internalType": "address[]",
              "name": "donators",
              "type": "address[]"
            },
            {
              "internalType": "uint256[]",
              "name": "donations",
              "type": "uint256[]"
            },
            {
              "internalType": "enum CrowdFund.CampaignStatus",
              "name": "status",
              "type": "uint8"
            },
            {
              "internalType": "enum CrowdFund.Category",
              "name": "category",
              "type": "uint8"
            },
            {
              "internalType": "bool",
              "name": "refunded",
              "type": "bool"
            }
          ],
          "internalType": "struct CrowdFund.Campaign[]",
          "name": "",
          "type": "tuple[]"
        }
      ],
      "stateMutability": "view",
      "type": "function"
    },
    {
      "inputs": [],
      "name": "getContractBalance",
      "outputs": [
        {
          "internalType": "uint256",
          "name": "",
          "type": "uint256"
        }
      ],
      "stateMutability": "view",
      "type": "function"
    },
    {
      "inputs": [
        {
          "internalType": "uint256",
          "name": "_id",
          "type": "uint256"
        }
      ],
      "name": "getDonators",
      "outputs": [
        {
          "internalType": "address[]",
          "name": "",
          "type": "address[]"
        },
        {
          "internalType": "uint256[]",
          "name": "",
          "type": "uint256[]"
        }
      ],
      "stateMutability": "view",
      "type": "function"
    },
    {
      "inputs": [],
      "name": "getFeeAccount",
      "outputs": [
        {
          "internalType": "address",
          "name": "",
          "type": "address"
        }
      ],
      "stateMutability": "view",
      "type": "function"
    },
    {
      "inputs": [],
      "name": "getFeePercent",
      "outputs": [
        {
          "internalType": "uint256",
          "name": "",
          "type": "uint256"
        }
      ],
      "stateMutability": "view",
      "type": "function"
    },
    {
      "inputs": [],
      "name": "getPriceFeed",
      "outputs": [
        {
          "internalType": "contract AggregatorV3Interface",
          "name": "",
          "type": "address"
        }
      ],
      "stateMutability": "view",
      "type": "function"
    },
    {
      "inputs": [
        {
          "internalType": "uint256",
          "name": "_id",
          "type": "uint256"
        }
      ],
      "name": "getRefundStatus",
      "outputs": [
        {
          "internalType": "bool",
          "name": "",
          "type": "bool"
        }
      ],
      "stateMutability": "view",
      "type": "function"
    },
    {
      "inputs": [
        {
          "internalType": "uint256",
          "name": "_id",
          "type": "uint256"
        }
      ],
      "name": "getStatus",
      "outputs": [
        {
          "internalType": "enum CrowdFund.CampaignStatus",
          "name": "_status",
          "type": "uint8"
        }
      ],
      "stateMutability": "view",
      "type": "function"
    },
    {
      "inputs": [
        {
          "internalType": "uint256",
          "name": "_id",
          "type": "uint256"
        }
      ],
      "name": "getTimeLeft",
      "outputs": [
        {
          "internalType": "uint256",
          "name": "",
          "type": "uint256"
        }
      ],
      "stateMutability": "view",
      "type": "function"
    },
    {
      "inputs": [
        {
          "internalType": "uint256",
          "name": "_id",
          "type": "uint256"
        }
      ],
      "name": "refundCampaign",
      "outputs": [],
      "stateMutability": "nonpayable",
      "type": "function"
    },
    {
      "inputs": [
        {
          "internalType": "uint256",
          "name": "",
          "type": "uint256"
        }
      ],
      "name": "s_campaignExist",
      "outputs": [
        {
          "internalType": "bool",
          "name": "",
          "type": "bool"
        }
      ],
      "stateMutability": "view",
      "type": "function"
    },
    {
      "inputs": [],
      "name": "s_numberOfCampaigns",
      "outputs": [
        {
          "internalType": "uint256",
          "name": "",
          "type": "uint256"
        }
      ],
      "stateMutability": "view",
      "type": "function"
    },
    {
      "inputs": [
        {
          "internalType": "uint256",
          "name": "_id",
          "type": "uint256"
        },
        {
          "internalType": "enum CrowdFund.CampaignStatus",
          "name": "_status",
          "type": "uint8"
        }
      ],
      "name": "setCampaignStatus",
      "outputs": [],
      "stateMutability": "nonpayable",
      "type": "function"
    },
    {
      "inputs": [
        {
          "internalType": "uint256",
          "name": "_fee",
          "type": "uint256"
        }
      ],
      "name": "setFee",
      "outputs": [],
      "stateMutability": "nonpayable",
      "type": "function"
    },
    {
      "inputs": [
        {
          "internalType": "uint256",
          "name": "_id",
          "type": "uint256"
        },
        {
          "internalType": "uint256",
          "name": "_newTarget",
          "type": "uint256"
        },
        {
          "internalType": "uint256",
          "name": "_newDeadline",
          "type": "uint256"
        }
      ],
      "name": "updateCampaign",
      "outputs": [],
      "stateMutability": "nonpayable",
      "type": "function"
    },
    {
      "inputs": [
        {
          "internalType": "uint256",
          "name": "_id",
          "type": "uint256"
        }
      ],
      "name": "updateCampaignStatus",
      "outputs": [],
      "stateMutability": "nonpayable",
      "type": "function"
    },
    {
      "inputs": [
        {
          "internalType": "uint256",
          "name": "_id",
          "type": "uint256"
        }
      ],
      "name": "withdrawCampaign",
      "outputs": [],
      "stateMutability": "payable",
      "type": "function"
    }
  ],
  "transactionHash": "0x7f3c8e45dcc06088f699f3279fb9c228cb6de6f803e39a2e8f02e73c3ac0ff5b",
  "args": [
    "0x70997970C51812dc3A010C7d01b50e0d17dc79C8",
    10,
    "0x5FbDB2315678afecb367f032d93F642f64180aa3"
  ],
  "numDeployments": 1,
  "solcInputHash": "6d75a26bc0dae154897d16a1ec20d06f",
  "bytecode": "0x60a060405260006005553480156200001657600080fd5b5060405162003a7738038062003a7783398181016040528101906200003c9190620001a7565b8273ffffffffffffffffffffffffffffffffffffffff1660808173ffffffffffffffffffffffffffffffffffffffff16815250508160008190555033600160006101000a81548173ffffffffffffffffffffffffffffffffffffffff021916908373ffffffffffffffffffffffffffffffffffffffff16021790555080600460016101000a81548173ffffffffffffffffffffffffffffffffffffffff021916908373ffffffffffffffffffffffffffffffffffffffff16021790555050505062000203565b600080fd5b600073ffffffffffffffffffffffffffffffffffffffff82169050919050565b6000620001348262000107565b9050919050565b620001468162000127565b81146200015257600080fd5b50565b60008151905062000166816200013b565b92915050565b6000819050919050565b62000181816200016c565b81146200018d57600080fd5b50565b600081519050620001a18162000176565b92915050565b600080600060608486031215620001c357620001c262000102565b5b6000620001d38682870162000155565b9350506020620001e68682870162000190565b9250506040620001f98682870162000155565b9150509250925092565b60805161384a6200022d60003960008181610f0e01528181610ff40152612464015261384a6000f3fe60806040526004361061012a5760003560e01c80637684fc86116100ab578063c713b04c1161006f578063c713b04c146103eb578063cad240e514610414578063e681789d14610451578063e8c587631461047a578063f487a65c146104b7578063f59a9bb0146104e25761012a565b80637684fc86146103255780639e87a5cd14610341578063a6b036331461036c578063a781032214610397578063be74264d146103c05761012a565b806345598b4a116100f257806345598b4a146102405780634614be9f146102695780635c622a0e1461029457806369fe0e2d146102d15780636f9fb98a146102fa5761012a565b80630fa91fa91461012f578063106b48711461016d5780631e010439146101aa578063359d2411146101e757806342a4fda814610224575b600080fd5b34801561013b57600080fd5b506101566004803603810190610151919061280e565b61050b565b6040516101649291906129e9565b60405180910390f35b34801561017957600080fd5b50610194600480360381019061018f919061280e565b61061d565b6040516101a19190612a3b565b60405180910390f35b3480156101b657600080fd5b506101d160048036038101906101cc919061280e565b6109fa565b6040516101de9190612a65565b60405180910390f35b3480156101f357600080fd5b5061020e6004803603810190610209919061280e565b610a51565b60405161021b9190612a3b565b60405180910390f35b61023e6004803603810190610239919061280e565b610a71565b005b34801561024c57600080fd5b506102676004803603810190610262919061280e565b610cc2565b005b34801561027557600080fd5b5061027e610f0a565b60405161028b9190612a8f565b60405180910390f35b3480156102a057600080fd5b506102bb60048036038101906102b6919061280e565b610f32565b6040516102c89190612b21565b60405180910390f35b3480156102dd57600080fd5b506102f860048036038101906102f3919061280e565b610f5f565b005b34801561030657600080fd5b5061030f610ff0565b60405161031c9190612a65565b60405180910390f35b61033f600480360381019061033a919061280e565b61102f565b005b34801561034d57600080fd5b506103566112ad565b6040516103639190612b9b565b60405180910390f35b34801561037857600080fd5b506103816112d7565b60405161038e9190612f81565b60405180910390f35b3480156103a357600080fd5b506103be60048036038101906103b99190612fa3565b611749565b005b3480156103cc57600080fd5b506103d56119a9565b6040516103e29190612a65565b60405180910390f35b3480156103f757600080fd5b50610412600480360381019061040d919061280e565b6119b2565b005b34801561042057600080fd5b5061043b60048036038101906104369190613150565b611aba565b6040516104489190612a65565b60405180910390f35b34801561045d57600080fd5b5061047860048036038101906104739190613256565b611dc9565b005b34801561048657600080fd5b506104a1600480360381019061049c919061280e565b611eef565b6040516104ae9190612a65565b60405180910390f35b3480156104c357600080fd5b506104cc611f63565b6040516104d99190612a65565b60405180910390f35b3480156104ee57600080fd5b506105096004803603810190610504919061280e565b611f69565b005b6060806006600084815260200190815260200160002060080160066000858152602001908152602001600020600901818054806020026020016040519081016040528092919081815260200182805480156105bb57602002820191906000526020600020905b8160009054906101000a900473ffffffffffffffffffffffffffffffffffffffff1673ffffffffffffffffffffffffffffffffffffffff1681526020019060010190808311610571575b505050505091508080548060200260200160405190810160405280929190818152602001828054801561060d57602002820191906000526020600020905b8154815260200190600101908083116105f9575b5050505050905091509150915091565b60008060066000848152602001908152602001600020604051806101a0016040529081600082015481526020016001820160009054906101000a900473ffffffffffffffffffffffffffffffffffffffff1673ffffffffffffffffffffffffffffffffffffffff1673ffffffffffffffffffffffffffffffffffffffff1681526020016002820180546106af906132c5565b80601f01602080910402602001604051908101604052809291908181526020018280546106db906132c5565b80156107285780601f106106fd57610100808354040283529160200191610728565b820191906000526020600020905b81548152906001019060200180831161070b57829003601f168201915b50505050508152602001600382018054610741906132c5565b80601f016020809104026020016040519081016040528092919081815260200182805461076d906132c5565b80156107ba5780601f1061078f576101008083540402835291602001916107ba565b820191906000526020600020905b81548152906001019060200180831161079d57829003601f168201915b505050505081526020016004820154815260200160058201548152602001600682015481526020016007820180546107f1906132c5565b80601f016020809104026020016040519081016040528092919081815260200182805461081d906132c5565b801561086a5780601f1061083f5761010080835404028352916020019161086a565b820191906000526020600020905b81548152906001019060200180831161084d57829003601f168201915b50505050508152602001600882018054806020026020016040519081016040528092919081815260200182805480156108f857602002820191906000526020600020905b8160009054906101000a900473ffffffffffffffffffffffffffffffffffffffff1673ffffffffffffffffffffffffffffffffffffffff16815260200190600101908083116108ae575b505050505081526020016009820180548060200260200160405190810160405280929190818152602001828054801561095057602002820191906000526020600020905b81548152602001906001019080831161093c575b50505050508152602001600a820160009054906101000a900460ff16600481111561097e5761097d612aaa565b5b60048111156109905761098f612aaa565b5b8152602001600a820160019054906101000a900460ff1660048111156109b9576109b8612aaa565b5b60048111156109cb576109ca612aaa565b5b8152602001600a820160029054906101000a900460ff1615151515815250509050806101800151915050919050565b60006006600083815260200190815260200160002060010160009054906101000a900473ffffffffffffffffffffffffffffffffffffffff1673ffffffffffffffffffffffffffffffffffffffff16319050919050565b60076020528060005260406000206000915054906101000a900460ff1681565b60006004811115610a8557610a84612aaa565b5b600460009054906101000a900460ff166004811115610aa757610aa6612aaa565b5b14610ade576040517f9bcfc26d00000000000000000000000000000000000000000000000000000000815260040160405180910390fd5b600060066000838152602001908152602001600020905060003490506007600084815260200190815260200160002060009054906101000a900460ff16610b51576040517fadafbc9600000000000000000000000000000000000000000000000000000000815260040160405180910390fd5b81600801339080600181540180825580915050600190039060005260206000200160009091909190916101000a81548173ffffffffffffffffffffffffffffffffffffffff021916908373ffffffffffffffffffffffffffffffffffffffff1602179055508160090181908060018154018082558091505060019003906000526020600020016000909190919091505580826006016000828254610bf59190613325565b925050819055503373ffffffffffffffffffffffffffffffffffffffff167f655351f1bf449402dc56dbd84887de4bf8ee15fb1e442c4c68199b7fc5b6ad60848342604051610c4693929190613359565b60405180910390a28160040154826006015410610c8f57600182600a0160006101000a81548160ff02191690836004811115610c8557610c84612aaa565b5b0217905550610cbd565b600082600a0160006101000a81548160ff02191690836004811115610cb757610cb6612aaa565b5b02179055505b505050565b8060006006600083815260200190815260200160002090503373ffffffffffffffffffffffffffffffffffffffff168160010160009054906101000a900473ffffffffffffffffffffffffffffffffffffffff1673ffffffffffffffffffffffffffffffffffffffff1614610d63576040517ff864ae5900000000000000000000000000000000000000000000000000000000815260040160405180910390fd5b60006004811115610d7757610d76612aaa565b5b600460009054906101000a900460ff166004811115610d9957610d98612aaa565b5b14610dd0576040517f9bcfc26d00000000000000000000000000000000000000000000000000000000815260040160405180910390fd5b60006006600085815260200190815260200160002090503373ffffffffffffffffffffffffffffffffffffffff168160010160009054906101000a900473ffffffffffffffffffffffffffffffffffffffff1673ffffffffffffffffffffffffffffffffffffffff1614610e70576040517ff864ae5900000000000000000000000000000000000000000000000000000000815260040160405180910390fd5b600381600a0160006101000a81548160ff02191690836004811115610e9857610e97612aaa565b5b0217905550600081600601541115610eb457610eb3846121fa565b5b3373ffffffffffffffffffffffffffffffffffffffff167fdaf42e53ca58d1d28d99e69c2f45565d7fbf704482f0641b81eeb42ef07462f38542604051610efc929190613390565b60405180910390a250505050565b60007f0000000000000000000000000000000000000000000000000000000000000000905090565b600060066000838152602001908152602001600020600a0160009054906101000a900460ff169050919050565b600160009054906101000a900473ffffffffffffffffffffffffffffffffffffffff1673ffffffffffffffffffffffffffffffffffffffff163373ffffffffffffffffffffffffffffffffffffffff1614610fe6576040517fadafbc9600000000000000000000000000000000000000000000000000000000815260040160405180910390fd5b8060008190555050565b60007f000000000000000000000000000000000000000000000000000000000000000073ffffffffffffffffffffffffffffffffffffffff1631905090565b8060006006600083815260200190815260200160002090503373ffffffffffffffffffffffffffffffffffffffff168160010160009054906101000a900473ffffffffffffffffffffffffffffffffffffffff1673ffffffffffffffffffffffffffffffffffffffff16146110d0576040517ff864ae5900000000000000000000000000000000000000000000000000000000815260040160405180910390fd5b6000600660008581526020019081526020016000209050600160048111156110fb576110fa612aaa565b5b81600a0160009054906101000a900460ff16600481111561111f5761111e612aaa565b5b1415801561116357506002600481111561113c5761113b612aaa565b5b81600a0160009054906101000a900460ff1660048111156111605761115f612aaa565b5b14155b1561119a576040517fadafbc9600000000000000000000000000000000000000000000000000000000815260040160405180910390fd5b8060010160009054906101000a900473ffffffffffffffffffffffffffffffffffffffff1673ffffffffffffffffffffffffffffffffffffffff163373ffffffffffffffffffffffffffffffffffffffff1614611223576040517ff864ae5900000000000000000000000000000000000000000000000000000000815260040160405180910390fd5b600481600a0160006101000a81548160ff0219169083600481111561124b5761124a612aaa565b5b021790555061125984612375565b3373ffffffffffffffffffffffffffffffffffffffff167fa00565430f3e0378018049de79b214a549b4193d49c14b535c3eef83581ebc518560405161129f9190612a65565b60405180910390a250505050565b6000600460019054906101000a900473ffffffffffffffffffffffffffffffffffffffff16905090565b6060600060055467ffffffffffffffff8111156112f7576112f6613025565b5b60405190808252806020026020018201604052801561133057816020015b61131d61262c565b8152602001906001900390816113155790505b50905060005b60055481101561174157600060066000838152602001908152602001600020905080604051806101a0016040529081600082015481526020016001820160009054906101000a900473ffffffffffffffffffffffffffffffffffffffff1673ffffffffffffffffffffffffffffffffffffffff1673ffffffffffffffffffffffffffffffffffffffff1681526020016002820180546113d4906132c5565b80601f0160208091040260200160405190810160405280929190818152602001828054611400906132c5565b801561144d5780601f106114225761010080835404028352916020019161144d565b820191906000526020600020905b81548152906001019060200180831161143057829003601f168201915b50505050508152602001600382018054611466906132c5565b80601f0160208091040260200160405190810160405280929190818152602001828054611492906132c5565b80156114df5780601f106114b4576101008083540402835291602001916114df565b820191906000526020600020905b8154815290600101906020018083116114c257829003601f168201915b50505050508152602001600482015481526020016005820154815260200160068201548152602001600782018054611516906132c5565b80601f0160208091040260200160405190810160405280929190818152602001828054611542906132c5565b801561158f5780601f106115645761010080835404028352916020019161158f565b820191906000526020600020905b81548152906001019060200180831161157257829003601f168201915b505050505081526020016008820180548060200260200160405190810160405280929190818152602001828054801561161d57602002820191906000526020600020905b8160009054906101000a900473ffffffffffffffffffffffffffffffffffffffff1673ffffffffffffffffffffffffffffffffffffffff16815260200190600101908083116115d3575b505050505081526020016009820180548060200260200160405190810160405280929190818152602001828054801561167557602002820191906000526020600020905b815481526020019060010190808311611661575b50505050508152602001600a820160009054906101000a900460ff1660048111156116a3576116a2612aaa565b5b60048111156116b5576116b4612aaa565b5b8152602001600a820160019054906101000a900460ff1660048111156116de576116dd612aaa565b5b60048111156116f0576116ef612aaa565b5b8152602001600a820160029054906101000a900460ff161515151581525050838381518110611722576117216133b9565b5b6020026020010181905250508080611739906133e8565b915050611336565b508091505090565b8260006006600083815260200190815260200160002090503373ffffffffffffffffffffffffffffffffffffffff168160010160009054906101000a900473ffffffffffffffffffffffffffffffffffffffff1673ffffffffffffffffffffffffffffffffffffffff16146117ea576040517ff864ae5900000000000000000000000000000000000000000000000000000000815260040160405180910390fd5b60006006600087815260200190815260200160002090506002600481111561181557611814612aaa565b5b81600a0160009054906101000a900460ff16600481111561183957611838612aaa565b5b14611870576040517fadafbc9600000000000000000000000000000000000000000000000000000000815260040160405180910390fd5b3373ffffffffffffffffffffffffffffffffffffffff168160010160009054906101000a900473ffffffffffffffffffffffffffffffffffffffff1673ffffffffffffffffffffffffffffffffffffffff16146118f9576040517ff864ae5900000000000000000000000000000000000000000000000000000000815260040160405180910390fd5b6000600254426119099190613430565b9050858260040181905550848260050181905550600082600a0160006101000a81548160ff0219169083600481111561194557611944612aaa565b5b0217905550611953856124e2565b804261195f9190613430565b6002819055507f5b0c82513cc7f1f8087a09ca71440f01a3e4bbc6c46495f1004842a1bc1dede087878760405161199893929190613359565b60405180910390a150505050505050565b60008054905090565b600160009054906101000a900473ffffffffffffffffffffffffffffffffffffffff1673ffffffffffffffffffffffffffffffffffffffff163373ffffffffffffffffffffffffffffffffffffffff1614611a39576040517fadafbc9600000000000000000000000000000000000000000000000000000000815260040160405180910390fd5b600060066000838152602001908152602001600020905060005b81600001548111611ab557611a6781612579565b15611aa257611aa181600284600a0160006101000a81548160ff02191690836004811115611a9857611a97612aaa565b5b02179055611dc9565b5b8080611aad906133e8565b915050611a53565b505050565b600080841015611af6576040517fadafbc9600000000000000000000000000000000000000000000000000000000815260040160405180910390fd5b42831015611b30576040517fadafbc9600000000000000000000000000000000000000000000000000000000815260040160405180910390fd5b600060066000600554815260200190815260200160002090506005548160000181905550338160010160006101000a81548173ffffffffffffffffffffffffffffffffffffffff021916908373ffffffffffffffffffffffffffffffffffffffff16021790555086816002019081611ba89190613606565b5085816003019081611bba9190613606565b508481600401819055508381600501819055506000816006018190555082816007019081611be89190613606565b50600067ffffffffffffffff811115611c0457611c03613025565b5b604051908082528060200260200182016040528015611c325781602001602082028036833780820191505090505b50816008019080519060200190611c4a9291906126d0565b50600067ffffffffffffffff811115611c6657611c65613025565b5b604051908082528060200260200182016040528015611c945781602001602082028036833780820191505090505b50816009019080519060200190611cac92919061275a565b508781600a0160016101000a81548160ff02191690836004811115611cd457611cd3612aaa565b5b0217905550611ce2846124e2565b600081600a0160006101000a81548160ff02191690836004811115611d0a57611d09612aaa565b5b02179055506001600760008360000154815260200190815260200160002060006101000a81548160ff02191690831515021790555060056000815480929190611d52906133e8565b91905055503373ffffffffffffffffffffffffffffffffffffffff167f944e037155521668ebad86014260c643358e41123a5b998e18489a10ff11ea036005548a8888604051611da594939291906136e7565b60405180910390a26001600554611dbc9190613430565b9150509695505050505050565b600160009054906101000a900473ffffffffffffffffffffffffffffffffffffffff1673ffffffffffffffffffffffffffffffffffffffff163373ffffffffffffffffffffffffffffffffffffffff1614611e50576040517fadafbc9600000000000000000000000000000000000000000000000000000000815260040160405180910390fd5b60006006600084815260200190815260200160002090506007600084815260200190815260200160002060009054906101000a900460ff16611ebe576040517fadafbc9600000000000000000000000000000000000000000000000000000000815260040160405180910390fd5b8181600a0160006101000a81548160ff02191690836004811115611ee557611ee4612aaa565b5b0217905550505050565b6000600354600254611f019190613325565b421015611f3a576040517f9bcfc26d00000000000000000000000000000000000000000000000000000000815260040160405180910390fd5b426006600084815260200190815260200160002060050154611f5c9190613430565b9050919050565b60055481565b8060006006600083815260200190815260200160002090503373ffffffffffffffffffffffffffffffffffffffff168160010160009054906101000a900473ffffffffffffffffffffffffffffffffffffffff1673ffffffffffffffffffffffffffffffffffffffff161461200a576040517ff864ae5900000000000000000000000000000000000000000000000000000000815260040160405180910390fd5b60006006600085815260200190815260200160002090506002600481111561203557612034612aaa565b5b81600a0160009054906101000a900460ff16600481111561205957612058612aaa565b5b148061209a57506003600481111561207457612073612aaa565b5b81600a0160009054906101000a900460ff16600481111561209857612097612aaa565b5b145b806120d957506004808111156120b3576120b2612aaa565b5b81600a0160009054906101000a900460ff1660048111156120d7576120d6612aaa565b5b145b1561210f576040517e4636d200000000000000000000000000000000000000000000000000000000815260040160405180910390fd5b8060050154421061214c576040517f9bcfc26d00000000000000000000000000000000000000000000000000000000815260040160405180910390fd5b600281600a0160006101000a81548160ff0219169083600481111561217457612173612aaa565b5b0217905550612182846121fa565b8060010160009054906101000a900473ffffffffffffffffffffffffffffffffffffffff1673ffffffffffffffffffffffffffffffffffffffff167f7499a145dac6baa4e55462de49ee33dd9526640a55399705c6eb4daebcd7f577856040516121ec9190612a65565b60405180910390a250505050565b60006006600083815260200190815260200160002090506003600481111561222557612224612aaa565b5b81600a0160009054906101000a900460ff16600481111561224957612248612aaa565b5b1415801561228d57506002600481111561226657612265612aaa565b5b81600a0160009054906101000a900460ff16600481111561228a57612289612aaa565b5b14155b156122c4576040517fadafbc9600000000000000000000000000000000000000000000000000000000815260040160405180910390fd5b60005b8160090180549050811015612353576123408260080182815481106122ef576122ee6133b9565b5b9060005260206000200160009054906101000a900473ffffffffffffffffffffffffffffffffffffffff168360090183815481106123305761232f6133b9565b5b90600052602060002001546125b1565b808061234b906133e8565b9150506122c7565b50600181600a0160026101000a81548160ff0219169083151502179055505050565b600060066000838152602001908152602001600020905060048081111561239f5761239e612aaa565b5b81600a0160009054906101000a900460ff1660048111156123c3576123c2612aaa565b5b146123fa576040517fadafbc9600000000000000000000000000000000000000000000000000000000815260040160405180910390fd5b6000816006015490506000606460005483612415919061372c565b61241f919061379d565b90506000818361242f9190613430565b905061245f8460010160009054906101000a900473ffffffffffffffffffffffffffffffffffffffff16826125b1565b6124897f0000000000000000000000000000000000000000000000000000000000000000836125b1565b3373ffffffffffffffffffffffffffffffffffffffff167f9a3866b92eb53bcee95d3202fbccf24673a278e8d2cad1f2acbc529703caf3e28683426040516124d393929190613359565b60405180910390a25050505050565b600081101561251d576040517fadafbc9600000000000000000000000000000000000000000000000000000000815260040160405180910390fd5b426002819055506201518081612533919061372c565b6003819055507ff51f7437278a388702c00ddb04f3e0a5df923ea1e998d3ae4bdf278947d2e21660025460035460405161256e929190613390565b60405180910390a150565b600080600660008481526020019081526020016000209050428160050154116125a65760019150506125ac565b60009150505b919050565b60008273ffffffffffffffffffffffffffffffffffffffff16826040516125d7906137ff565b60006040518083038185875af1925050503d8060008114612614576040519150601f19603f3d011682016040523d82523d6000602084013e612619565b606091505b505090508061262757600080fd5b505050565b604051806101a0016040528060008152602001600073ffffffffffffffffffffffffffffffffffffffff1681526020016060815260200160608152602001600081526020016000815260200160008152602001606081526020016060815260200160608152602001600060048111156126a8576126a7612aaa565b5b8152602001600060048111156126c1576126c0612aaa565b5b81526020016000151581525090565b828054828255906000526020600020908101928215612749579160200282015b828111156127485782518260006101000a81548173ffffffffffffffffffffffffffffffffffffffff021916908373ffffffffffffffffffffffffffffffffffffffff160217905550916020019190600101906126f0565b5b50905061275691906127a7565b5090565b828054828255906000526020600020908101928215612796579160200282015b8281111561279557825182559160200191906001019061277a565b5b5090506127a391906127a7565b5090565b5b808211156127c05760008160009055506001016127a8565b5090565b6000604051905090565b600080fd5b600080fd5b6000819050919050565b6127eb816127d8565b81146127f657600080fd5b50565b600081359050612808816127e2565b92915050565b600060208284031215612824576128236127ce565b5b6000612832848285016127f9565b91505092915050565b600081519050919050565b600082825260208201905092915050565b6000819050602082019050919050565b600073ffffffffffffffffffffffffffffffffffffffff82169050919050565b600061289282612867565b9050919050565b6128a281612887565b82525050565b60006128b48383612899565b60208301905092915050565b6000602082019050919050565b60006128d88261283b565b6128e28185612846565b93506128ed83612857565b8060005b8381101561291e57815161290588826128a8565b9750612910836128c0565b9250506001810190506128f1565b5085935050505092915050565b600081519050919050565b600082825260208201905092915050565b6000819050602082019050919050565b612960816127d8565b82525050565b60006129728383612957565b60208301905092915050565b6000602082019050919050565b60006129968261292b565b6129a08185612936565b93506129ab83612947565b8060005b838110156129dc5781516129c38882612966565b97506129ce8361297e565b9250506001810190506129af565b5085935050505092915050565b60006040820190508181036000830152612a0381856128cd565b90508181036020830152612a17818461298b565b90509392505050565b60008115159050919050565b612a3581612a20565b82525050565b6000602082019050612a506000830184612a2c565b92915050565b612a5f816127d8565b82525050565b6000602082019050612a7a6000830184612a56565b92915050565b612a8981612887565b82525050565b6000602082019050612aa46000830184612a80565b92915050565b7f4e487b7100000000000000000000000000000000000000000000000000000000600052602160045260246000fd5b60058110612aea57612ae9612aaa565b5b50565b6000819050612afb82612ad9565b919050565b6000612b0b82612aed565b9050919050565b612b1b81612b00565b82525050565b6000602082019050612b366000830184612b12565b92915050565b6000819050919050565b6000612b61612b5c612b5784612867565b612b3c565b612867565b9050919050565b6000612b7382612b46565b9050919050565b6000612b8582612b68565b9050919050565b612b9581612b7a565b82525050565b6000602082019050612bb06000830184612b8c565b92915050565b600081519050919050565b600082825260208201905092915050565b6000819050602082019050919050565b600081519050919050565b600082825260208201905092915050565b60005b83811015612c1c578082015181840152602081019050612c01565b60008484015250505050565b6000601f19601f8301169050919050565b6000612c4482612be2565b612c4e8185612bed565b9350612c5e818560208601612bfe565b612c6781612c28565b840191505092915050565b600082825260208201905092915050565b6000612c8e8261283b565b612c988185612c72565b9350612ca383612857565b8060005b83811015612cd4578151612cbb88826128a8565b9750612cc6836128c0565b925050600181019050612ca7565b5085935050505092915050565b600082825260208201905092915050565b6000612cfd8261292b565b612d078185612ce1565b9350612d1283612947565b8060005b83811015612d43578151612d2a8882612966565b9750612d358361297e565b925050600181019050612d16565b5085935050505092915050565b612d5981612b00565b82525050565b60058110612d7057612d6f612aaa565b5b50565b6000819050612d8182612d5f565b919050565b6000612d9182612d73565b9050919050565b612da181612d86565b82525050565b612db081612a20565b82525050565b60006101a083016000830151612dcf6000860182612957565b506020830151612de26020860182612899565b5060408301518482036040860152612dfa8282612c39565b91505060608301518482036060860152612e148282612c39565b9150506080830151612e296080860182612957565b5060a0830151612e3c60a0860182612957565b5060c0830151612e4f60c0860182612957565b5060e083015184820360e0860152612e678282612c39565b915050610100830151848203610100860152612e838282612c83565b915050610120830151848203610120860152612e9f8282612cf2565b915050610140830151612eb6610140860182612d50565b50610160830151612ecb610160860182612d98565b50610180830151612ee0610180860182612da7565b508091505092915050565b6000612ef78383612db6565b905092915050565b6000602082019050919050565b6000612f1782612bb6565b612f218185612bc1565b935083602082028501612f3385612bd2565b8060005b85811015612f6f5784840389528151612f508582612eeb565b9450612f5b83612eff565b925060208a01995050600181019050612f37565b50829750879550505050505092915050565b60006020820190508181036000830152612f9b8184612f0c565b905092915050565b600080600060608486031215612fbc57612fbb6127ce565b5b6000612fca868287016127f9565b9350506020612fdb868287016127f9565b9250506040612fec868287016127f9565b9150509250925092565b6005811061300357600080fd5b50565b60008135905061301581612ff6565b92915050565b600080fd5b600080fd5b7f4e487b7100000000000000000000000000000000000000000000000000000000600052604160045260246000fd5b61305d82612c28565b810181811067ffffffffffffffff8211171561307c5761307b613025565b5b80604052505050565b600061308f6127c4565b905061309b8282613054565b919050565b600067ffffffffffffffff8211156130bb576130ba613025565b5b6130c482612c28565b9050602081019050919050565b82818337600083830152505050565b60006130f36130ee846130a0565b613085565b90508281526020810184848401111561310f5761310e613020565b5b61311a8482856130d1565b509392505050565b600082601f8301126131375761313661301b565b5b81356131478482602086016130e0565b91505092915050565b60008060008060008060c0878903121561316d5761316c6127ce565b5b600061317b89828a01613006565b965050602087013567ffffffffffffffff81111561319c5761319b6127d3565b5b6131a889828a01613122565b955050604087013567ffffffffffffffff8111156131c9576131c86127d3565b5b6131d589828a01613122565b94505060606131e689828a016127f9565b93505060806131f789828a016127f9565b92505060a087013567ffffffffffffffff811115613218576132176127d3565b5b61322489828a01613122565b9150509295509295509295565b6005811061323e57600080fd5b50565b60008135905061325081613231565b92915050565b6000806040838503121561326d5761326c6127ce565b5b600061327b858286016127f9565b925050602061328c85828601613241565b9150509250929050565b7f4e487b7100000000000000000000000000000000000000000000000000000000600052602260045260246000fd5b600060028204905060018216806132dd57607f821691505b6020821081036132f0576132ef613296565b5b50919050565b7f4e487b7100000000000000000000000000000000000000000000000000000000600052601160045260246000fd5b6000613330826127d8565b915061333b836127d8565b9250828201905080821115613353576133526132f6565b5b92915050565b600060608201905061336e6000830186612a56565b61337b6020830185612a56565b6133886040830184612a56565b949350505050565b60006040820190506133a56000830185612a56565b6133b26020830184612a56565b9392505050565b7f4e487b7100000000000000000000000000000000000000000000000000000000600052603260045260246000fd5b60006133f3826127d8565b91507fffffffffffffffffffffffffffffffffffffffffffffffffffffffffffffffff8203613425576134246132f6565b5b600182019050919050565b600061343b826127d8565b9150613446836127d8565b925082820390508181111561345e5761345d6132f6565b5b92915050565b60008190508160005260206000209050919050565b60006020601f8301049050919050565b600082821b905092915050565b6000600883026134c67fffffffffffffffffffffffffffffffffffffffffffffffffffffffffffffffff82613489565b6134d08683613489565b95508019841693508086168417925050509392505050565b60006135036134fe6134f9846127d8565b612b3c565b6127d8565b9050919050565b6000819050919050565b61351d836134e8565b6135316135298261350a565b848454613496565b825550505050565b600090565b613546613539565b613551818484613514565b505050565b5b818110156135755761356a60008261353e565b600181019050613557565b5050565b601f8211156135ba5761358b81613464565b61359484613479565b810160208510156135a3578190505b6135b76135af85613479565b830182613556565b50505b505050565b600082821c905092915050565b60006135dd600019846008026135bf565b1980831691505092915050565b60006135f683836135cc565b9150826002028217905092915050565b61360f82612be2565b67ffffffffffffffff81111561362857613627613025565b5b61363282546132c5565b61363d828285613579565b600060209050601f831160018114613670576000841561365e578287015190505b61366885826135ea565b8655506136d0565b601f19841661367e86613464565b60005b828110156136a657848901518255600182019150602085019450602081019050613681565b868310156136c357848901516136bf601f8916826135cc565b8355505b6001600288020188555050505b505050505050565b6136e181612d86565b82525050565b60006080820190506136fc6000830187612a56565b61370960208301866136d8565b6137166040830185612a56565b6137236060830184612a56565b95945050505050565b6000613737826127d8565b9150613742836127d8565b9250828202613750816127d8565b91508282048414831517613767576137666132f6565b5b5092915050565b7f4e487b7100000000000000000000000000000000000000000000000000000000600052601260045260246000fd5b60006137a8826127d8565b91506137b3836127d8565b9250826137c3576137c261376e565b5b828204905092915050565b600081905092915050565b50565b60006137e96000836137ce565b91506137f4826137d9565b600082019050919050565b600061380a826137dc565b915081905091905056fea26469706673582212204abaa15c13dfed9a84be13dc97772ba93e9f7a03d515442b3711bb42318b2cd464736f6c63430008110033",
  "devdoc": {
    "kind": "dev",
    "methods": {},
    "version": 1
  },
  "userdoc": {
    "kind": "user",
    "methods": {},
    "version": 1
  },
  "storageLayout": {
    "storage": [
      {
        "astId": 146,
        "contract": "contracts/CrowdFund.sol:CrowdFund",
        "label": "i_feePercent",
        "offset": 0,
        "slot": "0",
        "type": "t_uint256"
      },
      {
        "astId": 148,
        "contract": "contracts/CrowdFund.sol:CrowdFund",
        "label": "i_owner",
        "offset": 0,
        "slot": "1",
        "type": "t_address"
      },
      {
        "astId": 150,
        "contract": "contracts/CrowdFund.sol:CrowdFund",
        "label": "startTime",
        "offset": 0,
        "slot": "2",
        "type": "t_uint256"
      },
      {
        "astId": 152,
        "contract": "contracts/CrowdFund.sol:CrowdFund",
        "label": "duration",
        "offset": 0,
        "slot": "3",
        "type": "t_uint256"
      },
      {
        "astId": 155,
        "contract": "contracts/CrowdFund.sol:CrowdFund",
        "label": "campaignStatus",
        "offset": 0,
        "slot": "4",
        "type": "t_enum(CampaignStatus)167"
      },
      {
        "astId": 158,
        "contract": "contracts/CrowdFund.sol:CrowdFund",
        "label": "s_priceFeed",
        "offset": 1,
        "slot": "4",
        "type": "t_contract(AggregatorV3Interface)45"
      },
      {
        "astId": 161,
        "contract": "contracts/CrowdFund.sol:CrowdFund",
        "label": "s_numberOfCampaigns",
        "offset": 0,
        "slot": "5",
        "type": "t_uint256"
      },
      {
        "astId": 338,
        "contract": "contracts/CrowdFund.sol:CrowdFund",
        "label": "s_campaigns",
        "offset": 0,
        "slot": "6",
        "type": "t_mapping(t_uint256,t_struct(Campaign)204_storage)"
      },
      {
        "astId": 342,
        "contract": "contracts/CrowdFund.sol:CrowdFund",
        "label": "s_campaignExist",
        "offset": 0,
        "slot": "7",
        "type": "t_mapping(t_uint256,t_bool)"
      }
    ],
    "types": {
      "t_address": {
        "encoding": "inplace",
        "label": "address",
        "numberOfBytes": "20"
      },
      "t_array(t_address)dyn_storage": {
        "base": "t_address",
        "encoding": "dynamic_array",
        "label": "address[]",
        "numberOfBytes": "32"
      },
      "t_array(t_uint256)dyn_storage": {
        "base": "t_uint256",
        "encoding": "dynamic_array",
        "label": "uint256[]",
        "numberOfBytes": "32"
      },
      "t_bool": {
        "encoding": "inplace",
        "label": "bool",
        "numberOfBytes": "1"
      },
      "t_contract(AggregatorV3Interface)45": {
        "encoding": "inplace",
        "label": "contract AggregatorV3Interface",
        "numberOfBytes": "20"
      },
      "t_enum(CampaignStatus)167": {
        "encoding": "inplace",
        "label": "enum CrowdFund.CampaignStatus",
        "numberOfBytes": "1"
      },
      "t_enum(Category)173": {
        "encoding": "inplace",
        "label": "enum CrowdFund.Category",
        "numberOfBytes": "1"
      },
      "t_mapping(t_uint256,t_bool)": {
        "encoding": "mapping",
        "key": "t_uint256",
        "label": "mapping(uint256 => bool)",
        "numberOfBytes": "32",
        "value": "t_bool"
      },
      "t_mapping(t_uint256,t_struct(Campaign)204_storage)": {
        "encoding": "mapping",
        "key": "t_uint256",
        "label": "mapping(uint256 => struct CrowdFund.Campaign)",
        "numberOfBytes": "32",
        "value": "t_struct(Campaign)204_storage"
      },
      "t_string_storage": {
        "encoding": "bytes",
        "label": "string",
        "numberOfBytes": "32"
      },
      "t_struct(Campaign)204_storage": {
        "encoding": "inplace",
        "label": "struct CrowdFund.Campaign",
        "members": [
          {
            "astId": 175,
            "contract": "contracts/CrowdFund.sol:CrowdFund",
            "label": "id",
            "offset": 0,
            "slot": "0",
            "type": "t_uint256"
          },
          {
            "astId": 177,
            "contract": "contracts/CrowdFund.sol:CrowdFund",
            "label": "owner",
            "offset": 0,
            "slot": "1",
            "type": "t_address"
          },
          {
            "astId": 179,
            "contract": "contracts/CrowdFund.sol:CrowdFund",
            "label": "title",
            "offset": 0,
            "slot": "2",
            "type": "t_string_storage"
          },
          {
            "astId": 181,
            "contract": "contracts/CrowdFund.sol:CrowdFund",
            "label": "description",
            "offset": 0,
            "slot": "3",
            "type": "t_string_storage"
          },
          {
            "astId": 183,
            "contract": "contracts/CrowdFund.sol:CrowdFund",
            "label": "target",
            "offset": 0,
            "slot": "4",
            "type": "t_uint256"
          },
          {
            "astId": 185,
            "contract": "contracts/CrowdFund.sol:CrowdFund",
            "label": "deadline",
            "offset": 0,
            "slot": "5",
            "type": "t_uint256"
          },
          {
            "astId": 187,
            "contract": "contracts/CrowdFund.sol:CrowdFund",
            "label": "amountCollected",
            "offset": 0,
            "slot": "6",
            "type": "t_uint256"
          },
          {
            "astId": 189,
            "contract": "contracts/CrowdFund.sol:CrowdFund",
            "label": "image",
            "offset": 0,
            "slot": "7",
            "type": "t_string_storage"
          },
          {
            "astId": 192,
            "contract": "contracts/CrowdFund.sol:CrowdFund",
            "label": "donators",
            "offset": 0,
            "slot": "8",
            "type": "t_array(t_address)dyn_storage"
          },
          {
            "astId": 195,
            "contract": "contracts/CrowdFund.sol:CrowdFund",
            "label": "donations",
            "offset": 0,
            "slot": "9",
            "type": "t_array(t_uint256)dyn_storage"
          },
          {
            "astId": 198,
            "contract": "contracts/CrowdFund.sol:CrowdFund",
            "label": "status",
            "offset": 0,
            "slot": "10",
            "type": "t_enum(CampaignStatus)167"
          },
          {
            "astId": 201,
            "contract": "contracts/CrowdFund.sol:CrowdFund",
            "label": "category",
            "offset": 1,
            "slot": "10",
            "type": "t_enum(Category)173"
          },
          {
            "astId": 203,
            "contract": "contracts/CrowdFund.sol:CrowdFund",
            "label": "refunded",
            "offset": 2,
            "slot": "10",
            "type": "t_bool"
          }
        ],
        "numberOfBytes": "352"
      },
      "t_uint256": {
        "encoding": "inplace",
        "label": "uint256",
        "numberOfBytes": "32"
      }
    }
  }
}