{
  "address": "0x48975453b00Fb9Aa1a882Dcc39607D3959CC4907",
  "abi": [
    {
      "inputs": [
        {
          "internalType": "address",
          "name": "_feeAccount",
          "type": "address"
        },
        {
          "internalType": "uint256",
          "name": "_feePercent",
          "type": "uint256"
        },
        {
          "internalType": "address",
          "name": "priceFeeAddress",
          "type": "address"
        }
      ],
      "stateMutability": "nonpayable",
      "type": "constructor"
    },
    {
      "inputs": [],
      "name": "CrowdFund__Deadline",
      "type": "error"
    },
    {
      "inputs": [],
      "name": "CrowdFund__Ended",
      "type": "error"
    },
    {
      "inputs": [],
      "name": "CrowdFund__NotOwner",
      "type": "error"
    },
    {
      "inputs": [],
      "name": "CrowdFund__Required",
      "type": "error"
    },
    {
      "anonymous": false,
      "inputs": [
        {
          "indexed": false,
          "internalType": "uint256",
          "name": "id",
          "type": "uint256"
        },
        {
          "indexed": true,
          "internalType": "address",
          "name": "creator",
          "type": "address"
        },
        {
          "indexed": false,
          "internalType": "uint256",
          "name": "timestamp",
          "type": "uint256"
        }
      ],
      "name": "CancelCampaign",
      "type": "event"
    },
    {
      "anonymous": false,
      "inputs": [
        {
          "indexed": false,
          "internalType": "uint256",
          "name": "id",
          "type": "uint256"
        },
        {
          "indexed": true,
          "internalType": "address",
          "name": "creator",
          "type": "address"
        },
        {
          "indexed": false,
          "internalType": "enum CrowdFund.Category",
          "name": "category",
          "type": "uint8"
        },
        {
          "indexed": false,
          "internalType": "uint256",
          "name": "target",
          "type": "uint256"
        },
        {
          "indexed": false,
          "internalType": "uint256",
          "name": "deadline",
          "type": "uint256"
        }
      ],
      "name": "CreatedCampaign",
      "type": "event"
    },
    {
      "anonymous": false,
      "inputs": [
        {
          "indexed": false,
          "internalType": "uint256",
          "name": "id",
          "type": "uint256"
        },
        {
          "indexed": true,
          "internalType": "address",
          "name": "donator",
          "type": "address"
        },
        {
          "indexed": false,
          "internalType": "uint256",
          "name": "value",
          "type": "uint256"
        },
        {
          "indexed": false,
          "internalType": "uint256",
          "name": "timestamp",
          "type": "uint256"
        }
      ],
      "name": "DonatedCampaign",
      "type": "event"
    },
    {
      "anonymous": false,
      "inputs": [
        {
          "indexed": false,
          "internalType": "uint256",
          "name": "id",
          "type": "uint256"
        },
        {
          "indexed": true,
          "internalType": "address",
          "name": "creator",
          "type": "address"
        },
        {
          "indexed": false,
          "internalType": "uint256",
          "name": "donations",
          "type": "uint256"
        },
        {
          "indexed": false,
          "internalType": "uint256",
          "name": "timestamp",
          "type": "uint256"
        }
      ],
      "name": "PaidOutCampaign",
      "type": "event"
    },
    {
      "anonymous": false,
      "inputs": [
        {
          "indexed": false,
          "internalType": "uint256",
          "name": "id",
          "type": "uint256"
        },
        {
          "indexed": true,
          "internalType": "address",
          "name": "creator",
          "type": "address"
        }
      ],
      "name": "RefundCampaign",
      "type": "event"
    },
    {
      "anonymous": false,
      "inputs": [
        {
          "indexed": false,
          "internalType": "uint256",
          "name": "id",
          "type": "uint256"
        },
        {
          "indexed": false,
          "internalType": "bool",
          "name": "expired",
          "type": "bool"
        }
      ],
      "name": "TimerExpired",
      "type": "event"
    },
    {
      "anonymous": false,
      "inputs": [
        {
          "indexed": false,
          "internalType": "uint256",
          "name": "startTime",
          "type": "uint256"
        },
        {
          "indexed": false,
          "internalType": "uint256",
          "name": "duration",
          "type": "uint256"
        }
      ],
      "name": "TimerStarted",
      "type": "event"
    },
    {
      "anonymous": false,
      "inputs": [
        {
          "indexed": false,
          "internalType": "uint256",
          "name": "id",
          "type": "uint256"
        },
        {
          "indexed": false,
          "internalType": "uint256",
          "name": "newTarget",
          "type": "uint256"
        },
        {
          "indexed": false,
          "internalType": "uint256",
          "name": "newDeadline",
          "type": "uint256"
        }
      ],
      "name": "UpdatedCampaign",
      "type": "event"
    },
    {
      "anonymous": false,
      "inputs": [
        {
          "indexed": false,
          "internalType": "uint256",
          "name": "id",
          "type": "uint256"
        },
        {
          "indexed": true,
          "internalType": "address",
          "name": "creator",
          "type": "address"
        }
      ],
      "name": "WithdrawCampaign",
      "type": "event"
    },
    {
      "inputs": [
        {
          "internalType": "uint256",
          "name": "_id",
          "type": "uint256"
        }
      ],
      "name": "cancelCampaign",
      "outputs": [],
      "stateMutability": "nonpayable",
      "type": "function"
    },
    {
      "inputs": [
        {
          "internalType": "enum CrowdFund.Category",
          "name": "_category",
          "type": "uint8"
        },
        {
          "internalType": "string",
          "name": "_title",
          "type": "string"
        },
        {
          "internalType": "string",
          "name": "_description",
          "type": "string"
        },
        {
          "internalType": "uint256",
          "name": "_target",
          "type": "uint256"
        },
        {
          "internalType": "uint256",
          "name": "_deadline",
          "type": "uint256"
        },
        {
          "internalType": "string",
          "name": "_image",
          "type": "string"
        }
      ],
      "name": "createCampaign",
      "outputs": [
        {
          "internalType": "uint256",
          "name": "",
          "type": "uint256"
        }
      ],
      "stateMutability": "nonpayable",
      "type": "function"
    },
    {
      "inputs": [
        {
          "internalType": "uint256",
          "name": "_id",
          "type": "uint256"
        }
      ],
      "name": "donateToCampaign",
      "outputs": [],
      "stateMutability": "payable",
      "type": "function"
    },
    {
      "inputs": [
        {
          "internalType": "uint256",
          "name": "_id",
          "type": "uint256"
        }
      ],
      "name": "getBalance",
      "outputs": [
        {
          "internalType": "uint256",
          "name": "",
          "type": "uint256"
        }
      ],
      "stateMutability": "view",
      "type": "function"
    },
    {
      "inputs": [
        {
          "internalType": "uint256",
          "name": "_id",
          "type": "uint256"
        }
      ],
      "name": "getCampaign",
      "outputs": [
        {
          "components": [
            {
              "internalType": "uint256",
              "name": "id",
              "type": "uint256"
            },
            {
              "internalType": "address",
              "name": "owner",
              "type": "address"
            },
            {
              "internalType": "string",
              "name": "title",
              "type": "string"
            },
            {
              "internalType": "string",
              "name": "description",
              "type": "string"
            },
            {
              "internalType": "uint256",
              "name": "target",
              "type": "uint256"
            },
            {
              "internalType": "uint256",
              "name": "deadline",
              "type": "uint256"
            },
            {
              "internalType": "uint256",
              "name": "amountCollected",
              "type": "uint256"
            },
            {
              "internalType": "string",
              "name": "image",
              "type": "string"
            },
            {
              "internalType": "address[]",
              "name": "donators",
              "type": "address[]"
            },
            {
              "internalType": "uint256[]",
              "name": "donations",
              "type": "uint256[]"
            },
            {
              "internalType": "enum CrowdFund.CampaignStatus",
              "name": "status",
              "type": "uint8"
            },
            {
              "internalType": "enum CrowdFund.Category",
              "name": "category",
              "type": "uint8"
            },
            {
              "internalType": "bool",
              "name": "refunded",
              "type": "bool"
            }
          ],
          "internalType": "struct CrowdFund.Campaign",
          "name": "",
          "type": "tuple"
        }
      ],
      "stateMutability": "view",
      "type": "function"
    },
    {
      "inputs": [],
      "name": "getCampaigns",
      "outputs": [
        {
          "components": [
            {
              "internalType": "uint256",
              "name": "id",
              "type": "uint256"
            },
            {
              "internalType": "address",
              "name": "owner",
              "type": "address"
            },
            {
              "internalType": "string",
              "name": "title",
              "type": "string"
            },
            {
              "internalType": "string",
              "name": "description",
              "type": "string"
            },
            {
              "internalType": "uint256",
              "name": "target",
              "type": "uint256"
            },
            {
              "internalType": "uint256",
              "name": "deadline",
              "type": "uint256"
            },
            {
              "internalType": "uint256",
              "name": "amountCollected",
              "type": "uint256"
            },
            {
              "internalType": "string",
              "name": "image",
              "type": "string"
            },
            {
              "internalType": "address[]",
              "name": "donators",
              "type": "address[]"
            },
            {
              "internalType": "uint256[]",
              "name": "donations",
              "type": "uint256[]"
            },
            {
              "internalType": "enum CrowdFund.CampaignStatus",
              "name": "status",
              "type": "uint8"
            },
            {
              "internalType": "enum CrowdFund.Category",
              "name": "category",
              "type": "uint8"
            },
            {
              "internalType": "bool",
              "name": "refunded",
              "type": "bool"
            }
          ],
          "internalType": "struct CrowdFund.Campaign[]",
          "name": "",
          "type": "tuple[]"
        }
      ],
      "stateMutability": "view",
      "type": "function"
    },
    {
      "inputs": [],
      "name": "getContractBalance",
      "outputs": [
        {
          "internalType": "uint256",
          "name": "",
          "type": "uint256"
        }
      ],
      "stateMutability": "view",
      "type": "function"
    },
    {
      "inputs": [
        {
          "internalType": "uint256",
          "name": "_id",
          "type": "uint256"
        }
      ],
      "name": "getDonators",
      "outputs": [
        {
          "internalType": "address[]",
          "name": "",
          "type": "address[]"
        },
        {
          "internalType": "uint256[]",
          "name": "",
          "type": "uint256[]"
        }
      ],
      "stateMutability": "view",
      "type": "function"
    },
    {
      "inputs": [],
      "name": "getFeeAccount",
      "outputs": [
        {
          "internalType": "address",
          "name": "",
          "type": "address"
        }
      ],
      "stateMutability": "view",
      "type": "function"
    },
    {
      "inputs": [],
      "name": "getFeePercent",
      "outputs": [
        {
          "internalType": "uint256",
          "name": "",
          "type": "uint256"
        }
      ],
      "stateMutability": "view",
      "type": "function"
    },
    {
      "inputs": [],
      "name": "getPriceFeed",
      "outputs": [
        {
          "internalType": "contract AggregatorV3Interface",
          "name": "",
          "type": "address"
        }
      ],
      "stateMutability": "view",
      "type": "function"
    },
    {
      "inputs": [
        {
          "internalType": "uint256",
          "name": "_id",
          "type": "uint256"
        }
      ],
      "name": "getRefundStatus",
      "outputs": [
        {
          "internalType": "bool",
          "name": "",
          "type": "bool"
        }
      ],
      "stateMutability": "view",
      "type": "function"
    },
    {
      "inputs": [
        {
          "internalType": "uint256",
          "name": "_id",
          "type": "uint256"
        }
      ],
      "name": "getRemainingTime",
      "outputs": [
        {
          "internalType": "uint256",
          "name": "",
          "type": "uint256"
        }
      ],
      "stateMutability": "view",
      "type": "function"
    },
    {
      "inputs": [
        {
          "internalType": "uint256",
          "name": "_id",
          "type": "uint256"
        }
      ],
      "name": "getStatus",
      "outputs": [
        {
          "internalType": "enum CrowdFund.CampaignStatus",
          "name": "_status",
          "type": "uint8"
        }
      ],
      "stateMutability": "view",
      "type": "function"
    },
    {
      "inputs": [
        {
          "internalType": "uint256",
          "name": "_id",
          "type": "uint256"
        }
      ],
      "name": "refundCampaign",
      "outputs": [],
      "stateMutability": "nonpayable",
      "type": "function"
    },
    {
      "inputs": [
        {
          "internalType": "uint256",
          "name": "",
          "type": "uint256"
        }
      ],
      "name": "s_campaignExist",
      "outputs": [
        {
          "internalType": "bool",
          "name": "",
          "type": "bool"
        }
      ],
      "stateMutability": "view",
      "type": "function"
    },
    {
      "inputs": [],
      "name": "s_numberOfCampaigns",
      "outputs": [
        {
          "internalType": "uint256",
          "name": "",
          "type": "uint256"
        }
      ],
      "stateMutability": "view",
      "type": "function"
    },
    {
      "inputs": [
        {
          "internalType": "uint256",
          "name": "_fee",
          "type": "uint256"
        }
      ],
      "name": "setFee",
      "outputs": [],
      "stateMutability": "nonpayable",
      "type": "function"
    },
    {
      "inputs": [
        {
          "internalType": "uint256",
          "name": "_id",
          "type": "uint256"
        },
        {
          "internalType": "uint256",
          "name": "_newTarget",
          "type": "uint256"
        },
        {
          "internalType": "uint256",
          "name": "_newDeadline",
          "type": "uint256"
        }
      ],
      "name": "updateCampaign",
      "outputs": [],
      "stateMutability": "nonpayable",
      "type": "function"
    },
    {
      "inputs": [],
      "name": "updateCampaignStatus",
      "outputs": [],
      "stateMutability": "nonpayable",
      "type": "function"
    },
    {
      "inputs": [
        {
          "internalType": "uint256",
          "name": "_id",
          "type": "uint256"
        }
      ],
      "name": "withdrawCampaign",
      "outputs": [],
      "stateMutability": "payable",
      "type": "function"
    },
    {
      "inputs": [],
      "name": "withdrawFromContract",
      "outputs": [],
      "stateMutability": "nonpayable",
      "type": "function"
    }
  ],
  "transactionHash": "0x7837a216bf7fd0887167bd7984d59e5c5e20172184e6c090ba82ea9b890a1a8c",
  "args": [
    "0x0E128580d848fB51849ab6564467A9BA79B4820c",
    10,
    "0xD4a33860578De61DBAbDc8BFdb98FD742fA7028e"
  ],
  "numDeployments": 16,
  "solcInputHash": "02189b69c0a0ffed01fafb1eb9721838",
  "bytecode": "0x60a060405260006005553480156200001657600080fd5b50604051620040ed380380620040ed83398181016040528101906200003c9190620001a7565b8273ffffffffffffffffffffffffffffffffffffffff1660808173ffffffffffffffffffffffffffffffffffffffff16815250508160008190555033600160006101000a81548173ffffffffffffffffffffffffffffffffffffffff021916908373ffffffffffffffffffffffffffffffffffffffff16021790555080600460016101000a81548173ffffffffffffffffffffffffffffffffffffffff021916908373ffffffffffffffffffffffffffffffffffffffff16021790555050505062000203565b600080fd5b600073ffffffffffffffffffffffffffffffffffffffff82169050919050565b6000620001348262000107565b9050919050565b620001468162000127565b81146200015257600080fd5b50565b60008151905062000166816200013b565b92915050565b6000819050919050565b62000181816200016c565b81146200018d57600080fd5b50565b600081519050620001a18162000176565b92915050565b600080600060608486031215620001c357620001c262000102565b5b6000620001d38682870162000155565b9350506020620001e68682870162000190565b9250506040620001f98682870162000155565b9150509250925092565b608051613ec06200022d6000396000818161101a015281816115cb01526127af0152613ec06000f3fe6080604052600436106101355760003560e01c806369fe0e2d116100ab578063a6b036331161006f578063a6b036331461041f578063a78103221461044a578063be74264d14610473578063cad240e51461049e578063f487a65c146104db578063f59a9bb01461050657610135565b806369fe0e2d1461036d5780636f9fb98a146103965780637684fc86146103c1578063820d3124146103dd5780639e87a5cd146103f457610135565b806342a4fda8116100fd57806342a4fda81461026c57806345598b4a146102885780634614be9f146102b15780635598f8cc146102dc5780635c622a0e146103195780635f589e421461035657610135565b80630fa91fa91461013a578063106b487114610178578063181e0124146101b55780631e010439146101f2578063359d24111461022f575b600080fd5b34801561014657600080fd5b50610161600480360381019061015c9190612c83565b61052f565b60405161016f929190612e5e565b60405180910390f35b34801561018457600080fd5b5061019f600480360381019061019a9190612c83565b610641565b6040516101ac9190612eb0565b60405180910390f35b3480156101c157600080fd5b506101dc60048036038101906101d79190612c83565b610a1e565b6040516101e99190612eda565b60405180910390f35b3480156101fe57600080fd5b5061021960048036038101906102149190612c83565b610b06565b6040516102269190612eda565b60405180910390f35b34801561023b57600080fd5b5061025660048036038101906102519190612c83565b610b5d565b6040516102639190612eb0565b60405180910390f35b61028660048036038101906102819190612c83565b610b7d565b005b34801561029457600080fd5b506102af60048036038101906102aa9190612c83565b610dce565b005b3480156102bd57600080fd5b506102c6611016565b6040516102d39190612f04565b60405180910390f35b3480156102e857600080fd5b5061030360048036038101906102fe9190612c83565b61103e565b6040516103109190613290565b60405180910390f35b34801561032557600080fd5b50610340600480360381019061033b9190612c83565b611417565b60405161034d91906132c1565b60405180910390f35b34801561036257600080fd5b5061036b611444565b005b34801561037957600080fd5b50610394600480360381019061038f9190612c83565b611536565b005b3480156103a257600080fd5b506103ab6115c7565b6040516103b89190612eda565b60405180910390f35b6103db60048036038101906103d69190612c83565b611606565b005b3480156103e957600080fd5b506103f2611884565b005b34801561040057600080fd5b50610409611948565b604051610416919061333b565b60405180910390f35b34801561042b57600080fd5b50610434611972565b604051610441919061354d565b60405180910390f35b34801561045657600080fd5b50610471600480360381019061046c919061356f565b611de4565b005b34801561047f57600080fd5b50610488611f96565b6040516104959190612eda565b60405180910390f35b3480156104aa57600080fd5b506104c560048036038101906104c0919061371c565b611f9f565b6040516104d29190612eda565b60405180910390f35b3480156104e757600080fd5b506104f06122ae565b6040516104fd9190612eda565b60405180910390f35b34801561051257600080fd5b5061052d60048036038101906105289190612c83565b6122b4565b005b6060806006600084815260200190815260200160002060080160066000858152602001908152602001600020600901818054806020026020016040519081016040528092919081815260200182805480156105df57602002820191906000526020600020905b8160009054906101000a900473ffffffffffffffffffffffffffffffffffffffff1673ffffffffffffffffffffffffffffffffffffffff1681526020019060010190808311610595575b505050505091508080548060200260200160405190810160405280929190818152602001828054801561063157602002820191906000526020600020905b81548152602001906001019080831161061d575b5050505050905091509150915091565b60008060066000848152602001908152602001600020604051806101a0016040529081600082015481526020016001820160009054906101000a900473ffffffffffffffffffffffffffffffffffffffff1673ffffffffffffffffffffffffffffffffffffffff1673ffffffffffffffffffffffffffffffffffffffff1681526020016002820180546106d39061382c565b80601f01602080910402602001604051908101604052809291908181526020018280546106ff9061382c565b801561074c5780601f106107215761010080835404028352916020019161074c565b820191906000526020600020905b81548152906001019060200180831161072f57829003601f168201915b505050505081526020016003820180546107659061382c565b80601f01602080910402602001604051908101604052809291908181526020018280546107919061382c565b80156107de5780601f106107b3576101008083540402835291602001916107de565b820191906000526020600020905b8154815290600101906020018083116107c157829003601f168201915b505050505081526020016004820154815260200160058201548152602001600682015481526020016007820180546108159061382c565b80601f01602080910402602001604051908101604052809291908181526020018280546108419061382c565b801561088e5780601f106108635761010080835404028352916020019161088e565b820191906000526020600020905b81548152906001019060200180831161087157829003601f168201915b505050505081526020016008820180548060200260200160405190810160405280929190818152602001828054801561091c57602002820191906000526020600020905b8160009054906101000a900473ffffffffffffffffffffffffffffffffffffffff1673ffffffffffffffffffffffffffffffffffffffff16815260200190600101908083116108d2575b505050505081526020016009820180548060200260200160405190810160405280929190818152602001828054801561097457602002820191906000526020600020905b815481526020019060010190808311610960575b50505050508152602001600a820160009054906101000a900460ff1660048111156109a2576109a161308d565b5b60048111156109b4576109b361308d565b5b8152602001600a820160019054906101000a900460ff1660048111156109dd576109dc61308d565b5b60048111156109ef576109ee61308d565b5b8152602001600a820160029054906101000a900460ff1615151515815250509050806101800151915050919050565b60008060025411610a64576040517f08c379a0000000000000000000000000000000000000000000000000000000008152600401610a5b906138ba565b60405180910390fd5b60006006600084815260200190815260200160002090506007600084815260200190815260200160002060009054906101000a900460ff16610ad2576040517fadafbc9600000000000000000000000000000000000000000000000000000000815260040160405180910390fd5b60008160050154421015610af757428260050154610af09190613909565b9050610afc565b600090505b8092505050919050565b60006006600083815260200190815260200160002060010160009054906101000a900473ffffffffffffffffffffffffffffffffffffffff1673ffffffffffffffffffffffffffffffffffffffff16319050919050565b60076020528060005260406000206000915054906101000a900460ff1681565b60006004811115610b9157610b9061308d565b5b600460009054906101000a900460ff166004811115610bb357610bb261308d565b5b14610bea576040517f9bcfc26d00000000000000000000000000000000000000000000000000000000815260040160405180910390fd5b600060066000838152602001908152602001600020905060003490506007600084815260200190815260200160002060009054906101000a900460ff16610c5d576040517fadafbc9600000000000000000000000000000000000000000000000000000000815260040160405180910390fd5b81600801339080600181540180825580915050600190039060005260206000200160009091909190916101000a81548173ffffffffffffffffffffffffffffffffffffffff021916908373ffffffffffffffffffffffffffffffffffffffff1602179055508160090181908060018154018082558091505060019003906000526020600020016000909190919091505580826006016000828254610d01919061393d565b925050819055503373ffffffffffffffffffffffffffffffffffffffff167f655351f1bf449402dc56dbd84887de4bf8ee15fb1e442c4c68199b7fc5b6ad60848342604051610d5293929190613971565b60405180910390a28160040154826006015410610d9b57600182600a0160006101000a81548160ff02191690836004811115610d9157610d9061308d565b5b0217905550610dc9565b600082600a0160006101000a81548160ff02191690836004811115610dc357610dc261308d565b5b02179055505b505050565b8060006006600083815260200190815260200160002090503373ffffffffffffffffffffffffffffffffffffffff168160010160009054906101000a900473ffffffffffffffffffffffffffffffffffffffff1673ffffffffffffffffffffffffffffffffffffffff1614610e6f576040517ff864ae5900000000000000000000000000000000000000000000000000000000815260040160405180910390fd5b60006004811115610e8357610e8261308d565b5b600460009054906101000a900460ff166004811115610ea557610ea461308d565b5b14610edc576040517f9bcfc26d00000000000000000000000000000000000000000000000000000000815260040160405180910390fd5b60006006600085815260200190815260200160002090503373ffffffffffffffffffffffffffffffffffffffff168160010160009054906101000a900473ffffffffffffffffffffffffffffffffffffffff1673ffffffffffffffffffffffffffffffffffffffff1614610f7c576040517ff864ae5900000000000000000000000000000000000000000000000000000000815260040160405180910390fd5b600381600a0160006101000a81548160ff02191690836004811115610fa457610fa361308d565b5b0217905550600081600601541115610fc057610fbf84612545565b5b3373ffffffffffffffffffffffffffffffffffffffff167fdaf42e53ca58d1d28d99e69c2f45565d7fbf704482f0641b81eeb42ef07462f385426040516110089291906139a8565b60405180910390a250505050565b60007f0000000000000000000000000000000000000000000000000000000000000000905090565b611046612aa1565b60066000838152602001908152602001600020604051806101a0016040529081600082015481526020016001820160009054906101000a900473ffffffffffffffffffffffffffffffffffffffff1673ffffffffffffffffffffffffffffffffffffffff1673ffffffffffffffffffffffffffffffffffffffff1681526020016002820180546110d59061382c565b80601f01602080910402602001604051908101604052809291908181526020018280546111019061382c565b801561114e5780601f106111235761010080835404028352916020019161114e565b820191906000526020600020905b81548152906001019060200180831161113157829003601f168201915b505050505081526020016003820180546111679061382c565b80601f01602080910402602001604051908101604052809291908181526020018280546111939061382c565b80156111e05780601f106111b5576101008083540402835291602001916111e0565b820191906000526020600020905b8154815290600101906020018083116111c357829003601f168201915b505050505081526020016004820154815260200160058201548152602001600682015481526020016007820180546112179061382c565b80601f01602080910402602001604051908101604052809291908181526020018280546112439061382c565b80156112905780601f1061126557610100808354040283529160200191611290565b820191906000526020600020905b81548152906001019060200180831161127357829003601f168201915b505050505081526020016008820180548060200260200160405190810160405280929190818152602001828054801561131e57602002820191906000526020600020905b8160009054906101000a900473ffffffffffffffffffffffffffffffffffffffff1673ffffffffffffffffffffffffffffffffffffffff16815260200190600101908083116112d4575b505050505081526020016009820180548060200260200160405190810160405280929190818152602001828054801561137657602002820191906000526020600020905b815481526020019060010190808311611362575b50505050508152602001600a820160009054906101000a900460ff1660048111156113a4576113a361308d565b5b60048111156113b6576113b561308d565b5b8152602001600a820160019054906101000a900460ff1660048111156113df576113de61308d565b5b60048111156113f1576113f061308d565b5b8152602001600a820160029054906101000a900460ff1615151515815250509050919050565b600060066000838152602001908152602001600020600a0160009054906101000a900460ff169050919050565b600160009054906101000a900473ffffffffffffffffffffffffffffffffffffffff1673ffffffffffffffffffffffffffffffffffffffff163373ffffffffffffffffffffffffffffffffffffffff16146114cb576040517fadafbc9600000000000000000000000000000000000000000000000000000000815260040160405180910390fd5b600160009054906101000a900473ffffffffffffffffffffffffffffffffffffffff1673ffffffffffffffffffffffffffffffffffffffff166108fc479081150290604051600060405180830381858888f19350505050158015611533573d6000803e3d6000fd5b50565b600160009054906101000a900473ffffffffffffffffffffffffffffffffffffffff1673ffffffffffffffffffffffffffffffffffffffff163373ffffffffffffffffffffffffffffffffffffffff16146115bd576040517fadafbc9600000000000000000000000000000000000000000000000000000000815260040160405180910390fd5b8060008190555050565b60007f000000000000000000000000000000000000000000000000000000000000000073ffffffffffffffffffffffffffffffffffffffff1631905090565b8060006006600083815260200190815260200160002090503373ffffffffffffffffffffffffffffffffffffffff168160010160009054906101000a900473ffffffffffffffffffffffffffffffffffffffff1673ffffffffffffffffffffffffffffffffffffffff16146116a7576040517ff864ae5900000000000000000000000000000000000000000000000000000000815260040160405180910390fd5b6000600660008581526020019081526020016000209050600160048111156116d2576116d161308d565b5b81600a0160009054906101000a900460ff1660048111156116f6576116f561308d565b5b1415801561173a5750600260048111156117135761171261308d565b5b81600a0160009054906101000a900460ff1660048111156117375761173661308d565b5b14155b15611771576040517fadafbc9600000000000000000000000000000000000000000000000000000000815260040160405180910390fd5b8060010160009054906101000a900473ffffffffffffffffffffffffffffffffffffffff1673ffffffffffffffffffffffffffffffffffffffff163373ffffffffffffffffffffffffffffffffffffffff16146117fa576040517ff864ae5900000000000000000000000000000000000000000000000000000000815260040160405180910390fd5b600481600a0160006101000a81548160ff021916908360048111156118225761182161308d565b5b0217905550611830846126c0565b3373ffffffffffffffffffffffffffffffffffffffff167fa00565430f3e0378018049de79b214a549b4193d49c14b535c3eef83581ebc51856040516118769190612eda565b60405180910390a250505050565b600160009054906101000a900473ffffffffffffffffffffffffffffffffffffffff1673ffffffffffffffffffffffffffffffffffffffff163373ffffffffffffffffffffffffffffffffffffffff161461190b576040517fadafbc9600000000000000000000000000000000000000000000000000000000815260040160405180910390fd5b60005b600554811015611945576119218161282d565b156119325761193181600261285b565b5b808061193d906139d1565b91505061190e565b50565b6000600460019054906101000a900473ffffffffffffffffffffffffffffffffffffffff16905090565b6060600060055467ffffffffffffffff811115611992576119916135f1565b5b6040519080825280602002602001820160405280156119cb57816020015b6119b8612aa1565b8152602001906001900390816119b05790505b50905060005b600554811015611ddc57600060066000838152602001908152602001600020905080604051806101a0016040529081600082015481526020016001820160009054906101000a900473ffffffffffffffffffffffffffffffffffffffff1673ffffffffffffffffffffffffffffffffffffffff1673ffffffffffffffffffffffffffffffffffffffff168152602001600282018054611a6f9061382c565b80601f0160208091040260200160405190810160405280929190818152602001828054611a9b9061382c565b8015611ae85780601f10611abd57610100808354040283529160200191611ae8565b820191906000526020600020905b815481529060010190602001808311611acb57829003601f168201915b50505050508152602001600382018054611b019061382c565b80601f0160208091040260200160405190810160405280929190818152602001828054611b2d9061382c565b8015611b7a5780601f10611b4f57610100808354040283529160200191611b7a565b820191906000526020600020905b815481529060010190602001808311611b5d57829003601f168201915b50505050508152602001600482015481526020016005820154815260200160068201548152602001600782018054611bb19061382c565b80601f0160208091040260200160405190810160405280929190818152602001828054611bdd9061382c565b8015611c2a5780601f10611bff57610100808354040283529160200191611c2a565b820191906000526020600020905b815481529060010190602001808311611c0d57829003601f168201915b5050505050815260200160088201805480602002602001604051908101604052809291908181526020018280548015611cb857602002820191906000526020600020905b8160009054906101000a900473ffffffffffffffffffffffffffffffffffffffff1673ffffffffffffffffffffffffffffffffffffffff1681526020019060010190808311611c6e575b5050505050815260200160098201805480602002602001604051908101604052809291908181526020018280548015611d1057602002820191906000526020600020905b815481526020019060010190808311611cfc575b50505050508152602001600a820160009054906101000a900460ff166004811115611d3e57611d3d61308d565b5b6004811115611d5057611d4f61308d565b5b8152602001600a820160019054906101000a900460ff166004811115611d7957611d7861308d565b5b6004811115611d8b57611d8a61308d565b5b8152602001600a820160029054906101000a900460ff161515151581525050838381518110611dbd57611dbc613a19565b5b6020026020010181905250508080611dd4906139d1565b9150506119d1565b508091505090565b8260006006600083815260200190815260200160002090503373ffffffffffffffffffffffffffffffffffffffff168160010160009054906101000a900473ffffffffffffffffffffffffffffffffffffffff1673ffffffffffffffffffffffffffffffffffffffff1614611e85576040517ff864ae5900000000000000000000000000000000000000000000000000000000815260040160405180910390fd5b600060066000878152602001908152602001600020905060026004811115611eb057611eaf61308d565b5b81600a0160009054906101000a900460ff166004811115611ed457611ed361308d565b5b14611f0b576040517fadafbc9600000000000000000000000000000000000000000000000000000000815260040160405180910390fd5b848160040181905550838160050181905550600081600a0160006101000a81548160ff02191690836004811115611f4557611f4461308d565b5b0217905550611f5384612981565b7f5b0c82513cc7f1f8087a09ca71440f01a3e4bbc6c46495f1004842a1bc1dede0868686604051611f8693929190613971565b60405180910390a1505050505050565b60008054905090565b600080841015611fdb576040517fadafbc9600000000000000000000000000000000000000000000000000000000815260040160405180910390fd5b42831015612015576040517fadafbc9600000000000000000000000000000000000000000000000000000000815260040160405180910390fd5b600060066000600554815260200190815260200160002090506005548160000181905550338160010160006101000a81548173ffffffffffffffffffffffffffffffffffffffff021916908373ffffffffffffffffffffffffffffffffffffffff1602179055508681600201908161208d9190613bea565b508581600301908161209f9190613bea565b5084816004018190555083816005018190555060008160060181905550828160070190816120cd9190613bea565b50600067ffffffffffffffff8111156120e9576120e86135f1565b5b6040519080825280602002602001820160405280156121175781602001602082028036833780820191505090505b5081600801908051906020019061212f929190612b45565b50600067ffffffffffffffff81111561214b5761214a6135f1565b5b6040519080825280602002602001820160405280156121795781602001602082028036833780820191505090505b50816009019080519060200190612191929190612bcf565b508781600a0160016101000a81548160ff021916908360048111156121b9576121b861308d565b5b02179055506121c784612981565b600081600a0160006101000a81548160ff021916908360048111156121ef576121ee61308d565b5b02179055506001600760008360000154815260200190815260200160002060006101000a81548160ff02191690831515021790555060056000815480929190612237906139d1565b91905055503373ffffffffffffffffffffffffffffffffffffffff167f944e037155521668ebad86014260c643358e41123a5b998e18489a10ff11ea036005548a888860405161228a9493929190613ccb565b60405180910390a260016005546122a19190613909565b9150509695505050505050565b60055481565b8060006006600083815260200190815260200160002090503373ffffffffffffffffffffffffffffffffffffffff168160010160009054906101000a900473ffffffffffffffffffffffffffffffffffffffff1673ffffffffffffffffffffffffffffffffffffffff1614612355576040517ff864ae5900000000000000000000000000000000000000000000000000000000815260040160405180910390fd5b6000600660008581526020019081526020016000209050600260048111156123805761237f61308d565b5b81600a0160009054906101000a900460ff1660048111156123a4576123a361308d565b5b14806123e55750600360048111156123bf576123be61308d565b5b81600a0160009054906101000a900460ff1660048111156123e3576123e261308d565b5b145b8061242457506004808111156123fe576123fd61308d565b5b81600a0160009054906101000a900460ff1660048111156124225761242161308d565b5b145b1561245a576040517e4636d200000000000000000000000000000000000000000000000000000000815260040160405180910390fd5b80600501544210612497576040517f9bcfc26d00000000000000000000000000000000000000000000000000000000815260040160405180910390fd5b600281600a0160006101000a81548160ff021916908360048111156124bf576124be61308d565b5b02179055506124cd84612545565b8060010160009054906101000a900473ffffffffffffffffffffffffffffffffffffffff1673ffffffffffffffffffffffffffffffffffffffff167f7499a145dac6baa4e55462de49ee33dd9526640a55399705c6eb4daebcd7f577856040516125379190612eda565b60405180910390a250505050565b6000600660008381526020019081526020016000209050600360048111156125705761256f61308d565b5b81600a0160009054906101000a900460ff1660048111156125945761259361308d565b5b141580156125d85750600260048111156125b1576125b061308d565b5b81600a0160009054906101000a900460ff1660048111156125d5576125d461308d565b5b14155b1561260f576040517fadafbc9600000000000000000000000000000000000000000000000000000000815260040160405180910390fd5b60005b816009018054905081101561269e5761268b82600801828154811061263a57612639613a19565b5b9060005260206000200160009054906101000a900473ffffffffffffffffffffffffffffffffffffffff1683600901838154811061267b5761267a613a19565b5b9060005260206000200154612a26565b8080612696906139d1565b915050612612565b50600181600a0160026101000a81548160ff0219169083151502179055505050565b60006006600083815260200190815260200160002090506004808111156126ea576126e961308d565b5b81600a0160009054906101000a900460ff16600481111561270e5761270d61308d565b5b14612745576040517fadafbc9600000000000000000000000000000000000000000000000000000000815260040160405180910390fd5b60008160060154905060006064600054836127609190613d10565b61276a9190613d81565b90506000818361277a9190613909565b90506127aa8460010160009054906101000a900473ffffffffffffffffffffffffffffffffffffffff1682612a26565b6127d47f000000000000000000000000000000000000000000000000000000000000000083612a26565b3373ffffffffffffffffffffffffffffffffffffffff167f9a3866b92eb53bcee95d3202fbccf24673a278e8d2cad1f2acbc529703caf3e286834260405161281e93929190613971565b60405180910390a25050505050565b6000806006600084815260200190815260200160002090506000428260050154111590508092505050919050565b600160009054906101000a900473ffffffffffffffffffffffffffffffffffffffff1673ffffffffffffffffffffffffffffffffffffffff163373ffffffffffffffffffffffffffffffffffffffff16146128e2576040517fadafbc9600000000000000000000000000000000000000000000000000000000815260040160405180910390fd5b60006006600084815260200190815260200160002090506007600084815260200190815260200160002060009054906101000a900460ff16612950576040517fadafbc9600000000000000000000000000000000000000000000000000000000815260040160405180910390fd5b8181600a0160006101000a81548160ff021916908360048111156129775761297661308d565b5b0217905550505050565b600081116129c4576040517f08c379a00000000000000000000000000000000000000000000000000000000081526004016129bb90613e24565b60405180910390fd5b600062015180826129d59190613d10565b905042600281905550806003819055507ff51f7437278a388702c00ddb04f3e0a5df923ea1e998d3ae4bdf278947d2e216600254600354604051612a1a9291906139a8565b60405180910390a15050565b60008273ffffffffffffffffffffffffffffffffffffffff1682604051612a4c90613e75565b60006040518083038185875af1925050503d8060008114612a89576040519150601f19603f3d011682016040523d82523d6000602084013e612a8e565b606091505b5050905080612a9c57600080fd5b505050565b604051806101a0016040528060008152602001600073ffffffffffffffffffffffffffffffffffffffff168152602001606081526020016060815260200160008152602001600081526020016000815260200160608152602001606081526020016060815260200160006004811115612b1d57612b1c61308d565b5b815260200160006004811115612b3657612b3561308d565b5b81526020016000151581525090565b828054828255906000526020600020908101928215612bbe579160200282015b82811115612bbd5782518260006101000a81548173ffffffffffffffffffffffffffffffffffffffff021916908373ffffffffffffffffffffffffffffffffffffffff16021790555091602001919060010190612b65565b5b509050612bcb9190612c1c565b5090565b828054828255906000526020600020908101928215612c0b579160200282015b82811115612c0a578251825591602001919060010190612bef565b5b509050612c189190612c1c565b5090565b5b80821115612c35576000816000905550600101612c1d565b5090565b6000604051905090565b600080fd5b600080fd5b6000819050919050565b612c6081612c4d565b8114612c6b57600080fd5b50565b600081359050612c7d81612c57565b92915050565b600060208284031215612c9957612c98612c43565b5b6000612ca784828501612c6e565b91505092915050565b600081519050919050565b600082825260208201905092915050565b6000819050602082019050919050565b600073ffffffffffffffffffffffffffffffffffffffff82169050919050565b6000612d0782612cdc565b9050919050565b612d1781612cfc565b82525050565b6000612d298383612d0e565b60208301905092915050565b6000602082019050919050565b6000612d4d82612cb0565b612d578185612cbb565b9350612d6283612ccc565b8060005b83811015612d93578151612d7a8882612d1d565b9750612d8583612d35565b925050600181019050612d66565b5085935050505092915050565b600081519050919050565b600082825260208201905092915050565b6000819050602082019050919050565b612dd581612c4d565b82525050565b6000612de78383612dcc565b60208301905092915050565b6000602082019050919050565b6000612e0b82612da0565b612e158185612dab565b9350612e2083612dbc565b8060005b83811015612e51578151612e388882612ddb565b9750612e4383612df3565b925050600181019050612e24565b5085935050505092915050565b60006040820190508181036000830152612e788185612d42565b90508181036020830152612e8c8184612e00565b90509392505050565b60008115159050919050565b612eaa81612e95565b82525050565b6000602082019050612ec56000830184612ea1565b92915050565b612ed481612c4d565b82525050565b6000602082019050612eef6000830184612ecb565b92915050565b612efe81612cfc565b82525050565b6000602082019050612f196000830184612ef5565b92915050565b600081519050919050565b600082825260208201905092915050565b60005b83811015612f59578082015181840152602081019050612f3e565b60008484015250505050565b6000601f19601f8301169050919050565b6000612f8182612f1f565b612f8b8185612f2a565b9350612f9b818560208601612f3b565b612fa481612f65565b840191505092915050565b600082825260208201905092915050565b6000612fcb82612cb0565b612fd58185612faf565b9350612fe083612ccc565b8060005b83811015613011578151612ff88882612d1d565b975061300383612d35565b925050600181019050612fe4565b5085935050505092915050565b600082825260208201905092915050565b600061303a82612da0565b613044818561301e565b935061304f83612dbc565b8060005b838110156130805781516130678882612ddb565b975061307283612df3565b925050600181019050613053565b5085935050505092915050565b7f4e487b7100000000000000000000000000000000000000000000000000000000600052602160045260246000fd5b600581106130cd576130cc61308d565b5b50565b60008190506130de826130bc565b919050565b60006130ee826130d0565b9050919050565b6130fe816130e3565b82525050565b600581106131155761311461308d565b5b50565b600081905061312682613104565b919050565b600061313682613118565b9050919050565b6131468161312b565b82525050565b61315581612e95565b82525050565b60006101a0830160008301516131746000860182612dcc565b5060208301516131876020860182612d0e565b506040830151848203604086015261319f8282612f76565b915050606083015184820360608601526131b98282612f76565b91505060808301516131ce6080860182612dcc565b5060a08301516131e160a0860182612dcc565b5060c08301516131f460c0860182612dcc565b5060e083015184820360e086015261320c8282612f76565b9150506101008301518482036101008601526132288282612fc0565b915050610120830151848203610120860152613244828261302f565b91505061014083015161325b6101408601826130f5565b5061016083015161327061016086018261313d565b5061018083015161328561018086018261314c565b508091505092915050565b600060208201905081810360008301526132aa818461315b565b905092915050565b6132bb816130e3565b82525050565b60006020820190506132d660008301846132b2565b92915050565b6000819050919050565b60006133016132fc6132f784612cdc565b6132dc565b612cdc565b9050919050565b6000613313826132e6565b9050919050565b600061332582613308565b9050919050565b6133358161331a565b82525050565b6000602082019050613350600083018461332c565b92915050565b600081519050919050565b600082825260208201905092915050565b6000819050602082019050919050565b60006101a08301600083015161339b6000860182612dcc565b5060208301516133ae6020860182612d0e565b50604083015184820360408601526133c68282612f76565b915050606083015184820360608601526133e08282612f76565b91505060808301516133f56080860182612dcc565b5060a083015161340860a0860182612dcc565b5060c083015161341b60c0860182612dcc565b5060e083015184820360e08601526134338282612f76565b91505061010083015184820361010086015261344f8282612fc0565b91505061012083015184820361012086015261346b828261302f565b9150506101408301516134826101408601826130f5565b5061016083015161349761016086018261313d565b506101808301516134ac61018086018261314c565b508091505092915050565b60006134c38383613382565b905092915050565b6000602082019050919050565b60006134e382613356565b6134ed8185613361565b9350836020820285016134ff85613372565b8060005b8581101561353b578484038952815161351c85826134b7565b9450613527836134cb565b925060208a01995050600181019050613503565b50829750879550505050505092915050565b6000602082019050818103600083015261356781846134d8565b905092915050565b60008060006060848603121561358857613587612c43565b5b600061359686828701612c6e565b93505060206135a786828701612c6e565b92505060406135b886828701612c6e565b9150509250925092565b600581106135cf57600080fd5b50565b6000813590506135e1816135c2565b92915050565b600080fd5b600080fd5b7f4e487b7100000000000000000000000000000000000000000000000000000000600052604160045260246000fd5b61362982612f65565b810181811067ffffffffffffffff82111715613648576136476135f1565b5b80604052505050565b600061365b612c39565b90506136678282613620565b919050565b600067ffffffffffffffff821115613687576136866135f1565b5b61369082612f65565b9050602081019050919050565b82818337600083830152505050565b60006136bf6136ba8461366c565b613651565b9050828152602081018484840111156136db576136da6135ec565b5b6136e684828561369d565b509392505050565b600082601f830112613703576137026135e7565b5b81356137138482602086016136ac565b91505092915050565b60008060008060008060c0878903121561373957613738612c43565b5b600061374789828a016135d2565b965050602087013567ffffffffffffffff81111561376857613767612c48565b5b61377489828a016136ee565b955050604087013567ffffffffffffffff81111561379557613794612c48565b5b6137a189828a016136ee565b94505060606137b289828a01612c6e565b93505060806137c389828a01612c6e565b92505060a087013567ffffffffffffffff8111156137e4576137e3612c48565b5b6137f089828a016136ee565b9150509295509295509295565b7f4e487b7100000000000000000000000000000000000000000000000000000000600052602260045260246000fd5b6000600282049050600182168061384457607f821691505b602082108103613857576138566137fd565b5b50919050565b600082825260208201905092915050565b7f53746172742074696d65206e6f74207374617274656420796574000000000000600082015250565b60006138a4601a8361385d565b91506138af8261386e565b602082019050919050565b600060208201905081810360008301526138d381613897565b9050919050565b7f4e487b7100000000000000000000000000000000000000000000000000000000600052601160045260246000fd5b600061391482612c4d565b915061391f83612c4d565b9250828203905081811115613937576139366138da565b5b92915050565b600061394882612c4d565b915061395383612c4d565b925082820190508082111561396b5761396a6138da565b5b92915050565b60006060820190506139866000830186612ecb565b6139936020830185612ecb565b6139a06040830184612ecb565b949350505050565b60006040820190506139bd6000830185612ecb565b6139ca6020830184612ecb565b9392505050565b60006139dc82612c4d565b91507fffffffffffffffffffffffffffffffffffffffffffffffffffffffffffffffff8203613a0e57613a0d6138da565b5b600182019050919050565b7f4e487b7100000000000000000000000000000000000000000000000000000000600052603260045260246000fd5b60008190508160005260206000209050919050565b60006020601f8301049050919050565b600082821b905092915050565b600060088302613aaa7fffffffffffffffffffffffffffffffffffffffffffffffffffffffffffffffff82613a6d565b613ab48683613a6d565b95508019841693508086168417925050509392505050565b6000613ae7613ae2613add84612c4d565b6132dc565b612c4d565b9050919050565b6000819050919050565b613b0183613acc565b613b15613b0d82613aee565b848454613a7a565b825550505050565b600090565b613b2a613b1d565b613b35818484613af8565b505050565b5b81811015613b5957613b4e600082613b22565b600181019050613b3b565b5050565b601f821115613b9e57613b6f81613a48565b613b7884613a5d565b81016020851015613b87578190505b613b9b613b9385613a5d565b830182613b3a565b50505b505050565b600082821c905092915050565b6000613bc160001984600802613ba3565b1980831691505092915050565b6000613bda8383613bb0565b9150826002028217905092915050565b613bf382612f1f565b67ffffffffffffffff811115613c0c57613c0b6135f1565b5b613c16825461382c565b613c21828285613b5d565b600060209050601f831160018114613c545760008415613c42578287015190505b613c4c8582613bce565b865550613cb4565b601f198416613c6286613a48565b60005b82811015613c8a57848901518255600182019150602085019450602081019050613c65565b86831015613ca75784890151613ca3601f891682613bb0565b8355505b6001600288020188555050505b505050505050565b613cc58161312b565b82525050565b6000608082019050613ce06000830187612ecb565b613ced6020830186613cbc565b613cfa6040830185612ecb565b613d076060830184612ecb565b95945050505050565b6000613d1b82612c4d565b9150613d2683612c4d565b9250828202613d3481612c4d565b91508282048414831517613d4b57613d4a6138da565b5b5092915050565b7f4e487b7100000000000000000000000000000000000000000000000000000000600052601260045260246000fd5b6000613d8c82612c4d565b9150613d9783612c4d565b925082613da757613da6613d52565b5b828204905092915050565b7f446561646c696e65206d7573742062652067726561746572207468616e207a6560008201527f726f000000000000000000000000000000000000000000000000000000000000602082015250565b6000613e0e60228361385d565b9150613e1982613db2565b604082019050919050565b60006020820190508181036000830152613e3d81613e01565b9050919050565b600081905092915050565b50565b6000613e5f600083613e44565b9150613e6a82613e4f565b600082019050919050565b6000613e8082613e52565b915081905091905056fea264697066735822122083058e0185650d0970a825cb19a54a27c45db03dbda5aa911a8f311524515ddb64736f6c63430008110033",
  "devdoc": {
    "kind": "dev",
    "methods": {},
    "version": 1
  },
  "userdoc": {
    "kind": "user",
    "methods": {},
    "version": 1
  },
  "storageLayout": {
    "storage": [
      {
        "astId": 64,
        "contract": "contracts/CrowdFund.sol:CrowdFund",
        "label": "i_feePercent",
        "offset": 0,
        "slot": "0",
        "type": "t_uint256"
      },
      {
        "astId": 66,
        "contract": "contracts/CrowdFund.sol:CrowdFund",
        "label": "i_owner",
        "offset": 0,
        "slot": "1",
        "type": "t_address"
      },
      {
        "astId": 68,
        "contract": "contracts/CrowdFund.sol:CrowdFund",
        "label": "startTime",
        "offset": 0,
        "slot": "2",
        "type": "t_uint256"
      },
      {
        "astId": 70,
        "contract": "contracts/CrowdFund.sol:CrowdFund",
        "label": "duration",
        "offset": 0,
        "slot": "3",
        "type": "t_uint256"
      },
      {
        "astId": 73,
        "contract": "contracts/CrowdFund.sol:CrowdFund",
        "label": "campaignStatus",
        "offset": 0,
        "slot": "4",
        "type": "t_enum(CampaignStatus)85"
      },
      {
        "astId": 76,
        "contract": "contracts/CrowdFund.sol:CrowdFund",
        "label": "s_priceFeed",
        "offset": 1,
        "slot": "4",
        "type": "t_contract(AggregatorV3Interface)45"
      },
      {
        "astId": 79,
        "contract": "contracts/CrowdFund.sol:CrowdFund",
        "label": "s_numberOfCampaigns",
        "offset": 0,
        "slot": "5",
        "type": "t_uint256"
      },
      {
        "astId": 246,
        "contract": "contracts/CrowdFund.sol:CrowdFund",
        "label": "s_campaigns",
        "offset": 0,
        "slot": "6",
        "type": "t_mapping(t_uint256,t_struct(Campaign)122_storage)"
      },
      {
        "astId": 250,
        "contract": "contracts/CrowdFund.sol:CrowdFund",
        "label": "s_campaignExist",
        "offset": 0,
        "slot": "7",
        "type": "t_mapping(t_uint256,t_bool)"
      }
    ],
    "types": {
      "t_address": {
        "encoding": "inplace",
        "label": "address",
        "numberOfBytes": "20"
      },
      "t_array(t_address)dyn_storage": {
        "base": "t_address",
        "encoding": "dynamic_array",
        "label": "address[]",
        "numberOfBytes": "32"
      },
      "t_array(t_uint256)dyn_storage": {
        "base": "t_uint256",
        "encoding": "dynamic_array",
        "label": "uint256[]",
        "numberOfBytes": "32"
      },
      "t_bool": {
        "encoding": "inplace",
        "label": "bool",
        "numberOfBytes": "1"
      },
      "t_contract(AggregatorV3Interface)45": {
        "encoding": "inplace",
        "label": "contract AggregatorV3Interface",
        "numberOfBytes": "20"
      },
      "t_enum(CampaignStatus)85": {
        "encoding": "inplace",
        "label": "enum CrowdFund.CampaignStatus",
        "numberOfBytes": "1"
      },
      "t_enum(Category)91": {
        "encoding": "inplace",
        "label": "enum CrowdFund.Category",
        "numberOfBytes": "1"
      },
      "t_mapping(t_uint256,t_bool)": {
        "encoding": "mapping",
        "key": "t_uint256",
        "label": "mapping(uint256 => bool)",
        "numberOfBytes": "32",
        "value": "t_bool"
      },
      "t_mapping(t_uint256,t_struct(Campaign)122_storage)": {
        "encoding": "mapping",
        "key": "t_uint256",
        "label": "mapping(uint256 => struct CrowdFund.Campaign)",
        "numberOfBytes": "32",
        "value": "t_struct(Campaign)122_storage"
      },
      "t_string_storage": {
        "encoding": "bytes",
        "label": "string",
        "numberOfBytes": "32"
      },
      "t_struct(Campaign)122_storage": {
        "encoding": "inplace",
        "label": "struct CrowdFund.Campaign",
        "members": [
          {
            "astId": 93,
            "contract": "contracts/CrowdFund.sol:CrowdFund",
            "label": "id",
            "offset": 0,
            "slot": "0",
            "type": "t_uint256"
          },
          {
            "astId": 95,
            "contract": "contracts/CrowdFund.sol:CrowdFund",
            "label": "owner",
            "offset": 0,
            "slot": "1",
            "type": "t_address"
          },
          {
            "astId": 97,
            "contract": "contracts/CrowdFund.sol:CrowdFund",
            "label": "title",
            "offset": 0,
            "slot": "2",
            "type": "t_string_storage"
          },
          {
            "astId": 99,
            "contract": "contracts/CrowdFund.sol:CrowdFund",
            "label": "description",
            "offset": 0,
            "slot": "3",
            "type": "t_string_storage"
          },
          {
            "astId": 101,
            "contract": "contracts/CrowdFund.sol:CrowdFund",
            "label": "target",
            "offset": 0,
            "slot": "4",
            "type": "t_uint256"
          },
          {
            "astId": 103,
            "contract": "contracts/CrowdFund.sol:CrowdFund",
            "label": "deadline",
            "offset": 0,
            "slot": "5",
            "type": "t_uint256"
          },
          {
            "astId": 105,
            "contract": "contracts/CrowdFund.sol:CrowdFund",
            "label": "amountCollected",
            "offset": 0,
            "slot": "6",
            "type": "t_uint256"
          },
          {
            "astId": 107,
            "contract": "contracts/CrowdFund.sol:CrowdFund",
            "label": "image",
            "offset": 0,
            "slot": "7",
            "type": "t_string_storage"
          },
          {
            "astId": 110,
            "contract": "contracts/CrowdFund.sol:CrowdFund",
            "label": "donators",
            "offset": 0,
            "slot": "8",
            "type": "t_array(t_address)dyn_storage"
          },
          {
            "astId": 113,
            "contract": "contracts/CrowdFund.sol:CrowdFund",
            "label": "donations",
            "offset": 0,
            "slot": "9",
            "type": "t_array(t_uint256)dyn_storage"
          },
          {
            "astId": 116,
            "contract": "contracts/CrowdFund.sol:CrowdFund",
            "label": "status",
            "offset": 0,
            "slot": "10",
            "type": "t_enum(CampaignStatus)85"
          },
          {
            "astId": 119,
            "contract": "contracts/CrowdFund.sol:CrowdFund",
            "label": "category",
            "offset": 1,
            "slot": "10",
            "type": "t_enum(Category)91"
          },
          {
            "astId": 121,
            "contract": "contracts/CrowdFund.sol:CrowdFund",
            "label": "refunded",
            "offset": 2,
            "slot": "10",
            "type": "t_bool"
          }
        ],
        "numberOfBytes": "352"
      },
      "t_uint256": {
        "encoding": "inplace",
        "label": "uint256",
        "numberOfBytes": "32"
      }
    }
  }
}