{
  "address": "0xDa537C498708d8708fEdA5D875393c4109A4B432",
  "abi": [
    {
      "inputs": [
        {
          "internalType": "address",
          "name": "_feeAccount",
          "type": "address"
        },
        {
          "internalType": "uint256",
          "name": "_feePercent",
          "type": "uint256"
        },
        {
          "internalType": "address",
          "name": "priceFeeAddress",
          "type": "address"
        }
      ],
      "stateMutability": "nonpayable",
      "type": "constructor"
    },
    {
      "inputs": [],
      "name": "CrowdFund__Deadline",
      "type": "error"
    },
    {
      "inputs": [],
      "name": "CrowdFund__Ended",
      "type": "error"
    },
    {
      "inputs": [],
      "name": "CrowdFund__NotOwner",
      "type": "error"
    },
    {
      "inputs": [],
      "name": "CrowdFund__Required",
      "type": "error"
    },
    {
      "anonymous": false,
      "inputs": [
        {
          "indexed": false,
          "internalType": "uint256",
          "name": "id",
          "type": "uint256"
        },
        {
          "indexed": true,
          "internalType": "address",
          "name": "creator",
          "type": "address"
        },
        {
          "indexed": false,
          "internalType": "uint256",
          "name": "timestamp",
          "type": "uint256"
        }
      ],
      "name": "CancelCampaign",
      "type": "event"
    },
    {
      "anonymous": false,
      "inputs": [
        {
          "indexed": false,
          "internalType": "uint256",
          "name": "id",
          "type": "uint256"
        },
        {
          "indexed": true,
          "internalType": "address",
          "name": "creator",
          "type": "address"
        },
        {
          "indexed": false,
          "internalType": "enum CrowdFund.Category",
          "name": "category",
          "type": "uint8"
        },
        {
          "indexed": false,
          "internalType": "uint256",
          "name": "target",
          "type": "uint256"
        },
        {
          "indexed": false,
          "internalType": "uint256",
          "name": "deadline",
          "type": "uint256"
        }
      ],
      "name": "CreatedCampaign",
      "type": "event"
    },
    {
      "anonymous": false,
      "inputs": [
        {
          "indexed": false,
          "internalType": "uint256",
          "name": "id",
          "type": "uint256"
        },
        {
          "indexed": true,
          "internalType": "address",
          "name": "donator",
          "type": "address"
        },
        {
          "indexed": false,
          "internalType": "uint256",
          "name": "value",
          "type": "uint256"
        },
        {
          "indexed": false,
          "internalType": "uint256",
          "name": "timestamp",
          "type": "uint256"
        }
      ],
      "name": "DonatedCampaign",
      "type": "event"
    },
    {
      "anonymous": false,
      "inputs": [
        {
          "indexed": false,
          "internalType": "uint256",
          "name": "id",
          "type": "uint256"
        },
        {
          "indexed": true,
          "internalType": "address",
          "name": "creator",
          "type": "address"
        },
        {
          "indexed": false,
          "internalType": "uint256",
          "name": "donations",
          "type": "uint256"
        },
        {
          "indexed": false,
          "internalType": "uint256",
          "name": "timestamp",
          "type": "uint256"
        }
      ],
      "name": "PaidOutCampaign",
      "type": "event"
    },
    {
      "anonymous": false,
      "inputs": [
        {
          "indexed": false,
          "internalType": "uint256",
          "name": "id",
          "type": "uint256"
        },
        {
          "indexed": true,
          "internalType": "address",
          "name": "creator",
          "type": "address"
        }
      ],
      "name": "RefundCampaign",
      "type": "event"
    },
    {
      "anonymous": false,
      "inputs": [
        {
          "indexed": false,
          "internalType": "uint256",
          "name": "startTime",
          "type": "uint256"
        },
        {
          "indexed": false,
          "internalType": "uint256",
          "name": "duration",
          "type": "uint256"
        }
      ],
      "name": "TimerStarted",
      "type": "event"
    },
    {
      "anonymous": false,
      "inputs": [
        {
          "indexed": false,
          "internalType": "uint256",
          "name": "id",
          "type": "uint256"
        },
        {
          "indexed": false,
          "internalType": "uint256",
          "name": "newTarget",
          "type": "uint256"
        },
        {
          "indexed": false,
          "internalType": "uint256",
          "name": "newDeadline",
          "type": "uint256"
        }
      ],
      "name": "UpdatedCampaign",
      "type": "event"
    },
    {
      "anonymous": false,
      "inputs": [
        {
          "indexed": false,
          "internalType": "uint256",
          "name": "id",
          "type": "uint256"
        },
        {
          "indexed": true,
          "internalType": "address",
          "name": "creator",
          "type": "address"
        }
      ],
      "name": "WithdrawCampaign",
      "type": "event"
    },
    {
      "inputs": [
        {
          "internalType": "uint256",
          "name": "_id",
          "type": "uint256"
        }
      ],
      "name": "cancelCampaign",
      "outputs": [],
      "stateMutability": "nonpayable",
      "type": "function"
    },
    {
      "inputs": [
        {
          "internalType": "bytes",
          "name": "",
          "type": "bytes"
        }
      ],
      "name": "checkUpkeep",
      "outputs": [
        {
          "internalType": "bool",
          "name": "upkeepNeeded",
          "type": "bool"
        },
        {
          "internalType": "bytes",
          "name": "performData",
          "type": "bytes"
        }
      ],
      "stateMutability": "view",
      "type": "function"
    },
    {
      "inputs": [
        {
          "internalType": "enum CrowdFund.Category",
          "name": "_category",
          "type": "uint8"
        },
        {
          "internalType": "string",
          "name": "_title",
          "type": "string"
        },
        {
          "internalType": "string",
          "name": "_description",
          "type": "string"
        },
        {
          "internalType": "uint256",
          "name": "_target",
          "type": "uint256"
        },
        {
          "internalType": "uint256",
          "name": "_deadline",
          "type": "uint256"
        },
        {
          "internalType": "string",
          "name": "_image",
          "type": "string"
        }
      ],
      "name": "createCampaign",
      "outputs": [
        {
          "internalType": "uint256",
          "name": "",
          "type": "uint256"
        }
      ],
      "stateMutability": "nonpayable",
      "type": "function"
    },
    {
      "inputs": [
        {
          "internalType": "uint256",
          "name": "_id",
          "type": "uint256"
        }
      ],
      "name": "donateToCampaign",
      "outputs": [],
      "stateMutability": "payable",
      "type": "function"
    },
    {
      "inputs": [
        {
          "internalType": "uint256",
          "name": "_id",
          "type": "uint256"
        }
      ],
      "name": "getBalance",
      "outputs": [
        {
          "internalType": "uint256",
          "name": "",
          "type": "uint256"
        }
      ],
      "stateMutability": "view",
      "type": "function"
    },
    {
      "inputs": [
        {
          "internalType": "uint256",
          "name": "_id",
          "type": "uint256"
        }
      ],
      "name": "getCampaign",
      "outputs": [
        {
          "components": [
            {
              "internalType": "uint256",
              "name": "id",
              "type": "uint256"
            },
            {
              "internalType": "address",
              "name": "owner",
              "type": "address"
            },
            {
              "internalType": "string",
              "name": "title",
              "type": "string"
            },
            {
              "internalType": "string",
              "name": "description",
              "type": "string"
            },
            {
              "internalType": "uint256",
              "name": "target",
              "type": "uint256"
            },
            {
              "internalType": "uint256",
              "name": "deadline",
              "type": "uint256"
            },
            {
              "internalType": "uint256",
              "name": "amountCollected",
              "type": "uint256"
            },
            {
              "internalType": "string",
              "name": "image",
              "type": "string"
            },
            {
              "internalType": "address[]",
              "name": "donators",
              "type": "address[]"
            },
            {
              "internalType": "uint256[]",
              "name": "donations",
              "type": "uint256[]"
            },
            {
              "internalType": "enum CrowdFund.CampaignStatus",
              "name": "status",
              "type": "uint8"
            },
            {
              "internalType": "enum CrowdFund.Category",
              "name": "category",
              "type": "uint8"
            },
            {
              "internalType": "bool",
              "name": "refunded",
              "type": "bool"
            }
          ],
          "internalType": "struct CrowdFund.Campaign",
          "name": "",
          "type": "tuple"
        }
      ],
      "stateMutability": "view",
      "type": "function"
    },
    {
      "inputs": [],
      "name": "getCampaigns",
      "outputs": [
        {
          "components": [
            {
              "internalType": "uint256",
              "name": "id",
              "type": "uint256"
            },
            {
              "internalType": "address",
              "name": "owner",
              "type": "address"
            },
            {
              "internalType": "string",
              "name": "title",
              "type": "string"
            },
            {
              "internalType": "string",
              "name": "description",
              "type": "string"
            },
            {
              "internalType": "uint256",
              "name": "target",
              "type": "uint256"
            },
            {
              "internalType": "uint256",
              "name": "deadline",
              "type": "uint256"
            },
            {
              "internalType": "uint256",
              "name": "amountCollected",
              "type": "uint256"
            },
            {
              "internalType": "string",
              "name": "image",
              "type": "string"
            },
            {
              "internalType": "address[]",
              "name": "donators",
              "type": "address[]"
            },
            {
              "internalType": "uint256[]",
              "name": "donations",
              "type": "uint256[]"
            },
            {
              "internalType": "enum CrowdFund.CampaignStatus",
              "name": "status",
              "type": "uint8"
            },
            {
              "internalType": "enum CrowdFund.Category",
              "name": "category",
              "type": "uint8"
            },
            {
              "internalType": "bool",
              "name": "refunded",
              "type": "bool"
            }
          ],
          "internalType": "struct CrowdFund.Campaign[]",
          "name": "",
          "type": "tuple[]"
        }
      ],
      "stateMutability": "view",
      "type": "function"
    },
    {
      "inputs": [],
      "name": "getContractBalance",
      "outputs": [
        {
          "internalType": "uint256",
          "name": "",
          "type": "uint256"
        }
      ],
      "stateMutability": "view",
      "type": "function"
    },
    {
      "inputs": [
        {
          "internalType": "uint256",
          "name": "_id",
          "type": "uint256"
        }
      ],
      "name": "getDonators",
      "outputs": [
        {
          "internalType": "address[]",
          "name": "",
          "type": "address[]"
        },
        {
          "internalType": "uint256[]",
          "name": "",
          "type": "uint256[]"
        }
      ],
      "stateMutability": "view",
      "type": "function"
    },
    {
      "inputs": [],
      "name": "getFeeAccount",
      "outputs": [
        {
          "internalType": "address",
          "name": "",
          "type": "address"
        }
      ],
      "stateMutability": "view",
      "type": "function"
    },
    {
      "inputs": [],
      "name": "getFeePercent",
      "outputs": [
        {
          "internalType": "uint256",
          "name": "",
          "type": "uint256"
        }
      ],
      "stateMutability": "view",
      "type": "function"
    },
    {
      "inputs": [],
      "name": "getPriceFeed",
      "outputs": [
        {
          "internalType": "contract AggregatorV3Interface",
          "name": "",
          "type": "address"
        }
      ],
      "stateMutability": "view",
      "type": "function"
    },
    {
      "inputs": [
        {
          "internalType": "uint256",
          "name": "_id",
          "type": "uint256"
        }
      ],
      "name": "getRefundStatus",
      "outputs": [
        {
          "internalType": "bool",
          "name": "",
          "type": "bool"
        }
      ],
      "stateMutability": "view",
      "type": "function"
    },
    {
      "inputs": [
        {
          "internalType": "uint256",
          "name": "_id",
          "type": "uint256"
        }
      ],
      "name": "getRemainingTime",
      "outputs": [
        {
          "internalType": "uint256",
          "name": "",
          "type": "uint256"
        }
      ],
      "stateMutability": "view",
      "type": "function"
    },
    {
      "inputs": [
        {
          "internalType": "uint256",
          "name": "_id",
          "type": "uint256"
        }
      ],
      "name": "getStatus",
      "outputs": [
        {
          "internalType": "enum CrowdFund.CampaignStatus",
          "name": "_status",
          "type": "uint8"
        }
      ],
      "stateMutability": "view",
      "type": "function"
    },
    {
      "inputs": [
        {
          "internalType": "bytes",
          "name": "performData",
          "type": "bytes"
        }
      ],
      "name": "performUpkeep",
      "outputs": [],
      "stateMutability": "nonpayable",
      "type": "function"
    },
    {
      "inputs": [
        {
          "internalType": "uint256",
          "name": "_id",
          "type": "uint256"
        }
      ],
      "name": "refundCampaign",
      "outputs": [],
      "stateMutability": "nonpayable",
      "type": "function"
    },
    {
      "inputs": [
        {
          "internalType": "uint256",
          "name": "",
          "type": "uint256"
        }
      ],
      "name": "s_campaignExist",
      "outputs": [
        {
          "internalType": "bool",
          "name": "",
          "type": "bool"
        }
      ],
      "stateMutability": "view",
      "type": "function"
    },
    {
      "inputs": [],
      "name": "s_numberOfCampaigns",
      "outputs": [
        {
          "internalType": "uint256",
          "name": "",
          "type": "uint256"
        }
      ],
      "stateMutability": "view",
      "type": "function"
    },
    {
      "inputs": [
        {
          "internalType": "uint256",
          "name": "_fee",
          "type": "uint256"
        }
      ],
      "name": "setFee",
      "outputs": [],
      "stateMutability": "nonpayable",
      "type": "function"
    },
    {
      "inputs": [
        {
          "internalType": "uint256",
          "name": "_id",
          "type": "uint256"
        },
        {
          "internalType": "uint256",
          "name": "_newTarget",
          "type": "uint256"
        },
        {
          "internalType": "uint256",
          "name": "_newDeadline",
          "type": "uint256"
        }
      ],
      "name": "updateCampaign",
      "outputs": [],
      "stateMutability": "nonpayable",
      "type": "function"
    },
    {
      "inputs": [
        {
          "internalType": "uint256",
          "name": "_id",
          "type": "uint256"
        }
      ],
      "name": "withdrawCampaign",
      "outputs": [],
      "stateMutability": "payable",
      "type": "function"
    },
    {
      "inputs": [],
      "name": "withdrawFromContract",
      "outputs": [],
      "stateMutability": "nonpayable",
      "type": "function"
    }
  ],
  "transactionHash": "0xcb053df37183cd0ac358c583de048c7191df950263bb72a55d6c89d230cf6b9c",
  "args": [
    "0x0E128580d848fB51849ab6564467A9BA79B4820c",
    10,
    "0xD4a33860578De61DBAbDc8BFdb98FD742fA7028e"
  ],
  "numDeployments": 17,
  "solcInputHash": "60d32398d32a5ae8c8412c9074561fd2",
  "bytecode": "0x60a060405260006003553480156200001657600080fd5b50604051620041523803806200415283398181016040528101906200003c9190620001a7565b8273ffffffffffffffffffffffffffffffffffffffff1660808173ffffffffffffffffffffffffffffffffffffffff16815250508160008190555033600160006101000a81548173ffffffffffffffffffffffffffffffffffffffff021916908373ffffffffffffffffffffffffffffffffffffffff16021790555080600260006101000a81548173ffffffffffffffffffffffffffffffffffffffff021916908373ffffffffffffffffffffffffffffffffffffffff16021790555050505062000203565b600080fd5b600073ffffffffffffffffffffffffffffffffffffffff82169050919050565b6000620001348262000107565b9050919050565b620001468162000127565b81146200015257600080fd5b50565b60008151905062000166816200013b565b92915050565b6000819050919050565b62000181816200016c565b81146200018d57600080fd5b50565b600081519050620001a18162000176565b92915050565b600080600060608486031215620001c357620001c262000102565b5b6000620001d38682870162000155565b9350506020620001e68682870162000190565b9250506040620001f98682870162000155565b9150509250925092565b608051613f256200022d600039600081816110730152818161164b01526129000152613f256000f3fe6080604052600436106101405760003560e01c80635f589e42116100b6578063a6b036331161006f578063a6b036331461047a578063a7810322146104a5578063be74264d146104ce578063cad240e5146104f9578063f487a65c14610536578063f59a9bb01461056157610140565b80635f589e421461038a57806369fe0e2d146103a15780636e04ff0d146103ca5780636f9fb98a146104085780637684fc86146104335780639e87a5cd1461044f57610140565b806342a4fda81161010857806342a4fda81461027757806345598b4a146102935780634585e33b146102bc5780634614be9f146102e55780635598f8cc146103105780635c622a0e1461034d57610140565b80630fa91fa914610145578063106b487114610183578063181e0124146101c05780631e010439146101fd578063359d24111461023a575b600080fd5b34801561015157600080fd5b5061016c60048036038101906101679190612bdb565b61058a565b60405161017a929190612db6565b60405180910390f35b34801561018f57600080fd5b506101aa60048036038101906101a59190612bdb565b61069c565b6040516101b79190612e08565b60405180910390f35b3480156101cc57600080fd5b506101e760048036038101906101e29190612bdb565b610a79565b6040516101f49190612e32565b60405180910390f35b34801561020957600080fd5b50610224600480360381019061021f9190612bdb565b610b1c565b6040516102319190612e32565b60405180910390f35b34801561024657600080fd5b50610261600480360381019061025c9190612bdb565b610b73565b60405161026e9190612e08565b60405180910390f35b610291600480360381019061028c9190612bdb565b610b93565b005b34801561029f57600080fd5b506102ba60048036038101906102b59190612bdb565b610e00565b005b3480156102c857600080fd5b506102e360048036038101906102de9190612f93565b611064565b005b3480156102f157600080fd5b506102fa61106f565b6040516103079190612feb565b60405180910390f35b34801561031c57600080fd5b5061033760048036038101906103329190612bdb565b611097565b6040516103449190613366565b60405180910390f35b34801561035957600080fd5b50610374600480360381019061036f9190612bdb565b611470565b6040516103819190613397565b60405180910390f35b34801561039657600080fd5b5061039f61149d565b005b3480156103ad57600080fd5b506103c860048036038101906103c39190612bdb565b61158f565b005b3480156103d657600080fd5b506103f160048036038101906103ec9190613412565b611620565b6040516103ff9291906134b4565b60405180910390f35b34801561041457600080fd5b5061041d611647565b60405161042a9190612e32565b60405180910390f35b61044d60048036038101906104489190612bdb565b611686565b005b34801561045b57600080fd5b50610464611904565b6040516104719190613543565b60405180910390f35b34801561048657600080fd5b5061048f61192e565b60405161049c9190613755565b60405180910390f35b3480156104b157600080fd5b506104cc60048036038101906104c79190613777565b611da0565b005b3480156104da57600080fd5b506104e3611f49565b6040516104f09190612e32565b60405180910390f35b34801561050557600080fd5b50610520600480360381019061051b9190613890565b611f52565b60405161052d9190612e32565b60405180910390f35b34801561054257600080fd5b5061054b612257565b6040516105589190612e32565b60405180910390f35b34801561056d57600080fd5b5061058860048036038101906105839190612bdb565b61225d565b005b60608060046000848152602001908152602001600020600801600460008581526020019081526020016000206009018180548060200260200160405190810160405280929190818152602001828054801561063a57602002820191906000526020600020905b8160009054906101000a900473ffffffffffffffffffffffffffffffffffffffff1673ffffffffffffffffffffffffffffffffffffffff16815260200190600101908083116105f0575b505050505091508080548060200260200160405190810160405280929190818152602001828054801561068c57602002820191906000526020600020905b815481526020019060010190808311610678575b5050505050905091509150915091565b60008060046000848152602001908152602001600020604051806101a0016040529081600082015481526020016001820160009054906101000a900473ffffffffffffffffffffffffffffffffffffffff1673ffffffffffffffffffffffffffffffffffffffff1673ffffffffffffffffffffffffffffffffffffffff16815260200160028201805461072e906139a0565b80601f016020809104026020016040519081016040528092919081815260200182805461075a906139a0565b80156107a75780601f1061077c576101008083540402835291602001916107a7565b820191906000526020600020905b81548152906001019060200180831161078a57829003601f168201915b505050505081526020016003820180546107c0906139a0565b80601f01602080910402602001604051908101604052809291908181526020018280546107ec906139a0565b80156108395780601f1061080e57610100808354040283529160200191610839565b820191906000526020600020905b81548152906001019060200180831161081c57829003601f168201915b50505050508152602001600482015481526020016005820154815260200160068201548152602001600782018054610870906139a0565b80601f016020809104026020016040519081016040528092919081815260200182805461089c906139a0565b80156108e95780601f106108be576101008083540402835291602001916108e9565b820191906000526020600020905b8154815290600101906020018083116108cc57829003601f168201915b505050505081526020016008820180548060200260200160405190810160405280929190818152602001828054801561097757602002820191906000526020600020905b8160009054906101000a900473ffffffffffffffffffffffffffffffffffffffff1673ffffffffffffffffffffffffffffffffffffffff168152602001906001019080831161092d575b50505050508152602001600982018054806020026020016040519081016040528092919081815260200182805480156109cf57602002820191906000526020600020905b8154815260200190600101908083116109bb575b50505050508152602001600a820160009054906101000a900460ff1660048111156109fd576109fc613163565b5b6004811115610a0f57610a0e613163565b5b8152602001600a820160019054906101000a900460ff166004811115610a3857610a37613163565b5b6004811115610a4a57610a49613163565b5b8152602001600a820160029054906101000a900460ff1615151515815250509050806101800151915050919050565b6000806004600084815260200190815260200160002090506005600084815260200190815260200160002060009054906101000a900460ff16610ae8576040517fadafbc9600000000000000000000000000000000000000000000000000000000815260040160405180910390fd5b60008160050154421015610b0d57428260050154610b069190613a00565b9050610b12565b600090505b8092505050919050565b60006004600083815260200190815260200160002060010160009054906101000a900473ffffffffffffffffffffffffffffffffffffffff1673ffffffffffffffffffffffffffffffffffffffff16319050919050565b60056020528060005260406000206000915054906101000a900460ff1681565b80600060046000838152602001908152602001600020905060006004811115610bbf57610bbe613163565b5b81600a0160009054906101000a900460ff166004811115610be357610be2613163565b5b14610c1a576040517fadafbc9600000000000000000000000000000000000000000000000000000000815260040160405180910390fd5b600060046000858152602001908152602001600020905060003490506005600086815260200190815260200160002060009054906101000a900460ff16610c8d576040517fadafbc9600000000000000000000000000000000000000000000000000000000815260040160405180910390fd5b81600801339080600181540180825580915050600190039060005260206000200160009091909190916101000a81548173ffffffffffffffffffffffffffffffffffffffff021916908373ffffffffffffffffffffffffffffffffffffffff1602179055508160090181908060018154018082558091505060019003906000526020600020016000909190919091505580826006016000828254610d319190613a34565b925050819055503373ffffffffffffffffffffffffffffffffffffffff167f655351f1bf449402dc56dbd84887de4bf8ee15fb1e442c4c68199b7fc5b6ad60868342604051610d8293929190613a68565b60405180910390a28160040154826006015410610dcb57600182600a0160006101000a81548160ff02191690836004811115610dc157610dc0613163565b5b0217905550610df9565b600082600a0160006101000a81548160ff02191690836004811115610df357610df2613163565b5b02179055505b5050505050565b8060006004600083815260200190815260200160002090503373ffffffffffffffffffffffffffffffffffffffff168160010160009054906101000a900473ffffffffffffffffffffffffffffffffffffffff1673ffffffffffffffffffffffffffffffffffffffff1614610ea1576040517ff864ae5900000000000000000000000000000000000000000000000000000000815260040160405180910390fd5b82600060046000838152602001908152602001600020905060006004811115610ecd57610ecc613163565b5b81600a0160009054906101000a900460ff166004811115610ef157610ef0613163565b5b14610f28576040517fadafbc9600000000000000000000000000000000000000000000000000000000815260040160405180910390fd5b60006004600087815260200190815260200160002090503373ffffffffffffffffffffffffffffffffffffffff168160010160009054906101000a900473ffffffffffffffffffffffffffffffffffffffff1673ffffffffffffffffffffffffffffffffffffffff1614610fc8576040517ff864ae5900000000000000000000000000000000000000000000000000000000815260040160405180910390fd5b600381600a0160006101000a81548160ff02191690836004811115610ff057610fef613163565b5b021790555060008160060154111561100c5761100b866124ee565b5b3373ffffffffffffffffffffffffffffffffffffffff167fdaf42e53ca58d1d28d99e69c2f45565d7fbf704482f0641b81eeb42ef07462f38742604051611054929190613a9f565b60405180910390a2505050505050565b61106c612669565b50565b60007f0000000000000000000000000000000000000000000000000000000000000000905090565b61109f6129f9565b60046000838152602001908152602001600020604051806101a0016040529081600082015481526020016001820160009054906101000a900473ffffffffffffffffffffffffffffffffffffffff1673ffffffffffffffffffffffffffffffffffffffff1673ffffffffffffffffffffffffffffffffffffffff16815260200160028201805461112e906139a0565b80601f016020809104026020016040519081016040528092919081815260200182805461115a906139a0565b80156111a75780601f1061117c576101008083540402835291602001916111a7565b820191906000526020600020905b81548152906001019060200180831161118a57829003601f168201915b505050505081526020016003820180546111c0906139a0565b80601f01602080910402602001604051908101604052809291908181526020018280546111ec906139a0565b80156112395780601f1061120e57610100808354040283529160200191611239565b820191906000526020600020905b81548152906001019060200180831161121c57829003601f168201915b50505050508152602001600482015481526020016005820154815260200160068201548152602001600782018054611270906139a0565b80601f016020809104026020016040519081016040528092919081815260200182805461129c906139a0565b80156112e95780601f106112be576101008083540402835291602001916112e9565b820191906000526020600020905b8154815290600101906020018083116112cc57829003601f168201915b505050505081526020016008820180548060200260200160405190810160405280929190818152602001828054801561137757602002820191906000526020600020905b8160009054906101000a900473ffffffffffffffffffffffffffffffffffffffff1673ffffffffffffffffffffffffffffffffffffffff168152602001906001019080831161132d575b50505050508152602001600982018054806020026020016040519081016040528092919081815260200182805480156113cf57602002820191906000526020600020905b8154815260200190600101908083116113bb575b50505050508152602001600a820160009054906101000a900460ff1660048111156113fd576113fc613163565b5b600481111561140f5761140e613163565b5b8152602001600a820160019054906101000a900460ff16600481111561143857611437613163565b5b600481111561144a57611449613163565b5b8152602001600a820160029054906101000a900460ff1615151515815250509050919050565b600060046000838152602001908152602001600020600a0160009054906101000a900460ff169050919050565b600160009054906101000a900473ffffffffffffffffffffffffffffffffffffffff1673ffffffffffffffffffffffffffffffffffffffff163373ffffffffffffffffffffffffffffffffffffffff1614611524576040517ff864ae5900000000000000000000000000000000000000000000000000000000815260040160405180910390fd5b600160009054906101000a900473ffffffffffffffffffffffffffffffffffffffff1673ffffffffffffffffffffffffffffffffffffffff166108fc479081150290604051600060405180830381858888f1935050505015801561158c573d6000803e3d6000fd5b50565b600160009054906101000a900473ffffffffffffffffffffffffffffffffffffffff1673ffffffffffffffffffffffffffffffffffffffff163373ffffffffffffffffffffffffffffffffffffffff1614611616576040517ff864ae5900000000000000000000000000000000000000000000000000000000815260040160405180910390fd5b8060008190555050565b6000606061162c6127d9565b91506040518060200160405280600081525090509250929050565b60007f000000000000000000000000000000000000000000000000000000000000000073ffffffffffffffffffffffffffffffffffffffff1631905090565b8060006004600083815260200190815260200160002090503373ffffffffffffffffffffffffffffffffffffffff168160010160009054906101000a900473ffffffffffffffffffffffffffffffffffffffff1673ffffffffffffffffffffffffffffffffffffffff1614611727576040517ff864ae5900000000000000000000000000000000000000000000000000000000815260040160405180910390fd5b60006004600085815260200190815260200160002090506001600481111561175257611751613163565b5b81600a0160009054906101000a900460ff16600481111561177657611775613163565b5b141580156117ba57506002600481111561179357611792613163565b5b81600a0160009054906101000a900460ff1660048111156117b7576117b6613163565b5b14155b156117f1576040517fadafbc9600000000000000000000000000000000000000000000000000000000815260040160405180910390fd5b8060010160009054906101000a900473ffffffffffffffffffffffffffffffffffffffff1673ffffffffffffffffffffffffffffffffffffffff163373ffffffffffffffffffffffffffffffffffffffff161461187a576040517ff864ae5900000000000000000000000000000000000000000000000000000000815260040160405180910390fd5b600481600a0160006101000a81548160ff021916908360048111156118a2576118a1613163565b5b02179055506118b084612811565b3373ffffffffffffffffffffffffffffffffffffffff167fa00565430f3e0378018049de79b214a549b4193d49c14b535c3eef83581ebc51856040516118f69190612e32565b60405180910390a250505050565b6000600260009054906101000a900473ffffffffffffffffffffffffffffffffffffffff16905090565b6060600060035467ffffffffffffffff81111561194e5761194d612e68565b5b60405190808252806020026020018201604052801561198757816020015b6119746129f9565b81526020019060019003908161196c5790505b50905060005b600354811015611d9857600060046000838152602001908152602001600020905080604051806101a0016040529081600082015481526020016001820160009054906101000a900473ffffffffffffffffffffffffffffffffffffffff1673ffffffffffffffffffffffffffffffffffffffff1673ffffffffffffffffffffffffffffffffffffffff168152602001600282018054611a2b906139a0565b80601f0160208091040260200160405190810160405280929190818152602001828054611a57906139a0565b8015611aa45780601f10611a7957610100808354040283529160200191611aa4565b820191906000526020600020905b815481529060010190602001808311611a8757829003601f168201915b50505050508152602001600382018054611abd906139a0565b80601f0160208091040260200160405190810160405280929190818152602001828054611ae9906139a0565b8015611b365780601f10611b0b57610100808354040283529160200191611b36565b820191906000526020600020905b815481529060010190602001808311611b1957829003601f168201915b50505050508152602001600482015481526020016005820154815260200160068201548152602001600782018054611b6d906139a0565b80601f0160208091040260200160405190810160405280929190818152602001828054611b99906139a0565b8015611be65780601f10611bbb57610100808354040283529160200191611be6565b820191906000526020600020905b815481529060010190602001808311611bc957829003601f168201915b5050505050815260200160088201805480602002602001604051908101604052809291908181526020018280548015611c7457602002820191906000526020600020905b8160009054906101000a900473ffffffffffffffffffffffffffffffffffffffff1673ffffffffffffffffffffffffffffffffffffffff1681526020019060010190808311611c2a575b5050505050815260200160098201805480602002602001604051908101604052809291908181526020018280548015611ccc57602002820191906000526020600020905b815481526020019060010190808311611cb8575b50505050508152602001600a820160009054906101000a900460ff166004811115611cfa57611cf9613163565b5b6004811115611d0c57611d0b613163565b5b8152602001600a820160019054906101000a900460ff166004811115611d3557611d34613163565b5b6004811115611d4757611d46613163565b5b8152602001600a820160029054906101000a900460ff161515151581525050838381518110611d7957611d78613ac8565b5b6020026020010181905250508080611d9090613af7565b91505061198d565b508091505090565b8260006004600083815260200190815260200160002090503373ffffffffffffffffffffffffffffffffffffffff168160010160009054906101000a900473ffffffffffffffffffffffffffffffffffffffff1673ffffffffffffffffffffffffffffffffffffffff1614611e41576040517ff864ae5900000000000000000000000000000000000000000000000000000000815260040160405180910390fd5b600060046000878152602001908152602001600020905060026004811115611e6c57611e6b613163565b5b81600a0160009054906101000a900460ff166004811115611e9057611e8f613163565b5b14611ec7576040517fadafbc9600000000000000000000000000000000000000000000000000000000815260040160405180910390fd5b848160040181905550838160050181905550600081600a0160006101000a81548160ff02191690836004811115611f0157611f00613163565b5b02179055507f5b0c82513cc7f1f8087a09ca71440f01a3e4bbc6c46495f1004842a1bc1dede0868686604051611f3993929190613a68565b60405180910390a1505050505050565b60008054905090565b600080841015611f8e576040517fadafbc9600000000000000000000000000000000000000000000000000000000815260040160405180910390fd5b428311611fc7576040517fadafbc9600000000000000000000000000000000000000000000000000000000815260040160405180910390fd5b600060046000600354815260200190815260200160002090506003548160000181905550338160010160006101000a81548173ffffffffffffffffffffffffffffffffffffffff021916908373ffffffffffffffffffffffffffffffffffffffff1602179055508681600201908161203f9190613ce1565b50858160030190816120519190613ce1565b50848160040181905550838160050181905550600081600601819055508281600701908161207f9190613ce1565b50600067ffffffffffffffff81111561209b5761209a612e68565b5b6040519080825280602002602001820160405280156120c95781602001602082028036833780820191505090505b508160080190805190602001906120e1929190612a9d565b50600067ffffffffffffffff8111156120fd576120fc612e68565b5b60405190808252806020026020018201604052801561212b5781602001602082028036833780820191505090505b50816009019080519060200190612143929190612b27565b508781600a0160016101000a81548160ff0219169083600481111561216b5761216a613163565b5b0217905550600081600a0160006101000a81548160ff0219169083600481111561219857612197613163565b5b02179055506001600560008360000154815260200190815260200160002060006101000a81548160ff021916908315150217905550600360008154809291906121e090613af7565b91905055503373ffffffffffffffffffffffffffffffffffffffff167f944e037155521668ebad86014260c643358e41123a5b998e18489a10ff11ea036003548a88886040516122339493929190613dc2565b60405180910390a2600160035461224a9190613a00565b9150509695505050505050565b60035481565b8060006004600083815260200190815260200160002090503373ffffffffffffffffffffffffffffffffffffffff168160010160009054906101000a900473ffffffffffffffffffffffffffffffffffffffff1673ffffffffffffffffffffffffffffffffffffffff16146122fe576040517ff864ae5900000000000000000000000000000000000000000000000000000000815260040160405180910390fd5b60006004600085815260200190815260200160002090506002600481111561232957612328613163565b5b81600a0160009054906101000a900460ff16600481111561234d5761234c613163565b5b148061238e57506003600481111561236857612367613163565b5b81600a0160009054906101000a900460ff16600481111561238c5761238b613163565b5b145b806123cd57506004808111156123a7576123a6613163565b5b81600a0160009054906101000a900460ff1660048111156123cb576123ca613163565b5b145b15612403576040517e4636d200000000000000000000000000000000000000000000000000000000815260040160405180910390fd5b80600501544210612440576040517f9bcfc26d00000000000000000000000000000000000000000000000000000000815260040160405180910390fd5b600281600a0160006101000a81548160ff0219169083600481111561246857612467613163565b5b0217905550612476846124ee565b8060010160009054906101000a900473ffffffffffffffffffffffffffffffffffffffff1673ffffffffffffffffffffffffffffffffffffffff167f7499a145dac6baa4e55462de49ee33dd9526640a55399705c6eb4daebcd7f577856040516124e09190612e32565b60405180910390a250505050565b60006004600083815260200190815260200160002090506003600481111561251957612518613163565b5b81600a0160009054906101000a900460ff16600481111561253d5761253c613163565b5b1415801561258157506002600481111561255a57612559613163565b5b81600a0160009054906101000a900460ff16600481111561257e5761257d613163565b5b14155b156125b8576040517fadafbc9600000000000000000000000000000000000000000000000000000000815260040160405180910390fd5b60005b8160090180549050811015612647576126348260080182815481106125e3576125e2613ac8565b5b9060005260206000200160009054906101000a900473ffffffffffffffffffffffffffffffffffffffff1683600901838154811061262457612623613ac8565b5b906000526020600020015461297e565b808061263f90613af7565b9150506125bb565b50600181600a0160026101000a81548160ff0219169083151502179055505050565b600160009054906101000a900473ffffffffffffffffffffffffffffffffffffffff1673ffffffffffffffffffffffffffffffffffffffff163373ffffffffffffffffffffffffffffffffffffffff16146126f0576040517ff864ae5900000000000000000000000000000000000000000000000000000000815260040160405180910390fd5b60005b6003548110156127d65760006004600083815260200190815260200160002090506000600481111561272857612727613163565b5b81600a0160009054906101000a900460ff16600481111561274c5761274b613163565b5b036127c257600281600a0160006101000a81548160ff0219169083600481111561277957612778613163565b5b02179055507f5b0c82513cc7f1f8087a09ca71440f01a3e4bbc6c46495f1004842a1bc1dede082826004015483600501546040516127b993929190613a68565b60405180910390a15b5080806127ce90613af7565b9150506126f3565b50565b60008060046000600354815260200190815260200160002090508060050154421061280857600191505061280e565b60009150505b90565b600060046000838152602001908152602001600020905060048081111561283b5761283a613163565b5b81600a0160009054906101000a900460ff16600481111561285f5761285e613163565b5b14612896576040517fadafbc9600000000000000000000000000000000000000000000000000000000815260040160405180910390fd5b60008160060154905060006064600054836128b19190613e07565b6128bb9190613e78565b9050600081836128cb9190613a00565b90506128fb8460010160009054906101000a900473ffffffffffffffffffffffffffffffffffffffff168261297e565b6129257f00000000000000000000000000000000000000000000000000000000000000008361297e565b3373ffffffffffffffffffffffffffffffffffffffff167f9a3866b92eb53bcee95d3202fbccf24673a278e8d2cad1f2acbc529703caf3e286834260405161296f93929190613a68565b60405180910390a25050505050565b60008273ffffffffffffffffffffffffffffffffffffffff16826040516129a490613eda565b60006040518083038185875af1925050503d80600081146129e1576040519150601f19603f3d011682016040523d82523d6000602084013e6129e6565b606091505b50509050806129f457600080fd5b505050565b604051806101a0016040528060008152602001600073ffffffffffffffffffffffffffffffffffffffff168152602001606081526020016060815260200160008152602001600081526020016000815260200160608152602001606081526020016060815260200160006004811115612a7557612a74613163565b5b815260200160006004811115612a8e57612a8d613163565b5b81526020016000151581525090565b828054828255906000526020600020908101928215612b16579160200282015b82811115612b155782518260006101000a81548173ffffffffffffffffffffffffffffffffffffffff021916908373ffffffffffffffffffffffffffffffffffffffff16021790555091602001919060010190612abd565b5b509050612b239190612b74565b5090565b828054828255906000526020600020908101928215612b63579160200282015b82811115612b62578251825591602001919060010190612b47565b5b509050612b709190612b74565b5090565b5b80821115612b8d576000816000905550600101612b75565b5090565b6000604051905090565b600080fd5b600080fd5b6000819050919050565b612bb881612ba5565b8114612bc357600080fd5b50565b600081359050612bd581612baf565b92915050565b600060208284031215612bf157612bf0612b9b565b5b6000612bff84828501612bc6565b91505092915050565b600081519050919050565b600082825260208201905092915050565b6000819050602082019050919050565b600073ffffffffffffffffffffffffffffffffffffffff82169050919050565b6000612c5f82612c34565b9050919050565b612c6f81612c54565b82525050565b6000612c818383612c66565b60208301905092915050565b6000602082019050919050565b6000612ca582612c08565b612caf8185612c13565b9350612cba83612c24565b8060005b83811015612ceb578151612cd28882612c75565b9750612cdd83612c8d565b925050600181019050612cbe565b5085935050505092915050565b600081519050919050565b600082825260208201905092915050565b6000819050602082019050919050565b612d2d81612ba5565b82525050565b6000612d3f8383612d24565b60208301905092915050565b6000602082019050919050565b6000612d6382612cf8565b612d6d8185612d03565b9350612d7883612d14565b8060005b83811015612da9578151612d908882612d33565b9750612d9b83612d4b565b925050600181019050612d7c565b5085935050505092915050565b60006040820190508181036000830152612dd08185612c9a565b90508181036020830152612de48184612d58565b90509392505050565b60008115159050919050565b612e0281612ded565b82525050565b6000602082019050612e1d6000830184612df9565b92915050565b612e2c81612ba5565b82525050565b6000602082019050612e476000830184612e23565b92915050565b600080fd5b600080fd5b6000601f19601f8301169050919050565b7f4e487b7100000000000000000000000000000000000000000000000000000000600052604160045260246000fd5b612ea082612e57565b810181811067ffffffffffffffff82111715612ebf57612ebe612e68565b5b80604052505050565b6000612ed2612b91565b9050612ede8282612e97565b919050565b600067ffffffffffffffff821115612efe57612efd612e68565b5b612f0782612e57565b9050602081019050919050565b82818337600083830152505050565b6000612f36612f3184612ee3565b612ec8565b905082815260208101848484011115612f5257612f51612e52565b5b612f5d848285612f14565b509392505050565b600082601f830112612f7a57612f79612e4d565b5b8135612f8a848260208601612f23565b91505092915050565b600060208284031215612fa957612fa8612b9b565b5b600082013567ffffffffffffffff811115612fc757612fc6612ba0565b5b612fd384828501612f65565b91505092915050565b612fe581612c54565b82525050565b60006020820190506130006000830184612fdc565b92915050565b600081519050919050565b600082825260208201905092915050565b60005b83811015613040578082015181840152602081019050613025565b60008484015250505050565b600061305782613006565b6130618185613011565b9350613071818560208601613022565b61307a81612e57565b840191505092915050565b600082825260208201905092915050565b60006130a182612c08565b6130ab8185613085565b93506130b683612c24565b8060005b838110156130e75781516130ce8882612c75565b97506130d983612c8d565b9250506001810190506130ba565b5085935050505092915050565b600082825260208201905092915050565b600061311082612cf8565b61311a81856130f4565b935061312583612d14565b8060005b8381101561315657815161313d8882612d33565b975061314883612d4b565b925050600181019050613129565b5085935050505092915050565b7f4e487b7100000000000000000000000000000000000000000000000000000000600052602160045260246000fd5b600581106131a3576131a2613163565b5b50565b60008190506131b482613192565b919050565b60006131c4826131a6565b9050919050565b6131d4816131b9565b82525050565b600581106131eb576131ea613163565b5b50565b60008190506131fc826131da565b919050565b600061320c826131ee565b9050919050565b61321c81613201565b82525050565b61322b81612ded565b82525050565b60006101a08301600083015161324a6000860182612d24565b50602083015161325d6020860182612c66565b5060408301518482036040860152613275828261304c565b9150506060830151848203606086015261328f828261304c565b91505060808301516132a46080860182612d24565b5060a08301516132b760a0860182612d24565b5060c08301516132ca60c0860182612d24565b5060e083015184820360e08601526132e2828261304c565b9150506101008301518482036101008601526132fe8282613096565b91505061012083015184820361012086015261331a8282613105565b9150506101408301516133316101408601826131cb565b50610160830151613346610160860182613213565b5061018083015161335b610180860182613222565b508091505092915050565b600060208201905081810360008301526133808184613231565b905092915050565b613391816131b9565b82525050565b60006020820190506133ac6000830184613388565b92915050565b600080fd5b600080fd5b60008083601f8401126133d2576133d1612e4d565b5b8235905067ffffffffffffffff8111156133ef576133ee6133b2565b5b60208301915083600182028301111561340b5761340a6133b7565b5b9250929050565b6000806020838503121561342957613428612b9b565b5b600083013567ffffffffffffffff81111561344757613446612ba0565b5b613453858286016133bc565b92509250509250929050565b600081519050919050565b600082825260208201905092915050565b60006134868261345f565b613490818561346a565b93506134a0818560208601613022565b6134a981612e57565b840191505092915050565b60006040820190506134c96000830185612df9565b81810360208301526134db818461347b565b90509392505050565b6000819050919050565b60006135096135046134ff84612c34565b6134e4565b612c34565b9050919050565b600061351b826134ee565b9050919050565b600061352d82613510565b9050919050565b61353d81613522565b82525050565b60006020820190506135586000830184613534565b92915050565b600081519050919050565b600082825260208201905092915050565b6000819050602082019050919050565b60006101a0830160008301516135a36000860182612d24565b5060208301516135b66020860182612c66565b50604083015184820360408601526135ce828261304c565b915050606083015184820360608601526135e8828261304c565b91505060808301516135fd6080860182612d24565b5060a083015161361060a0860182612d24565b5060c083015161362360c0860182612d24565b5060e083015184820360e086015261363b828261304c565b9150506101008301518482036101008601526136578282613096565b9150506101208301518482036101208601526136738282613105565b91505061014083015161368a6101408601826131cb565b5061016083015161369f610160860182613213565b506101808301516136b4610180860182613222565b508091505092915050565b60006136cb838361358a565b905092915050565b6000602082019050919050565b60006136eb8261355e565b6136f58185613569565b9350836020820285016137078561357a565b8060005b85811015613743578484038952815161372485826136bf565b945061372f836136d3565b925060208a0199505060018101905061370b565b50829750879550505050505092915050565b6000602082019050818103600083015261376f81846136e0565b905092915050565b6000806000606084860312156137905761378f612b9b565b5b600061379e86828701612bc6565b93505060206137af86828701612bc6565b92505060406137c086828701612bc6565b9150509250925092565b600581106137d757600080fd5b50565b6000813590506137e9816137ca565b92915050565b600067ffffffffffffffff82111561380a57613809612e68565b5b61381382612e57565b9050602081019050919050565b600061383361382e846137ef565b612ec8565b90508281526020810184848401111561384f5761384e612e52565b5b61385a848285612f14565b509392505050565b600082601f83011261387757613876612e4d565b5b8135613887848260208601613820565b91505092915050565b60008060008060008060c087890312156138ad576138ac612b9b565b5b60006138bb89828a016137da565b965050602087013567ffffffffffffffff8111156138dc576138db612ba0565b5b6138e889828a01613862565b955050604087013567ffffffffffffffff81111561390957613908612ba0565b5b61391589828a01613862565b945050606061392689828a01612bc6565b935050608061393789828a01612bc6565b92505060a087013567ffffffffffffffff81111561395857613957612ba0565b5b61396489828a01613862565b9150509295509295509295565b7f4e487b7100000000000000000000000000000000000000000000000000000000600052602260045260246000fd5b600060028204905060018216806139b857607f821691505b6020821081036139cb576139ca613971565b5b50919050565b7f4e487b7100000000000000000000000000000000000000000000000000000000600052601160045260246000fd5b6000613a0b82612ba5565b9150613a1683612ba5565b9250828203905081811115613a2e57613a2d6139d1565b5b92915050565b6000613a3f82612ba5565b9150613a4a83612ba5565b9250828201905080821115613a6257613a616139d1565b5b92915050565b6000606082019050613a7d6000830186612e23565b613a8a6020830185612e23565b613a976040830184612e23565b949350505050565b6000604082019050613ab46000830185612e23565b613ac16020830184612e23565b9392505050565b7f4e487b7100000000000000000000000000000000000000000000000000000000600052603260045260246000fd5b6000613b0282612ba5565b91507fffffffffffffffffffffffffffffffffffffffffffffffffffffffffffffffff8203613b3457613b336139d1565b5b600182019050919050565b60008190508160005260206000209050919050565b60006020601f8301049050919050565b600082821b905092915050565b600060088302613ba17fffffffffffffffffffffffffffffffffffffffffffffffffffffffffffffffff82613b64565b613bab8683613b64565b95508019841693508086168417925050509392505050565b6000613bde613bd9613bd484612ba5565b6134e4565b612ba5565b9050919050565b6000819050919050565b613bf883613bc3565b613c0c613c0482613be5565b848454613b71565b825550505050565b600090565b613c21613c14565b613c2c818484613bef565b505050565b5b81811015613c5057613c45600082613c19565b600181019050613c32565b5050565b601f821115613c9557613c6681613b3f565b613c6f84613b54565b81016020851015613c7e578190505b613c92613c8a85613b54565b830182613c31565b50505b505050565b600082821c905092915050565b6000613cb860001984600802613c9a565b1980831691505092915050565b6000613cd18383613ca7565b9150826002028217905092915050565b613cea82613006565b67ffffffffffffffff811115613d0357613d02612e68565b5b613d0d82546139a0565b613d18828285613c54565b600060209050601f831160018114613d4b5760008415613d39578287015190505b613d438582613cc5565b865550613dab565b601f198416613d5986613b3f565b60005b82811015613d8157848901518255600182019150602085019450602081019050613d5c565b86831015613d9e5784890151613d9a601f891682613ca7565b8355505b6001600288020188555050505b505050505050565b613dbc81613201565b82525050565b6000608082019050613dd76000830187612e23565b613de46020830186613db3565b613df16040830185612e23565b613dfe6060830184612e23565b95945050505050565b6000613e1282612ba5565b9150613e1d83612ba5565b9250828202613e2b81612ba5565b91508282048414831517613e4257613e416139d1565b5b5092915050565b7f4e487b7100000000000000000000000000000000000000000000000000000000600052601260045260246000fd5b6000613e8382612ba5565b9150613e8e83612ba5565b925082613e9e57613e9d613e49565b5b828204905092915050565b600081905092915050565b50565b6000613ec4600083613ea9565b9150613ecf82613eb4565b600082019050919050565b6000613ee582613eb7565b915081905091905056fea26469706673582212203c257972653f0cc25bc84455aa639fdfe8bd7b4df3b9f01910d866249071ad9f64736f6c63430008110033",
  "devdoc": {
    "kind": "dev",
    "methods": {
      "performUpkeep(bytes)": {
        "details": "The input to this method should not be trusted, and the caller of the method should not even be restricted to any single registry. Anyone should be able call it, and the input should be validated, there is no guarantee that the data passed in is the performData returned from checkUpkeep. This could happen due to malicious keepers, racing keepers, or simply a state change while the performUpkeep transaction is waiting for confirmation. Always validate the data passed in.",
        "params": {
          "performData": "is the data which was passed back from the checkData simulation. If it is encoded, it can easily be decoded into other types by calling `abi.decode`. This data should not be trusted, and should be validated against the contract's current state."
        }
      }
    },
    "version": 1
  },
  "userdoc": {
    "kind": "user",
    "methods": {
      "performUpkeep(bytes)": {
        "notice": "method that is actually executed by the keepers, via the registry. The data returned by the checkUpkeep simulation will be passed into this method to actually be executed."
      }
    },
    "version": 1
  },
  "storageLayout": {
    "storage": [
      {
        "astId": 89,
        "contract": "contracts/CrowdFund.sol:CrowdFund",
        "label": "i_feePercent",
        "offset": 0,
        "slot": "0",
        "type": "t_uint256"
      },
      {
        "astId": 91,
        "contract": "contracts/CrowdFund.sol:CrowdFund",
        "label": "i_owner",
        "offset": 0,
        "slot": "1",
        "type": "t_address"
      },
      {
        "astId": 94,
        "contract": "contracts/CrowdFund.sol:CrowdFund",
        "label": "campaignStatus",
        "offset": 20,
        "slot": "1",
        "type": "t_enum(CampaignStatus)106"
      },
      {
        "astId": 97,
        "contract": "contracts/CrowdFund.sol:CrowdFund",
        "label": "s_priceFeed",
        "offset": 0,
        "slot": "2",
        "type": "t_contract(AggregatorV3Interface)45"
      },
      {
        "astId": 100,
        "contract": "contracts/CrowdFund.sol:CrowdFund",
        "label": "s_numberOfCampaigns",
        "offset": 0,
        "slot": "3",
        "type": "t_uint256"
      },
      {
        "astId": 271,
        "contract": "contracts/CrowdFund.sol:CrowdFund",
        "label": "s_campaigns",
        "offset": 0,
        "slot": "4",
        "type": "t_mapping(t_uint256,t_struct(Campaign)143_storage)"
      },
      {
        "astId": 275,
        "contract": "contracts/CrowdFund.sol:CrowdFund",
        "label": "s_campaignExist",
        "offset": 0,
        "slot": "5",
        "type": "t_mapping(t_uint256,t_bool)"
      }
    ],
    "types": {
      "t_address": {
        "encoding": "inplace",
        "label": "address",
        "numberOfBytes": "20"
      },
      "t_array(t_address)dyn_storage": {
        "base": "t_address",
        "encoding": "dynamic_array",
        "label": "address[]",
        "numberOfBytes": "32"
      },
      "t_array(t_uint256)dyn_storage": {
        "base": "t_uint256",
        "encoding": "dynamic_array",
        "label": "uint256[]",
        "numberOfBytes": "32"
      },
      "t_bool": {
        "encoding": "inplace",
        "label": "bool",
        "numberOfBytes": "1"
      },
      "t_contract(AggregatorV3Interface)45": {
        "encoding": "inplace",
        "label": "contract AggregatorV3Interface",
        "numberOfBytes": "20"
      },
      "t_enum(CampaignStatus)106": {
        "encoding": "inplace",
        "label": "enum CrowdFund.CampaignStatus",
        "numberOfBytes": "1"
      },
      "t_enum(Category)112": {
        "encoding": "inplace",
        "label": "enum CrowdFund.Category",
        "numberOfBytes": "1"
      },
      "t_mapping(t_uint256,t_bool)": {
        "encoding": "mapping",
        "key": "t_uint256",
        "label": "mapping(uint256 => bool)",
        "numberOfBytes": "32",
        "value": "t_bool"
      },
      "t_mapping(t_uint256,t_struct(Campaign)143_storage)": {
        "encoding": "mapping",
        "key": "t_uint256",
        "label": "mapping(uint256 => struct CrowdFund.Campaign)",
        "numberOfBytes": "32",
        "value": "t_struct(Campaign)143_storage"
      },
      "t_string_storage": {
        "encoding": "bytes",
        "label": "string",
        "numberOfBytes": "32"
      },
      "t_struct(Campaign)143_storage": {
        "encoding": "inplace",
        "label": "struct CrowdFund.Campaign",
        "members": [
          {
            "astId": 114,
            "contract": "contracts/CrowdFund.sol:CrowdFund",
            "label": "id",
            "offset": 0,
            "slot": "0",
            "type": "t_uint256"
          },
          {
            "astId": 116,
            "contract": "contracts/CrowdFund.sol:CrowdFund",
            "label": "owner",
            "offset": 0,
            "slot": "1",
            "type": "t_address"
          },
          {
            "astId": 118,
            "contract": "contracts/CrowdFund.sol:CrowdFund",
            "label": "title",
            "offset": 0,
            "slot": "2",
            "type": "t_string_storage"
          },
          {
            "astId": 120,
            "contract": "contracts/CrowdFund.sol:CrowdFund",
            "label": "description",
            "offset": 0,
            "slot": "3",
            "type": "t_string_storage"
          },
          {
            "astId": 122,
            "contract": "contracts/CrowdFund.sol:CrowdFund",
            "label": "target",
            "offset": 0,
            "slot": "4",
            "type": "t_uint256"
          },
          {
            "astId": 124,
            "contract": "contracts/CrowdFund.sol:CrowdFund",
            "label": "deadline",
            "offset": 0,
            "slot": "5",
            "type": "t_uint256"
          },
          {
            "astId": 126,
            "contract": "contracts/CrowdFund.sol:CrowdFund",
            "label": "amountCollected",
            "offset": 0,
            "slot": "6",
            "type": "t_uint256"
          },
          {
            "astId": 128,
            "contract": "contracts/CrowdFund.sol:CrowdFund",
            "label": "image",
            "offset": 0,
            "slot": "7",
            "type": "t_string_storage"
          },
          {
            "astId": 131,
            "contract": "contracts/CrowdFund.sol:CrowdFund",
            "label": "donators",
            "offset": 0,
            "slot": "8",
            "type": "t_array(t_address)dyn_storage"
          },
          {
            "astId": 134,
            "contract": "contracts/CrowdFund.sol:CrowdFund",
            "label": "donations",
            "offset": 0,
            "slot": "9",
            "type": "t_array(t_uint256)dyn_storage"
          },
          {
            "astId": 137,
            "contract": "contracts/CrowdFund.sol:CrowdFund",
            "label": "status",
            "offset": 0,
            "slot": "10",
            "type": "t_enum(CampaignStatus)106"
          },
          {
            "astId": 140,
            "contract": "contracts/CrowdFund.sol:CrowdFund",
            "label": "category",
            "offset": 1,
            "slot": "10",
            "type": "t_enum(Category)112"
          },
          {
            "astId": 142,
            "contract": "contracts/CrowdFund.sol:CrowdFund",
            "label": "refunded",
            "offset": 2,
            "slot": "10",
            "type": "t_bool"
          }
        ],
        "numberOfBytes": "352"
      },
      "t_uint256": {
        "encoding": "inplace",
        "label": "uint256",
        "numberOfBytes": "32"
      }
    }
  }
}