{
  "_format": "hh-sol-artifact-1",
  "contractName": "CrowdFund",
  "sourceName": "contracts/CrowdFund.sol",
  "abi": [
    {
      "inputs": [
        {
          "internalType": "address",
          "name": "_feeAccount",
          "type": "address"
        },
        {
          "internalType": "uint256",
          "name": "_feePercent",
          "type": "uint256"
        }
      ],
      "stateMutability": "nonpayable",
      "type": "constructor"
    },
    {
      "inputs": [],
      "name": "CrowdFund__Deadline",
      "type": "error"
    },
    {
      "inputs": [],
      "name": "CrowdFund__Ended",
      "type": "error"
    },
    {
      "inputs": [],
      "name": "CrowdFund__NotOwner",
      "type": "error"
    },
    {
      "anonymous": false,
      "inputs": [
        {
          "indexed": false,
          "internalType": "uint256",
          "name": "id",
          "type": "uint256"
        }
      ],
      "name": "CancelCampaign",
      "type": "event"
    },
    {
      "anonymous": false,
      "inputs": [
        {
          "indexed": false,
          "internalType": "uint256",
          "name": "id",
          "type": "uint256"
        },
        {
          "indexed": true,
          "internalType": "address",
          "name": "creator",
          "type": "address"
        },
        {
          "indexed": false,
          "internalType": "uint256",
          "name": "target",
          "type": "uint256"
        },
        {
          "indexed": false,
          "internalType": "uint256",
          "name": "deadline",
          "type": "uint256"
        }
      ],
      "name": "CreatedCampaign",
      "type": "event"
    },
    {
      "inputs": [
        {
          "internalType": "uint256",
          "name": "",
          "type": "uint256"
        }
      ],
      "name": "campaigns",
      "outputs": [
        {
          "internalType": "address",
          "name": "owner",
          "type": "address"
        },
        {
          "internalType": "string",
          "name": "title",
          "type": "string"
        },
        {
          "internalType": "string",
          "name": "description",
          "type": "string"
        },
        {
          "internalType": "uint256",
          "name": "target",
          "type": "uint256"
        },
        {
          "internalType": "uint256",
          "name": "deadline",
          "type": "uint256"
        },
        {
          "internalType": "uint256",
          "name": "amountCollected",
          "type": "uint256"
        },
        {
          "internalType": "string",
          "name": "image",
          "type": "string"
        },
        {
          "internalType": "bool",
          "name": "claimed",
          "type": "bool"
        }
      ],
      "stateMutability": "view",
      "type": "function"
    },
    {
      "inputs": [
        {
          "internalType": "uint256",
          "name": "_id",
          "type": "uint256"
        },
        {
          "internalType": "address",
          "name": "_owner",
          "type": "address"
        }
      ],
      "name": "cancelCampaign",
      "outputs": [],
      "stateMutability": "nonpayable",
      "type": "function"
    },
    {
      "inputs": [
        {
          "internalType": "address",
          "name": "_owner",
          "type": "address"
        },
        {
          "internalType": "string",
          "name": "_title",
          "type": "string"
        },
        {
          "internalType": "string",
          "name": "_description",
          "type": "string"
        },
        {
          "internalType": "uint256",
          "name": "_target",
          "type": "uint256"
        },
        {
          "internalType": "uint256",
          "name": "_deadline",
          "type": "uint256"
        },
        {
          "internalType": "string",
          "name": "_image",
          "type": "string"
        }
      ],
      "name": "createCampaign",
      "outputs": [
        {
          "internalType": "uint256",
          "name": "",
          "type": "uint256"
        }
      ],
      "stateMutability": "nonpayable",
      "type": "function"
    },
    {
      "inputs": [
        {
          "internalType": "uint256",
          "name": "_id",
          "type": "uint256"
        }
      ],
      "name": "donateToCampaign",
      "outputs": [],
      "stateMutability": "payable",
      "type": "function"
    },
    {
      "inputs": [],
      "name": "getCampaigns",
      "outputs": [
        {
          "components": [
            {
              "internalType": "address",
              "name": "owner",
              "type": "address"
            },
            {
              "internalType": "string",
              "name": "title",
              "type": "string"
            },
            {
              "internalType": "string",
              "name": "description",
              "type": "string"
            },
            {
              "internalType": "uint256",
              "name": "target",
              "type": "uint256"
            },
            {
              "internalType": "uint256",
              "name": "deadline",
              "type": "uint256"
            },
            {
              "internalType": "uint256",
              "name": "amountCollected",
              "type": "uint256"
            },
            {
              "internalType": "string",
              "name": "image",
              "type": "string"
            },
            {
              "internalType": "address[]",
              "name": "donators",
              "type": "address[]"
            },
            {
              "internalType": "uint256[]",
              "name": "donations",
              "type": "uint256[]"
            },
            {
              "internalType": "bool",
              "name": "claimed",
              "type": "bool"
            }
          ],
          "internalType": "struct CrowdFund.Campaign[]",
          "name": "",
          "type": "tuple[]"
        }
      ],
      "stateMutability": "view",
      "type": "function"
    },
    {
      "inputs": [
        {
          "internalType": "uint256",
          "name": "_id",
          "type": "uint256"
        }
      ],
      "name": "getDonators",
      "outputs": [
        {
          "internalType": "address[]",
          "name": "",
          "type": "address[]"
        },
        {
          "internalType": "uint256[]",
          "name": "",
          "type": "uint256[]"
        }
      ],
      "stateMutability": "view",
      "type": "function"
    },
    {
      "inputs": [],
      "name": "i_feeAccount",
      "outputs": [
        {
          "internalType": "address",
          "name": "",
          "type": "address"
        }
      ],
      "stateMutability": "view",
      "type": "function"
    },
    {
      "inputs": [],
      "name": "i_feePercent",
      "outputs": [
        {
          "internalType": "uint256",
          "name": "",
          "type": "uint256"
        }
      ],
      "stateMutability": "view",
      "type": "function"
    },
    {
      "inputs": [],
      "name": "numberOfCampaigns",
      "outputs": [
        {
          "internalType": "uint256",
          "name": "",
          "type": "uint256"
        }
      ],
      "stateMutability": "view",
      "type": "function"
    }
  ],
  "bytecode": "0x60c0604052600060015534801561001557600080fd5b5060405161166e38038061166e8339810160408190526100349161004a565b6001600160a01b0390911660805260a052610084565b6000806040838503121561005d57600080fd5b82516001600160a01b038116811461007457600080fd5b6020939093015192949293505050565b60805160a0516115be6100b06000396000818161012801526108b3015260006101d301526115be6000f3fe6080604052600436106100865760003560e01c806339e9412f1161005957806339e9412f1461014a57806342a4fda81461016c5780639943e3a11461017f578063a6b036331461019f578063cb8ea281146101c157600080fd5b806307ca140d1461008b5780630fa91fa9146100b4578063141961bc146100e25780631771bd5714610116575b600080fd5b34801561009757600080fd5b506100a160015481565b6040519081526020015b60405180910390f35b3480156100c057600080fd5b506100d46100cf366004610f17565b61020d565b6040516100ab929190610f30565b3480156100ee57600080fd5b506101026100fd366004610f17565b6102dc565b6040516100ab989796959493929190610ffa565b34801561012257600080fd5b506100a17f000000000000000000000000000000000000000000000000000000000000000081565b34801561015657600080fd5b5061016a61016536600461108d565b6104c2565b005b61016a61017a366004610f17565b6108a9565b34801561018b57600080fd5b506100a161019a36600461115c565b6109b5565b3480156101ab57600080fd5b506101b4610ade565b6040516100ab919061127b565b3480156101cd57600080fd5b506101f57f000000000000000000000000000000000000000000000000000000000000000081565b6040516001600160a01b0390911681526020016100ab565b6000818152602081815260409182902060078101805484518185028101850190955280855260609485949293600801929091849183018282801561027a57602002820191906000526020600020905b81546001600160a01b0316815260019091019060200180831161025c575b50505050509150808054806020026020016040519081016040528092919081815260200182805480156102cc57602002820191906000526020600020905b8154815260200190600101908083116102b8575b5050505050905091509150915091565b600060208190529081526040902080546001820180546001600160a01b0390921692916103089061139f565b80601f01602080910402602001604051908101604052809291908181526020018280546103349061139f565b80156103815780601f1061035657610100808354040283529160200191610381565b820191906000526020600020905b81548152906001019060200180831161036457829003601f168201915b5050505050908060020180546103969061139f565b80601f01602080910402602001604051908101604052809291908181526020018280546103c29061139f565b801561040f5780601f106103e45761010080835404028352916020019161040f565b820191906000526020600020905b8154815290600101906020018083116103f257829003601f168201915b5050505050908060030154908060040154908060050154908060060180546104369061139f565b80601f01602080910402602001604051908101604052809291908181526020018280546104629061139f565b80156104af5780601f10610484576101008083540402835291602001916104af565b820191906000526020600020905b81548152906001019060200180831161049257829003601f168201915b5050506009909301549192505060ff1688565b6000828152602081815260408083208151610140810190925280546001600160a01b0316825260018101805492939192918401916104ff9061139f565b80601f016020809104026020016040519081016040528092919081815260200182805461052b9061139f565b80156105785780601f1061054d57610100808354040283529160200191610578565b820191906000526020600020905b81548152906001019060200180831161055b57829003601f168201915b505050505081526020016002820180546105919061139f565b80601f01602080910402602001604051908101604052809291908181526020018280546105bd9061139f565b801561060a5780601f106105df5761010080835404028352916020019161060a565b820191906000526020600020905b8154815290600101906020018083116105ed57829003601f168201915b505050505081526020016003820154815260200160048201548152602001600582015481526020016006820180546106419061139f565b80601f016020809104026020016040519081016040528092919081815260200182805461066d9061139f565b80156106ba5780601f1061068f576101008083540402835291602001916106ba565b820191906000526020600020905b81548152906001019060200180831161069d57829003601f168201915b505050505081526020016007820180548060200260200160405190810160405280929190818152602001828054801561071c57602002820191906000526020600020905b81546001600160a01b031681526001909101906020018083116106fe575b505050505081526020016008820180548060200260200160405190810160405280929190818152602001828054801561077457602002820191906000526020600020905b815481526020019060010190808311610760575b50505091835250506009919091015460ff16151560209091015290506001600160a01b03821633146107b95760405163f864ae5960e01b815260040160405180910390fd5b6107c6426276a7006113e9565b816080015111156107e95760405162231b6960e11b815260040160405180910390fd5b600083815260208190526040812080546001600160a01b0319168155906108136001830182610ea7565b610821600283016000610ea7565b6003820160009055600482016000905560058201600090556006820160006108499190610ea7565b610857600783016000610ee4565b610865600883016000610ee4565b50600901805460ff191690556040518381527ff5126d94294580c6b6461359fff83f8d78f67eaab6e1b834f8d9f2c2e1dbc7349060200160405180910390a1505050565b34600060646108d87f000000000000000000000000000000000000000000000000000000000000000084611402565b6108e29190611419565b905060006108f0828461143b565b600085815260208181526040808320600781018054600180820183559186528486200180546001600160a01b03191633179055600882018054918201815585529284209092018790558154905193945090926001600160a01b039091169084908381818185875af1925050503d8060008114610988576040519150601f19603f3d011682016040523d82523d6000602084013e61098d565b606091505b5050905080156109ad578282600501546109a791906113e9565b60058301555b505050505050565b60015460009081526020819052604081206004810154421180156109e857506109e1426276a7006113e9565b8160040154115b15610a0657604051639bcfc26d60e01b815260040160405180910390fd5b80546001600160a01b0319166001600160a01b03891617815560018101610a2d8882611499565b5060028101610a3c8782611499565b5060038101859055600481018490556000600582015560068101610a608482611499565b5060018054906000610a7183611559565b9091555050600154604080519182526020820187905281018590526001600160a01b038916907f405640b82691a494d04d95c2affc04b3e03b22faddc49d770fd03dd6d22d6cc19060600160405180910390a260018054610ad2919061143b565b98975050505050505050565b6060600060015467ffffffffffffffff811115610afd57610afd6110b9565b604051908082528060200260200182016040528015610b8f57816020015b610b7c60405180610140016040528060006001600160a01b0316815260200160608152602001606081526020016000815260200160008152602001600081526020016060815260200160608152602001606081526020016000151581525090565b815260200190600190039081610b1b5790505b50905060005b600154811015610ea157600081815260208181526040918290208251610140810190935280546001600160a01b0316835260018101805491939284929084019190610bdf9061139f565b80601f0160208091040260200160405190810160405280929190818152602001828054610c0b9061139f565b8015610c585780601f10610c2d57610100808354040283529160200191610c58565b820191906000526020600020905b815481529060010190602001808311610c3b57829003601f168201915b50505050508152602001600282018054610c719061139f565b80601f0160208091040260200160405190810160405280929190818152602001828054610c9d9061139f565b8015610cea5780601f10610cbf57610100808354040283529160200191610cea565b820191906000526020600020905b815481529060010190602001808311610ccd57829003601f168201915b50505050508152602001600382015481526020016004820154815260200160058201548152602001600682018054610d219061139f565b80601f0160208091040260200160405190810160405280929190818152602001828054610d4d9061139f565b8015610d9a5780601f10610d6f57610100808354040283529160200191610d9a565b820191906000526020600020905b815481529060010190602001808311610d7d57829003601f168201915b5050505050815260200160078201805480602002602001604051908101604052809291908181526020018280548015610dfc57602002820191906000526020600020905b81546001600160a01b03168152600190910190602001808311610dde575b5050505050815260200160088201805480602002602001604051908101604052809291908181526020018280548015610e5457602002820191906000526020600020905b815481526020019060010190808311610e40575b50505091835250506009919091015460ff1615156020909101528351849084908110610e8257610e82611572565b6020026020010181905250508080610e9990611559565b915050610b95565b50919050565b508054610eb39061139f565b6000825580601f10610ec3575050565b601f016020900490600052602060002090810190610ee19190610efe565b50565b5080546000825590600052602060002090810190610ee191905b5b80821115610f135760008155600101610eff565b5090565b600060208284031215610f2957600080fd5b5035919050565b604080825283519082018190526000906020906060840190828701845b82811015610f725781516001600160a01b031684529284019290840190600101610f4d565b5050508381038285015284518082528583019183019060005b81811015610fa757835183529284019291840191600101610f8b565b5090979650505050505050565b6000815180845260005b81811015610fda57602081850181015186830182015201610fbe565b506000602082860101526020601f19601f83011685010191505092915050565b6001600160a01b03891681526101006020820181905260009061101f8382018b610fb4565b90508281036040840152611033818a610fb4565b90508760608401528660808401528560a084015282810360c08401526110598186610fb4565b91505082151560e08301529998505050505050505050565b80356001600160a01b038116811461108857600080fd5b919050565b600080604083850312156110a057600080fd5b823591506110b060208401611071565b90509250929050565b634e487b7160e01b600052604160045260246000fd5b600082601f8301126110e057600080fd5b813567ffffffffffffffff808211156110fb576110fb6110b9565b604051601f8301601f19908116603f01168101908282118183101715611123576111236110b9565b8160405283815286602085880101111561113c57600080fd5b836020870160208301376000602085830101528094505050505092915050565b60008060008060008060c0878903121561117557600080fd5b61117e87611071565b9550602087013567ffffffffffffffff8082111561119b57600080fd5b6111a78a838b016110cf565b965060408901359150808211156111bd57600080fd5b6111c98a838b016110cf565b9550606089013594506080890135935060a08901359150808211156111ed57600080fd5b506111fa89828a016110cf565b9150509295509295509295565b600081518084526020808501945080840160005b838110156112405781516001600160a01b03168752958201959082019060010161121b565b509495945050505050565b600081518084526020808501945080840160005b838110156112405781518752958201959082019060010161125f565b60006020808301818452808551808352604092508286019150828160051b87010184880160005b8381101561139157888303603f19018552815180516001600160a01b0316845261014088820151818a8701526112da82870182610fb4565b91505087820151858203898701526112f28282610fb4565b606084810151908801526080808501519088015260a0808501519088015260c080850151888303828a0152919350915061132c8382610fb4565b9250505060e080830151868303828801526113478382611207565b925050506101008083015186830382880152611363838261124b565b9250505061012080830151925061137d8187018415159052565b5095880195935050908601906001016112a2565b509098975050505050505050565b600181811c908216806113b357607f821691505b602082108103610ea157634e487b7160e01b600052602260045260246000fd5b634e487b7160e01b600052601160045260246000fd5b808201808211156113fc576113fc6113d3565b92915050565b80820281158282048414176113fc576113fc6113d3565b60008261143657634e487b7160e01b600052601260045260246000fd5b500490565b818103818111156113fc576113fc6113d3565b601f82111561149457600081815260208120601f850160051c810160208610156114755750805b601f850160051c820191505b818110156109ad57828155600101611481565b505050565b815167ffffffffffffffff8111156114b3576114b36110b9565b6114c7816114c1845461139f565b8461144e565b602080601f8311600181146114fc57600084156114e45750858301515b600019600386901b1c1916600185901b1785556109ad565b600085815260208120601f198616915b8281101561152b5788860151825594840194600190910190840161150c565b50858210156115495787850151600019600388901b60f8161c191681555b5050505050600190811b01905550565b60006001820161156b5761156b6113d3565b5060010190565b634e487b7160e01b600052603260045260246000fdfea2646970667358221220ac15de6984c235b8f15eac705b8952cded39d07ae0bc149a57c7fa6c7722876164736f6c63430008110033",
  "linkReferences": {},
  "deployedLinkReferences": {}
}