{
  "_format": "hh-sol-artifact-1",
  "contractName": "CrowdFund",
  "sourceName": "contracts/CrowdFund.sol",
  "abi": [
    {
      "inputs": [
        {
          "internalType": "address",
          "name": "_feeAccount",
          "type": "address"
        },
        {
          "internalType": "uint256",
          "name": "_feePercent",
          "type": "uint256"
        },
        {
          "internalType": "address",
          "name": "priceFeeAddress",
          "type": "address"
        }
      ],
      "stateMutability": "nonpayable",
      "type": "constructor"
    },
    {
      "inputs": [],
      "name": "CrowdFund__Deadline",
      "type": "error"
    },
    {
      "inputs": [],
      "name": "CrowdFund__Ended",
      "type": "error"
    },
    {
      "inputs": [],
      "name": "CrowdFund__NotOwner",
      "type": "error"
    },
    {
      "inputs": [],
      "name": "CrowdFund__Required",
      "type": "error"
    },
    {
      "anonymous": false,
      "inputs": [
        {
          "indexed": false,
          "internalType": "uint256",
          "name": "id",
          "type": "uint256"
        },
        {
          "indexed": true,
          "internalType": "address",
          "name": "creator",
          "type": "address"
        },
        {
          "indexed": false,
          "internalType": "uint256",
          "name": "timestamp",
          "type": "uint256"
        }
      ],
      "name": "CancelCampaign",
      "type": "event"
    },
    {
      "anonymous": false,
      "inputs": [
        {
          "indexed": false,
          "internalType": "uint256",
          "name": "id",
          "type": "uint256"
        },
        {
          "indexed": true,
          "internalType": "address",
          "name": "creator",
          "type": "address"
        },
        {
          "indexed": false,
          "internalType": "enum CrowdFund.Category",
          "name": "category",
          "type": "uint8"
        },
        {
          "indexed": false,
          "internalType": "uint256",
          "name": "target",
          "type": "uint256"
        },
        {
          "indexed": false,
          "internalType": "uint256",
          "name": "deadline",
          "type": "uint256"
        }
      ],
      "name": "CreatedCampaign",
      "type": "event"
    },
    {
      "anonymous": false,
      "inputs": [
        {
          "indexed": false,
          "internalType": "uint256",
          "name": "id",
          "type": "uint256"
        },
        {
          "indexed": true,
          "internalType": "address",
          "name": "donator",
          "type": "address"
        },
        {
          "indexed": false,
          "internalType": "uint256",
          "name": "value",
          "type": "uint256"
        },
        {
          "indexed": false,
          "internalType": "uint256",
          "name": "timestamp",
          "type": "uint256"
        }
      ],
      "name": "DonatedCampaign",
      "type": "event"
    },
    {
      "anonymous": false,
      "inputs": [
        {
          "indexed": false,
          "internalType": "uint256",
          "name": "id",
          "type": "uint256"
        },
        {
          "indexed": true,
          "internalType": "address",
          "name": "creator",
          "type": "address"
        },
        {
          "indexed": false,
          "internalType": "uint256",
          "name": "donations",
          "type": "uint256"
        },
        {
          "indexed": false,
          "internalType": "uint256",
          "name": "timestamp",
          "type": "uint256"
        }
      ],
      "name": "PaidOutCampaign",
      "type": "event"
    },
    {
      "anonymous": false,
      "inputs": [
        {
          "indexed": false,
          "internalType": "uint256",
          "name": "id",
          "type": "uint256"
        },
        {
          "indexed": true,
          "internalType": "address",
          "name": "creator",
          "type": "address"
        }
      ],
      "name": "RefundCampaign",
      "type": "event"
    },
    {
      "anonymous": false,
      "inputs": [
        {
          "indexed": false,
          "internalType": "uint256",
          "name": "id",
          "type": "uint256"
        },
        {
          "indexed": false,
          "internalType": "uint256",
          "name": "newTarget",
          "type": "uint256"
        },
        {
          "indexed": false,
          "internalType": "uint256",
          "name": "newDeadline",
          "type": "uint256"
        }
      ],
      "name": "UpdatedCampaign",
      "type": "event"
    },
    {
      "anonymous": false,
      "inputs": [
        {
          "indexed": false,
          "internalType": "uint256",
          "name": "id",
          "type": "uint256"
        },
        {
          "indexed": true,
          "internalType": "address",
          "name": "creator",
          "type": "address"
        }
      ],
      "name": "WithdrawCampaign",
      "type": "event"
    },
    {
      "inputs": [],
      "name": "authorizedExecutor",
      "outputs": [
        {
          "internalType": "address",
          "name": "",
          "type": "address"
        }
      ],
      "stateMutability": "view",
      "type": "function"
    },
    {
      "inputs": [
        {
          "internalType": "uint256",
          "name": "_id",
          "type": "uint256"
        }
      ],
      "name": "cancelCampaign",
      "outputs": [],
      "stateMutability": "nonpayable",
      "type": "function"
    },
    {
      "inputs": [
        {
          "internalType": "bytes",
          "name": "",
          "type": "bytes"
        }
      ],
      "name": "checkUpkeep",
      "outputs": [
        {
          "internalType": "bool",
          "name": "upkeepNeeded",
          "type": "bool"
        },
        {
          "internalType": "bytes",
          "name": "performData",
          "type": "bytes"
        }
      ],
      "stateMutability": "view",
      "type": "function"
    },
    {
      "inputs": [
        {
          "internalType": "enum CrowdFund.Category",
          "name": "_category",
          "type": "uint8"
        },
        {
          "internalType": "string",
          "name": "_title",
          "type": "string"
        },
        {
          "internalType": "string",
          "name": "_description",
          "type": "string"
        },
        {
          "internalType": "uint256",
          "name": "_target",
          "type": "uint256"
        },
        {
          "internalType": "uint256",
          "name": "_deadline",
          "type": "uint256"
        },
        {
          "internalType": "string",
          "name": "_image",
          "type": "string"
        }
      ],
      "name": "createCampaign",
      "outputs": [
        {
          "internalType": "uint256",
          "name": "",
          "type": "uint256"
        }
      ],
      "stateMutability": "nonpayable",
      "type": "function"
    },
    {
      "inputs": [
        {
          "internalType": "uint256",
          "name": "_id",
          "type": "uint256"
        }
      ],
      "name": "donateToCampaign",
      "outputs": [],
      "stateMutability": "payable",
      "type": "function"
    },
    {
      "inputs": [
        {
          "internalType": "uint256",
          "name": "_id",
          "type": "uint256"
        }
      ],
      "name": "getBalance",
      "outputs": [
        {
          "internalType": "uint256",
          "name": "",
          "type": "uint256"
        }
      ],
      "stateMutability": "view",
      "type": "function"
    },
    {
      "inputs": [
        {
          "internalType": "uint256",
          "name": "_id",
          "type": "uint256"
        }
      ],
      "name": "getCampaign",
      "outputs": [
        {
          "components": [
            {
              "internalType": "uint256",
              "name": "id",
              "type": "uint256"
            },
            {
              "internalType": "address",
              "name": "owner",
              "type": "address"
            },
            {
              "internalType": "string",
              "name": "title",
              "type": "string"
            },
            {
              "internalType": "string",
              "name": "description",
              "type": "string"
            },
            {
              "internalType": "uint256",
              "name": "target",
              "type": "uint256"
            },
            {
              "internalType": "uint256",
              "name": "deadline",
              "type": "uint256"
            },
            {
              "internalType": "uint256",
              "name": "amountCollected",
              "type": "uint256"
            },
            {
              "internalType": "string",
              "name": "image",
              "type": "string"
            },
            {
              "internalType": "address[]",
              "name": "donators",
              "type": "address[]"
            },
            {
              "internalType": "uint256[]",
              "name": "donations",
              "type": "uint256[]"
            },
            {
              "internalType": "enum CrowdFund.CampaignStatus",
              "name": "status",
              "type": "uint8"
            },
            {
              "internalType": "enum CrowdFund.Category",
              "name": "category",
              "type": "uint8"
            },
            {
              "internalType": "bool",
              "name": "refunded",
              "type": "bool"
            }
          ],
          "internalType": "struct CrowdFund.Campaign",
          "name": "",
          "type": "tuple"
        }
      ],
      "stateMutability": "view",
      "type": "function"
    },
    {
      "inputs": [],
      "name": "getCampaigns",
      "outputs": [
        {
          "components": [
            {
              "internalType": "uint256",
              "name": "id",
              "type": "uint256"
            },
            {
              "internalType": "address",
              "name": "owner",
              "type": "address"
            },
            {
              "internalType": "string",
              "name": "title",
              "type": "string"
            },
            {
              "internalType": "string",
              "name": "description",
              "type": "string"
            },
            {
              "internalType": "uint256",
              "name": "target",
              "type": "uint256"
            },
            {
              "internalType": "uint256",
              "name": "deadline",
              "type": "uint256"
            },
            {
              "internalType": "uint256",
              "name": "amountCollected",
              "type": "uint256"
            },
            {
              "internalType": "string",
              "name": "image",
              "type": "string"
            },
            {
              "internalType": "address[]",
              "name": "donators",
              "type": "address[]"
            },
            {
              "internalType": "uint256[]",
              "name": "donations",
              "type": "uint256[]"
            },
            {
              "internalType": "enum CrowdFund.CampaignStatus",
              "name": "status",
              "type": "uint8"
            },
            {
              "internalType": "enum CrowdFund.Category",
              "name": "category",
              "type": "uint8"
            },
            {
              "internalType": "bool",
              "name": "refunded",
              "type": "bool"
            }
          ],
          "internalType": "struct CrowdFund.Campaign[]",
          "name": "",
          "type": "tuple[]"
        }
      ],
      "stateMutability": "view",
      "type": "function"
    },
    {
      "inputs": [],
      "name": "getContractBalance",
      "outputs": [
        {
          "internalType": "uint256",
          "name": "",
          "type": "uint256"
        }
      ],
      "stateMutability": "view",
      "type": "function"
    },
    {
      "inputs": [
        {
          "internalType": "uint256",
          "name": "_id",
          "type": "uint256"
        }
      ],
      "name": "getDonators",
      "outputs": [
        {
          "internalType": "address[]",
          "name": "",
          "type": "address[]"
        },
        {
          "internalType": "uint256[]",
          "name": "",
          "type": "uint256[]"
        }
      ],
      "stateMutability": "view",
      "type": "function"
    },
    {
      "inputs": [],
      "name": "getFeeAccount",
      "outputs": [
        {
          "internalType": "address",
          "name": "",
          "type": "address"
        }
      ],
      "stateMutability": "view",
      "type": "function"
    },
    {
      "inputs": [],
      "name": "getFeePercent",
      "outputs": [
        {
          "internalType": "uint256",
          "name": "",
          "type": "uint256"
        }
      ],
      "stateMutability": "view",
      "type": "function"
    },
    {
      "inputs": [],
      "name": "getPriceFeed",
      "outputs": [
        {
          "internalType": "contract AggregatorV3Interface",
          "name": "",
          "type": "address"
        }
      ],
      "stateMutability": "view",
      "type": "function"
    },
    {
      "inputs": [
        {
          "internalType": "uint256",
          "name": "_id",
          "type": "uint256"
        }
      ],
      "name": "getRefundStatus",
      "outputs": [
        {
          "internalType": "bool",
          "name": "",
          "type": "bool"
        }
      ],
      "stateMutability": "view",
      "type": "function"
    },
    {
      "inputs": [
        {
          "internalType": "uint256",
          "name": "_id",
          "type": "uint256"
        }
      ],
      "name": "getRemainingTime",
      "outputs": [
        {
          "internalType": "uint256",
          "name": "",
          "type": "uint256"
        }
      ],
      "stateMutability": "view",
      "type": "function"
    },
    {
      "inputs": [
        {
          "internalType": "uint256",
          "name": "_id",
          "type": "uint256"
        }
      ],
      "name": "getStatus",
      "outputs": [
        {
          "internalType": "enum CrowdFund.CampaignStatus",
          "name": "_status",
          "type": "uint8"
        }
      ],
      "stateMutability": "view",
      "type": "function"
    },
    {
      "inputs": [
        {
          "internalType": "bytes",
          "name": "performData",
          "type": "bytes"
        }
      ],
      "name": "performUpkeep",
      "outputs": [],
      "stateMutability": "nonpayable",
      "type": "function"
    },
    {
      "inputs": [
        {
          "internalType": "uint256",
          "name": "_id",
          "type": "uint256"
        }
      ],
      "name": "refundCampaign",
      "outputs": [],
      "stateMutability": "nonpayable",
      "type": "function"
    },
    {
      "inputs": [
        {
          "internalType": "uint256",
          "name": "",
          "type": "uint256"
        }
      ],
      "name": "s_campaignExist",
      "outputs": [
        {
          "internalType": "bool",
          "name": "",
          "type": "bool"
        }
      ],
      "stateMutability": "view",
      "type": "function"
    },
    {
      "inputs": [],
      "name": "s_numberOfCampaigns",
      "outputs": [
        {
          "internalType": "uint256",
          "name": "",
          "type": "uint256"
        }
      ],
      "stateMutability": "view",
      "type": "function"
    },
    {
      "inputs": [
        {
          "internalType": "address",
          "name": "_executor",
          "type": "address"
        }
      ],
      "name": "setAuthorizedExecutor",
      "outputs": [],
      "stateMutability": "nonpayable",
      "type": "function"
    },
    {
      "inputs": [
        {
          "internalType": "uint256",
          "name": "_id",
          "type": "uint256"
        },
        {
          "internalType": "enum CrowdFund.CampaignStatus",
          "name": "_status",
          "type": "uint8"
        }
      ],
      "name": "setCampaignStatus",
      "outputs": [],
      "stateMutability": "nonpayable",
      "type": "function"
    },
    {
      "inputs": [
        {
          "internalType": "uint256",
          "name": "_fee",
          "type": "uint256"
        }
      ],
      "name": "setFee",
      "outputs": [],
      "stateMutability": "nonpayable",
      "type": "function"
    },
    {
      "inputs": [
        {
          "internalType": "uint256",
          "name": "_id",
          "type": "uint256"
        },
        {
          "internalType": "uint256",
          "name": "_newTarget",
          "type": "uint256"
        },
        {
          "internalType": "uint256",
          "name": "_newDeadline",
          "type": "uint256"
        }
      ],
      "name": "updateCampaign",
      "outputs": [],
      "stateMutability": "nonpayable",
      "type": "function"
    },
    {
      "inputs": [
        {
          "internalType": "uint256",
          "name": "_id",
          "type": "uint256"
        }
      ],
      "name": "withdrawCampaign",
      "outputs": [],
      "stateMutability": "payable",
      "type": "function"
    },
    {
      "inputs": [],
      "name": "withdrawFromContract",
      "outputs": [],
      "stateMutability": "nonpayable",
      "type": "function"
    }
  ],
  "bytecode": "0x60a060405260006004553480156200001657600080fd5b506040516200453d3803806200453d83398181016040528101906200003c9190620001a7565b8273ffffffffffffffffffffffffffffffffffffffff1660808173ffffffffffffffffffffffffffffffffffffffff16815250508160018190555033600260006101000a81548173ffffffffffffffffffffffffffffffffffffffff021916908373ffffffffffffffffffffffffffffffffffffffff16021790555080600360006101000a81548173ffffffffffffffffffffffffffffffffffffffff021916908373ffffffffffffffffffffffffffffffffffffffff16021790555050505062000203565b600080fd5b600073ffffffffffffffffffffffffffffffffffffffff82169050919050565b6000620001348262000107565b9050919050565b620001468162000127565b81146200015257600080fd5b50565b60008151905062000166816200013b565b92915050565b6000819050919050565b62000181816200016c565b81146200018d57600080fd5b50565b600081519050620001a18162000176565b92915050565b600080600060608486031215620001c357620001c262000102565b5b6000620001d38682870162000155565b9350506020620001e68682870162000190565b9250506040620001f98682870162000155565b9150509250925092565b6080516143106200022d600039600081816111550152818161172d0152612c2d01526143106000f3fe6080604052600436106101815760003560e01c806369fe0e2d116100d1578063a78103221161008a578063d188c04911610064578063d188c049146105a2578063e681789d146105cb578063f487a65c146105f4578063f59a9bb01461061f57610181565b8063a781032214610511578063be74264d1461053a578063cad240e51461056557610181565b806369fe0e2d1461040d5780636e04ff0d146104365780636f9fb98a146104745780637684fc861461049f5780639e87a5cd146104bb578063a6b03633146104e657610181565b806342a4fda81161013e5780634614be9f116101185780634614be9f146103515780635598f8cc1461037c5780635c622a0e146103b95780635f589e42146103f657610181565b806342a4fda8146102e357806345598b4a146102ff5780634585e33b1461032857610181565b80630fa91fa914610186578063106b4871146101c457806313dd495b14610201578063181e01241461022c5780631e01043914610269578063359d2411146102a6575b600080fd5b34801561019257600080fd5b506101ad60048036038101906101a89190612f08565b610648565b6040516101bb9291906130e3565b60405180910390f35b3480156101d057600080fd5b506101eb60048036038101906101e69190612f08565b61075a565b6040516101f89190613135565b60405180910390f35b34801561020d57600080fd5b50610216610b37565b604051610223919061315f565b60405180910390f35b34801561023857600080fd5b50610253600480360381019061024e9190612f08565b610b5b565b6040516102609190613189565b60405180910390f35b34801561027557600080fd5b50610290600480360381019061028b9190612f08565b610bfe565b60405161029d9190613189565b60405180910390f35b3480156102b257600080fd5b506102cd60048036038101906102c89190612f08565b610c55565b6040516102da9190613135565b60405180910390f35b6102fd60048036038101906102f89190612f08565b610c75565b005b34801561030b57600080fd5b5061032660048036038101906103219190612f08565b610ee2565b005b34801561033457600080fd5b5061034f600480360381019061034a91906132ea565b611146565b005b34801561035d57600080fd5b50610366611151565b604051610373919061315f565b60405180910390f35b34801561038857600080fd5b506103a3600480360381019061039e9190612f08565b611179565b6040516103b09190613693565b60405180910390f35b3480156103c557600080fd5b506103e060048036038101906103db9190612f08565b611552565b6040516103ed91906136c4565b60405180910390f35b34801561040257600080fd5b5061040b61157f565b005b34801561041957600080fd5b50610434600480360381019061042f9190612f08565b611671565b005b34801561044257600080fd5b5061045d6004803603810190610458919061373f565b611702565b60405161046b9291906137e1565b60405180910390f35b34801561048057600080fd5b50610489611729565b6040516104969190613189565b60405180910390f35b6104b960048036038101906104b49190612f08565b611768565b005b3480156104c757600080fd5b506104d06119e6565b6040516104dd9190613870565b60405180910390f35b3480156104f257600080fd5b506104fb611a10565b6040516105089190613a82565b60405180910390f35b34801561051d57600080fd5b5061053860048036038101906105339190613aa4565b611e82565b005b34801561054657600080fd5b5061054f61202b565b60405161055c9190613189565b60405180910390f35b34801561057157600080fd5b5061058c60048036038101906105879190613bbd565b612035565b6040516105999190613189565b60405180910390f35b3480156105ae57600080fd5b506105c960048036038101906105c49190613cca565b61233a565b005b3480156105d757600080fd5b506105f260048036038101906105ed9190613d1c565b612404565b005b34801561060057600080fd5b5061060961252a565b6040516106169190613189565b60405180910390f35b34801561062b57600080fd5b5061064660048036038101906106419190612f08565b612530565b005b6060806005600084815260200190815260200160002060080160056000858152602001908152602001600020600901818054806020026020016040519081016040528092919081815260200182805480156106f857602002820191906000526020600020905b8160009054906101000a900473ffffffffffffffffffffffffffffffffffffffff1673ffffffffffffffffffffffffffffffffffffffff16815260200190600101908083116106ae575b505050505091508080548060200260200160405190810160405280929190818152602001828054801561074a57602002820191906000526020600020905b815481526020019060010190808311610736575b5050505050905091509150915091565b60008060056000848152602001908152602001600020604051806101a0016040529081600082015481526020016001820160009054906101000a900473ffffffffffffffffffffffffffffffffffffffff1673ffffffffffffffffffffffffffffffffffffffff1673ffffffffffffffffffffffffffffffffffffffff1681526020016002820180546107ec90613d8b565b80601f016020809104026020016040519081016040528092919081815260200182805461081890613d8b565b80156108655780601f1061083a57610100808354040283529160200191610865565b820191906000526020600020905b81548152906001019060200180831161084857829003601f168201915b5050505050815260200160038201805461087e90613d8b565b80601f01602080910402602001604051908101604052809291908181526020018280546108aa90613d8b565b80156108f75780601f106108cc576101008083540402835291602001916108f7565b820191906000526020600020905b8154815290600101906020018083116108da57829003601f168201915b5050505050815260200160048201548152602001600582015481526020016006820154815260200160078201805461092e90613d8b565b80601f016020809104026020016040519081016040528092919081815260200182805461095a90613d8b565b80156109a75780601f1061097c576101008083540402835291602001916109a7565b820191906000526020600020905b81548152906001019060200180831161098a57829003601f168201915b5050505050815260200160088201805480602002602001604051908101604052809291908181526020018280548015610a3557602002820191906000526020600020905b8160009054906101000a900473ffffffffffffffffffffffffffffffffffffffff1673ffffffffffffffffffffffffffffffffffffffff16815260200190600101908083116109eb575b5050505050815260200160098201805480602002602001604051908101604052809291908181526020018280548015610a8d57602002820191906000526020600020905b815481526020019060010190808311610a79575b50505050508152602001600a820160009054906101000a900460ff166004811115610abb57610aba613490565b5b6004811115610acd57610acc613490565b5b8152602001600a820160019054906101000a900460ff166004811115610af657610af5613490565b5b6004811115610b0857610b07613490565b5b8152602001600a820160029054906101000a900460ff1615151515815250509050806101800151915050919050565b60008054906101000a900473ffffffffffffffffffffffffffffffffffffffff1681565b6000806005600084815260200190815260200160002090506006600084815260200190815260200160002060009054906101000a900460ff16610bca576040517fadafbc9600000000000000000000000000000000000000000000000000000000815260040160405180910390fd5b60008160050154421015610bef57428260050154610be89190613deb565b9050610bf4565b600090505b8092505050919050565b60006005600083815260200190815260200160002060010160009054906101000a900473ffffffffffffffffffffffffffffffffffffffff1673ffffffffffffffffffffffffffffffffffffffff16319050919050565b60066020528060005260406000206000915054906101000a900460ff1681565b80600060056000838152602001908152602001600020905060006004811115610ca157610ca0613490565b5b81600a0160009054906101000a900460ff166004811115610cc557610cc4613490565b5b14610cfc576040517fadafbc9600000000000000000000000000000000000000000000000000000000815260040160405180910390fd5b600060056000858152602001908152602001600020905060003490506006600086815260200190815260200160002060009054906101000a900460ff16610d6f576040517fadafbc9600000000000000000000000000000000000000000000000000000000815260040160405180910390fd5b81600801339080600181540180825580915050600190039060005260206000200160009091909190916101000a81548173ffffffffffffffffffffffffffffffffffffffff021916908373ffffffffffffffffffffffffffffffffffffffff1602179055508160090181908060018154018082558091505060019003906000526020600020016000909190919091505580826006016000828254610e139190613e1f565b925050819055503373ffffffffffffffffffffffffffffffffffffffff167f655351f1bf449402dc56dbd84887de4bf8ee15fb1e442c4c68199b7fc5b6ad60868342604051610e6493929190613e53565b60405180910390a28160040154826006015410610ead57600182600a0160006101000a81548160ff02191690836004811115610ea357610ea2613490565b5b0217905550610edb565b600082600a0160006101000a81548160ff02191690836004811115610ed557610ed4613490565b5b02179055505b5050505050565b8060006005600083815260200190815260200160002090503373ffffffffffffffffffffffffffffffffffffffff168160010160009054906101000a900473ffffffffffffffffffffffffffffffffffffffff1673ffffffffffffffffffffffffffffffffffffffff1614610f83576040517ff864ae5900000000000000000000000000000000000000000000000000000000815260040160405180910390fd5b82600060056000838152602001908152602001600020905060006004811115610faf57610fae613490565b5b81600a0160009054906101000a900460ff166004811115610fd357610fd2613490565b5b1461100a576040517fadafbc9600000000000000000000000000000000000000000000000000000000815260040160405180910390fd5b60006005600087815260200190815260200160002090503373ffffffffffffffffffffffffffffffffffffffff168160010160009054906101000a900473ffffffffffffffffffffffffffffffffffffffff1673ffffffffffffffffffffffffffffffffffffffff16146110aa576040517ff864ae5900000000000000000000000000000000000000000000000000000000815260040160405180910390fd5b600381600a0160006101000a81548160ff021916908360048111156110d2576110d1613490565b5b02179055506000816006015411156110ee576110ed866127c1565b5b3373ffffffffffffffffffffffffffffffffffffffff167fdaf42e53ca58d1d28d99e69c2f45565d7fbf704482f0641b81eeb42ef07462f38742604051611136929190613e8a565b60405180910390a2505050505050565b61114e61293c565b50565b60007f0000000000000000000000000000000000000000000000000000000000000000905090565b611181612d26565b60056000838152602001908152602001600020604051806101a0016040529081600082015481526020016001820160009054906101000a900473ffffffffffffffffffffffffffffffffffffffff1673ffffffffffffffffffffffffffffffffffffffff1673ffffffffffffffffffffffffffffffffffffffff16815260200160028201805461121090613d8b565b80601f016020809104026020016040519081016040528092919081815260200182805461123c90613d8b565b80156112895780601f1061125e57610100808354040283529160200191611289565b820191906000526020600020905b81548152906001019060200180831161126c57829003601f168201915b505050505081526020016003820180546112a290613d8b565b80601f01602080910402602001604051908101604052809291908181526020018280546112ce90613d8b565b801561131b5780601f106112f05761010080835404028352916020019161131b565b820191906000526020600020905b8154815290600101906020018083116112fe57829003601f168201915b5050505050815260200160048201548152602001600582015481526020016006820154815260200160078201805461135290613d8b565b80601f016020809104026020016040519081016040528092919081815260200182805461137e90613d8b565b80156113cb5780601f106113a0576101008083540402835291602001916113cb565b820191906000526020600020905b8154815290600101906020018083116113ae57829003601f168201915b505050505081526020016008820180548060200260200160405190810160405280929190818152602001828054801561145957602002820191906000526020600020905b8160009054906101000a900473ffffffffffffffffffffffffffffffffffffffff1673ffffffffffffffffffffffffffffffffffffffff168152602001906001019080831161140f575b50505050508152602001600982018054806020026020016040519081016040528092919081815260200182805480156114b157602002820191906000526020600020905b81548152602001906001019080831161149d575b50505050508152602001600a820160009054906101000a900460ff1660048111156114df576114de613490565b5b60048111156114f1576114f0613490565b5b8152602001600a820160019054906101000a900460ff16600481111561151a57611519613490565b5b600481111561152c5761152b613490565b5b8152602001600a820160029054906101000a900460ff1615151515815250509050919050565b600060056000838152602001908152602001600020600a0160009054906101000a900460ff169050919050565b600260009054906101000a900473ffffffffffffffffffffffffffffffffffffffff1673ffffffffffffffffffffffffffffffffffffffff163373ffffffffffffffffffffffffffffffffffffffff1614611606576040517ff864ae5900000000000000000000000000000000000000000000000000000000815260040160405180910390fd5b600260009054906101000a900473ffffffffffffffffffffffffffffffffffffffff1673ffffffffffffffffffffffffffffffffffffffff166108fc479081150290604051600060405180830381858888f1935050505015801561166e573d6000803e3d6000fd5b50565b600260009054906101000a900473ffffffffffffffffffffffffffffffffffffffff1673ffffffffffffffffffffffffffffffffffffffff163373ffffffffffffffffffffffffffffffffffffffff16146116f8576040517ff864ae5900000000000000000000000000000000000000000000000000000000815260040160405180910390fd5b8060018190555050565b6000606061170e612b06565b91506040518060200160405280600081525090509250929050565b60007f000000000000000000000000000000000000000000000000000000000000000073ffffffffffffffffffffffffffffffffffffffff1631905090565b8060006005600083815260200190815260200160002090503373ffffffffffffffffffffffffffffffffffffffff168160010160009054906101000a900473ffffffffffffffffffffffffffffffffffffffff1673ffffffffffffffffffffffffffffffffffffffff1614611809576040517ff864ae5900000000000000000000000000000000000000000000000000000000815260040160405180910390fd5b60006005600085815260200190815260200160002090506001600481111561183457611833613490565b5b81600a0160009054906101000a900460ff16600481111561185857611857613490565b5b1415801561189c57506002600481111561187557611874613490565b5b81600a0160009054906101000a900460ff16600481111561189957611898613490565b5b14155b156118d3576040517fadafbc9600000000000000000000000000000000000000000000000000000000815260040160405180910390fd5b8060010160009054906101000a900473ffffffffffffffffffffffffffffffffffffffff1673ffffffffffffffffffffffffffffffffffffffff163373ffffffffffffffffffffffffffffffffffffffff161461195c576040517ff864ae5900000000000000000000000000000000000000000000000000000000815260040160405180910390fd5b600481600a0160006101000a81548160ff0219169083600481111561198457611983613490565b5b021790555061199284612b3e565b3373ffffffffffffffffffffffffffffffffffffffff167fa00565430f3e0378018049de79b214a549b4193d49c14b535c3eef83581ebc51856040516119d89190613189565b60405180910390a250505050565b6000600360009054906101000a900473ffffffffffffffffffffffffffffffffffffffff16905090565b6060600060045467ffffffffffffffff811115611a3057611a2f6131bf565b5b604051908082528060200260200182016040528015611a6957816020015b611a56612d26565b815260200190600190039081611a4e5790505b50905060005b600454811015611e7a57600060056000838152602001908152602001600020905080604051806101a0016040529081600082015481526020016001820160009054906101000a900473ffffffffffffffffffffffffffffffffffffffff1673ffffffffffffffffffffffffffffffffffffffff1673ffffffffffffffffffffffffffffffffffffffff168152602001600282018054611b0d90613d8b565b80601f0160208091040260200160405190810160405280929190818152602001828054611b3990613d8b565b8015611b865780601f10611b5b57610100808354040283529160200191611b86565b820191906000526020600020905b815481529060010190602001808311611b6957829003601f168201915b50505050508152602001600382018054611b9f90613d8b565b80601f0160208091040260200160405190810160405280929190818152602001828054611bcb90613d8b565b8015611c185780601f10611bed57610100808354040283529160200191611c18565b820191906000526020600020905b815481529060010190602001808311611bfb57829003601f168201915b50505050508152602001600482015481526020016005820154815260200160068201548152602001600782018054611c4f90613d8b565b80601f0160208091040260200160405190810160405280929190818152602001828054611c7b90613d8b565b8015611cc85780601f10611c9d57610100808354040283529160200191611cc8565b820191906000526020600020905b815481529060010190602001808311611cab57829003601f168201915b5050505050815260200160088201805480602002602001604051908101604052809291908181526020018280548015611d5657602002820191906000526020600020905b8160009054906101000a900473ffffffffffffffffffffffffffffffffffffffff1673ffffffffffffffffffffffffffffffffffffffff1681526020019060010190808311611d0c575b5050505050815260200160098201805480602002602001604051908101604052809291908181526020018280548015611dae57602002820191906000526020600020905b815481526020019060010190808311611d9a575b50505050508152602001600a820160009054906101000a900460ff166004811115611ddc57611ddb613490565b5b6004811115611dee57611ded613490565b5b8152602001600a820160019054906101000a900460ff166004811115611e1757611e16613490565b5b6004811115611e2957611e28613490565b5b8152602001600a820160029054906101000a900460ff161515151581525050838381518110611e5b57611e5a613eb3565b5b6020026020010181905250508080611e7290613ee2565b915050611a6f565b508091505090565b8260006005600083815260200190815260200160002090503373ffffffffffffffffffffffffffffffffffffffff168160010160009054906101000a900473ffffffffffffffffffffffffffffffffffffffff1673ffffffffffffffffffffffffffffffffffffffff1614611f23576040517ff864ae5900000000000000000000000000000000000000000000000000000000815260040160405180910390fd5b600060056000878152602001908152602001600020905060026004811115611f4e57611f4d613490565b5b81600a0160009054906101000a900460ff166004811115611f7257611f71613490565b5b14611fa9576040517fadafbc9600000000000000000000000000000000000000000000000000000000815260040160405180910390fd5b848160040181905550838160050181905550600081600a0160006101000a81548160ff02191690836004811115611fe357611fe2613490565b5b02179055507f5b0c82513cc7f1f8087a09ca71440f01a3e4bbc6c46495f1004842a1bc1dede086868660405161201b93929190613e53565b60405180910390a1505050505050565b6000600154905090565b600080841015612071576040517fadafbc9600000000000000000000000000000000000000000000000000000000815260040160405180910390fd5b4283116120aa576040517fadafbc9600000000000000000000000000000000000000000000000000000000815260040160405180910390fd5b600060056000600454815260200190815260200160002090506004548160000181905550338160010160006101000a81548173ffffffffffffffffffffffffffffffffffffffff021916908373ffffffffffffffffffffffffffffffffffffffff1602179055508681600201908161212291906140cc565b508581600301908161213491906140cc565b50848160040181905550838160050181905550600081600601819055508281600701908161216291906140cc565b50600067ffffffffffffffff81111561217e5761217d6131bf565b5b6040519080825280602002602001820160405280156121ac5781602001602082028036833780820191505090505b508160080190805190602001906121c4929190612dca565b50600067ffffffffffffffff8111156121e0576121df6131bf565b5b60405190808252806020026020018201604052801561220e5781602001602082028036833780820191505090505b50816009019080519060200190612226929190612e54565b508781600a0160016101000a81548160ff0219169083600481111561224e5761224d613490565b5b0217905550600081600a0160006101000a81548160ff0219169083600481111561227b5761227a613490565b5b02179055506001600660008360000154815260200190815260200160002060006101000a81548160ff021916908315150217905550600460008154809291906122c390613ee2565b91905055503373ffffffffffffffffffffffffffffffffffffffff167f944e037155521668ebad86014260c643358e41123a5b998e18489a10ff11ea036004548a888860405161231694939291906141ad565b60405180910390a2600160045461232d9190613deb565b9150509695505050505050565b600260009054906101000a900473ffffffffffffffffffffffffffffffffffffffff1673ffffffffffffffffffffffffffffffffffffffff163373ffffffffffffffffffffffffffffffffffffffff16146123c1576040517ff864ae5900000000000000000000000000000000000000000000000000000000815260040160405180910390fd5b806000806101000a81548173ffffffffffffffffffffffffffffffffffffffff021916908373ffffffffffffffffffffffffffffffffffffffff16021790555050565b600260009054906101000a900473ffffffffffffffffffffffffffffffffffffffff1673ffffffffffffffffffffffffffffffffffffffff163373ffffffffffffffffffffffffffffffffffffffff161461248b576040517ff864ae5900000000000000000000000000000000000000000000000000000000815260040160405180910390fd5b60006005600084815260200190815260200160002090506006600084815260200190815260200160002060009054906101000a900460ff166124f9576040517fadafbc9600000000000000000000000000000000000000000000000000000000815260040160405180910390fd5b8181600a0160006101000a81548160ff021916908360048111156125205761251f613490565b5b0217905550505050565b60045481565b8060006005600083815260200190815260200160002090503373ffffffffffffffffffffffffffffffffffffffff168160010160009054906101000a900473ffffffffffffffffffffffffffffffffffffffff1673ffffffffffffffffffffffffffffffffffffffff16146125d1576040517ff864ae5900000000000000000000000000000000000000000000000000000000815260040160405180910390fd5b6000600560008581526020019081526020016000209050600260048111156125fc576125fb613490565b5b81600a0160009054906101000a900460ff1660048111156126205761261f613490565b5b148061266157506003600481111561263b5761263a613490565b5b81600a0160009054906101000a900460ff16600481111561265f5761265e613490565b5b145b806126a0575060048081111561267a57612679613490565b5b81600a0160009054906101000a900460ff16600481111561269e5761269d613490565b5b145b156126d6576040517e4636d200000000000000000000000000000000000000000000000000000000815260040160405180910390fd5b80600501544210612713576040517f9bcfc26d00000000000000000000000000000000000000000000000000000000815260040160405180910390fd5b600281600a0160006101000a81548160ff0219169083600481111561273b5761273a613490565b5b0217905550612749846127c1565b8060010160009054906101000a900473ffffffffffffffffffffffffffffffffffffffff1673ffffffffffffffffffffffffffffffffffffffff167f7499a145dac6baa4e55462de49ee33dd9526640a55399705c6eb4daebcd7f577856040516127b39190613189565b60405180910390a250505050565b6000600560008381526020019081526020016000209050600360048111156127ec576127eb613490565b5b81600a0160009054906101000a900460ff1660048111156128105761280f613490565b5b1415801561285457506002600481111561282d5761282c613490565b5b81600a0160009054906101000a900460ff16600481111561285157612850613490565b5b14155b1561288b576040517fadafbc9600000000000000000000000000000000000000000000000000000000815260040160405180910390fd5b60005b816009018054905081101561291a576129078260080182815481106128b6576128b5613eb3565b5b9060005260206000200160009054906101000a900473ffffffffffffffffffffffffffffffffffffffff168360090183815481106128f7576128f6613eb3565b5b9060005260206000200154612cab565b808061291290613ee2565b91505061288e565b50600181600a0160026101000a81548160ff0219169083151502179055505050565b60008054906101000a900473ffffffffffffffffffffffffffffffffffffffff1673ffffffffffffffffffffffffffffffffffffffff163373ffffffffffffffffffffffffffffffffffffffff16141580156129e65750600260009054906101000a900473ffffffffffffffffffffffffffffffffffffffff1673ffffffffffffffffffffffffffffffffffffffff163373ffffffffffffffffffffffffffffffffffffffff1614155b15612a1d576040517ff864ae5900000000000000000000000000000000000000000000000000000000815260040160405180910390fd5b60005b600454811015612b0357600060056000838152602001908152602001600020905060006004811115612a5557612a54613490565b5b81600a0160009054906101000a900460ff166004811115612a7957612a78613490565b5b03612aef57600281600a0160006101000a81548160ff02191690836004811115612aa657612aa5613490565b5b02179055507f5b0c82513cc7f1f8087a09ca71440f01a3e4bbc6c46495f1004842a1bc1dede08282600401548360050154604051612ae693929190613e53565b60405180910390a15b508080612afb90613ee2565b915050612a20565b50565b600080600560006004548152602001908152602001600020905080600501544210612b35576001915050612b3b565b60009150505b90565b6000600560008381526020019081526020016000209050600480811115612b6857612b67613490565b5b81600a0160009054906101000a900460ff166004811115612b8c57612b8b613490565b5b14612bc3576040517fadafbc9600000000000000000000000000000000000000000000000000000000815260040160405180910390fd5b6000816006015490506000606460015483612bde91906141f2565b612be89190614263565b905060008183612bf89190613deb565b9050612c288460010160009054906101000a900473ffffffffffffffffffffffffffffffffffffffff1682612cab565b612c527f000000000000000000000000000000000000000000000000000000000000000083612cab565b3373ffffffffffffffffffffffffffffffffffffffff167f9a3866b92eb53bcee95d3202fbccf24673a278e8d2cad1f2acbc529703caf3e2868342604051612c9c93929190613e53565b60405180910390a25050505050565b60008273ffffffffffffffffffffffffffffffffffffffff1682604051612cd1906142c5565b60006040518083038185875af1925050503d8060008114612d0e576040519150601f19603f3d011682016040523d82523d6000602084013e612d13565b606091505b5050905080612d2157600080fd5b505050565b604051806101a0016040528060008152602001600073ffffffffffffffffffffffffffffffffffffffff168152602001606081526020016060815260200160008152602001600081526020016000815260200160608152602001606081526020016060815260200160006004811115612da257612da1613490565b5b815260200160006004811115612dbb57612dba613490565b5b81526020016000151581525090565b828054828255906000526020600020908101928215612e43579160200282015b82811115612e425782518260006101000a81548173ffffffffffffffffffffffffffffffffffffffff021916908373ffffffffffffffffffffffffffffffffffffffff16021790555091602001919060010190612dea565b5b509050612e509190612ea1565b5090565b828054828255906000526020600020908101928215612e90579160200282015b82811115612e8f578251825591602001919060010190612e74565b5b509050612e9d9190612ea1565b5090565b5b80821115612eba576000816000905550600101612ea2565b5090565b6000604051905090565b600080fd5b600080fd5b6000819050919050565b612ee581612ed2565b8114612ef057600080fd5b50565b600081359050612f0281612edc565b92915050565b600060208284031215612f1e57612f1d612ec8565b5b6000612f2c84828501612ef3565b91505092915050565b600081519050919050565b600082825260208201905092915050565b6000819050602082019050919050565b600073ffffffffffffffffffffffffffffffffffffffff82169050919050565b6000612f8c82612f61565b9050919050565b612f9c81612f81565b82525050565b6000612fae8383612f93565b60208301905092915050565b6000602082019050919050565b6000612fd282612f35565b612fdc8185612f40565b9350612fe783612f51565b8060005b83811015613018578151612fff8882612fa2565b975061300a83612fba565b925050600181019050612feb565b5085935050505092915050565b600081519050919050565b600082825260208201905092915050565b6000819050602082019050919050565b61305a81612ed2565b82525050565b600061306c8383613051565b60208301905092915050565b6000602082019050919050565b600061309082613025565b61309a8185613030565b93506130a583613041565b8060005b838110156130d65781516130bd8882613060565b97506130c883613078565b9250506001810190506130a9565b5085935050505092915050565b600060408201905081810360008301526130fd8185612fc7565b905081810360208301526131118184613085565b90509392505050565b60008115159050919050565b61312f8161311a565b82525050565b600060208201905061314a6000830184613126565b92915050565b61315981612f81565b82525050565b60006020820190506131746000830184613150565b92915050565b61318381612ed2565b82525050565b600060208201905061319e600083018461317a565b92915050565b600080fd5b600080fd5b6000601f19601f8301169050919050565b7f4e487b7100000000000000000000000000000000000000000000000000000000600052604160045260246000fd5b6131f7826131ae565b810181811067ffffffffffffffff82111715613216576132156131bf565b5b80604052505050565b6000613229612ebe565b905061323582826131ee565b919050565b600067ffffffffffffffff821115613255576132546131bf565b5b61325e826131ae565b9050602081019050919050565b82818337600083830152505050565b600061328d6132888461323a565b61321f565b9050828152602081018484840111156132a9576132a86131a9565b5b6132b484828561326b565b509392505050565b600082601f8301126132d1576132d06131a4565b5b81356132e184826020860161327a565b91505092915050565b600060208284031215613300576132ff612ec8565b5b600082013567ffffffffffffffff81111561331e5761331d612ecd565b5b61332a848285016132bc565b91505092915050565b600081519050919050565b600082825260208201905092915050565b60005b8381101561336d578082015181840152602081019050613352565b60008484015250505050565b600061338482613333565b61338e818561333e565b935061339e81856020860161334f565b6133a7816131ae565b840191505092915050565b600082825260208201905092915050565b60006133ce82612f35565b6133d881856133b2565b93506133e383612f51565b8060005b838110156134145781516133fb8882612fa2565b975061340683612fba565b9250506001810190506133e7565b5085935050505092915050565b600082825260208201905092915050565b600061343d82613025565b6134478185613421565b935061345283613041565b8060005b8381101561348357815161346a8882613060565b975061347583613078565b925050600181019050613456565b5085935050505092915050565b7f4e487b7100000000000000000000000000000000000000000000000000000000600052602160045260246000fd5b600581106134d0576134cf613490565b5b50565b60008190506134e1826134bf565b919050565b60006134f1826134d3565b9050919050565b613501816134e6565b82525050565b6005811061351857613517613490565b5b50565b600081905061352982613507565b919050565b60006135398261351b565b9050919050565b6135498161352e565b82525050565b6135588161311a565b82525050565b60006101a0830160008301516135776000860182613051565b50602083015161358a6020860182612f93565b50604083015184820360408601526135a28282613379565b915050606083015184820360608601526135bc8282613379565b91505060808301516135d16080860182613051565b5060a08301516135e460a0860182613051565b5060c08301516135f760c0860182613051565b5060e083015184820360e086015261360f8282613379565b91505061010083015184820361010086015261362b82826133c3565b9150506101208301518482036101208601526136478282613432565b91505061014083015161365e6101408601826134f8565b50610160830151613673610160860182613540565b5061018083015161368861018086018261354f565b508091505092915050565b600060208201905081810360008301526136ad818461355e565b905092915050565b6136be816134e6565b82525050565b60006020820190506136d960008301846136b5565b92915050565b600080fd5b600080fd5b60008083601f8401126136ff576136fe6131a4565b5b8235905067ffffffffffffffff81111561371c5761371b6136df565b5b602083019150836001820283011115613738576137376136e4565b5b9250929050565b6000806020838503121561375657613755612ec8565b5b600083013567ffffffffffffffff81111561377457613773612ecd565b5b613780858286016136e9565b92509250509250929050565b600081519050919050565b600082825260208201905092915050565b60006137b38261378c565b6137bd8185613797565b93506137cd81856020860161334f565b6137d6816131ae565b840191505092915050565b60006040820190506137f66000830185613126565b818103602083015261380881846137a8565b90509392505050565b6000819050919050565b600061383661383161382c84612f61565b613811565b612f61565b9050919050565b60006138488261381b565b9050919050565b600061385a8261383d565b9050919050565b61386a8161384f565b82525050565b60006020820190506138856000830184613861565b92915050565b600081519050919050565b600082825260208201905092915050565b6000819050602082019050919050565b60006101a0830160008301516138d06000860182613051565b5060208301516138e36020860182612f93565b50604083015184820360408601526138fb8282613379565b915050606083015184820360608601526139158282613379565b915050608083015161392a6080860182613051565b5060a083015161393d60a0860182613051565b5060c083015161395060c0860182613051565b5060e083015184820360e08601526139688282613379565b91505061010083015184820361010086015261398482826133c3565b9150506101208301518482036101208601526139a08282613432565b9150506101408301516139b76101408601826134f8565b506101608301516139cc610160860182613540565b506101808301516139e161018086018261354f565b508091505092915050565b60006139f883836138b7565b905092915050565b6000602082019050919050565b6000613a188261388b565b613a228185613896565b935083602082028501613a34856138a7565b8060005b85811015613a705784840389528151613a5185826139ec565b9450613a5c83613a00565b925060208a01995050600181019050613a38565b50829750879550505050505092915050565b60006020820190508181036000830152613a9c8184613a0d565b905092915050565b600080600060608486031215613abd57613abc612ec8565b5b6000613acb86828701612ef3565b9350506020613adc86828701612ef3565b9250506040613aed86828701612ef3565b9150509250925092565b60058110613b0457600080fd5b50565b600081359050613b1681613af7565b92915050565b600067ffffffffffffffff821115613b3757613b366131bf565b5b613b40826131ae565b9050602081019050919050565b6000613b60613b5b84613b1c565b61321f565b905082815260208101848484011115613b7c57613b7b6131a9565b5b613b8784828561326b565b509392505050565b600082601f830112613ba457613ba36131a4565b5b8135613bb4848260208601613b4d565b91505092915050565b60008060008060008060c08789031215613bda57613bd9612ec8565b5b6000613be889828a01613b07565b965050602087013567ffffffffffffffff811115613c0957613c08612ecd565b5b613c1589828a01613b8f565b955050604087013567ffffffffffffffff811115613c3657613c35612ecd565b5b613c4289828a01613b8f565b9450506060613c5389828a01612ef3565b9350506080613c6489828a01612ef3565b92505060a087013567ffffffffffffffff811115613c8557613c84612ecd565b5b613c9189828a01613b8f565b9150509295509295509295565b613ca781612f81565b8114613cb257600080fd5b50565b600081359050613cc481613c9e565b92915050565b600060208284031215613ce057613cdf612ec8565b5b6000613cee84828501613cb5565b91505092915050565b60058110613d0457600080fd5b50565b600081359050613d1681613cf7565b92915050565b60008060408385031215613d3357613d32612ec8565b5b6000613d4185828601612ef3565b9250506020613d5285828601613d07565b9150509250929050565b7f4e487b7100000000000000000000000000000000000000000000000000000000600052602260045260246000fd5b60006002820490506001821680613da357607f821691505b602082108103613db657613db5613d5c565b5b50919050565b7f4e487b7100000000000000000000000000000000000000000000000000000000600052601160045260246000fd5b6000613df682612ed2565b9150613e0183612ed2565b9250828203905081811115613e1957613e18613dbc565b5b92915050565b6000613e2a82612ed2565b9150613e3583612ed2565b9250828201905080821115613e4d57613e4c613dbc565b5b92915050565b6000606082019050613e68600083018661317a565b613e75602083018561317a565b613e82604083018461317a565b949350505050565b6000604082019050613e9f600083018561317a565b613eac602083018461317a565b9392505050565b7f4e487b7100000000000000000000000000000000000000000000000000000000600052603260045260246000fd5b6000613eed82612ed2565b91507fffffffffffffffffffffffffffffffffffffffffffffffffffffffffffffffff8203613f1f57613f1e613dbc565b5b600182019050919050565b60008190508160005260206000209050919050565b60006020601f8301049050919050565b600082821b905092915050565b600060088302613f8c7fffffffffffffffffffffffffffffffffffffffffffffffffffffffffffffffff82613f4f565b613f968683613f4f565b95508019841693508086168417925050509392505050565b6000613fc9613fc4613fbf84612ed2565b613811565b612ed2565b9050919050565b6000819050919050565b613fe383613fae565b613ff7613fef82613fd0565b848454613f5c565b825550505050565b600090565b61400c613fff565b614017818484613fda565b505050565b5b8181101561403b57614030600082614004565b60018101905061401d565b5050565b601f8211156140805761405181613f2a565b61405a84613f3f565b81016020851015614069578190505b61407d61407585613f3f565b83018261401c565b50505b505050565b600082821c905092915050565b60006140a360001984600802614085565b1980831691505092915050565b60006140bc8383614092565b9150826002028217905092915050565b6140d582613333565b67ffffffffffffffff8111156140ee576140ed6131bf565b5b6140f88254613d8b565b61410382828561403f565b600060209050601f8311600181146141365760008415614124578287015190505b61412e85826140b0565b865550614196565b601f19841661414486613f2a565b60005b8281101561416c57848901518255600182019150602085019450602081019050614147565b868310156141895784890151614185601f891682614092565b8355505b6001600288020188555050505b505050505050565b6141a78161352e565b82525050565b60006080820190506141c2600083018761317a565b6141cf602083018661419e565b6141dc604083018561317a565b6141e9606083018461317a565b95945050505050565b60006141fd82612ed2565b915061420883612ed2565b925082820261421681612ed2565b9150828204841483151761422d5761422c613dbc565b5b5092915050565b7f4e487b7100000000000000000000000000000000000000000000000000000000600052601260045260246000fd5b600061426e82612ed2565b915061427983612ed2565b92508261428957614288614234565b5b828204905092915050565b600081905092915050565b50565b60006142af600083614294565b91506142ba8261429f565b600082019050919050565b60006142d0826142a2565b915081905091905056fea2646970667358221220f3efb31bc170432d7f7ecc115d0c6ddbf864c3ce9b64c91893570b62eef7e7a564736f6c63430008110033",
  "linkReferences": {},
  "deployedLinkReferences": {}
}